:020000040800F2
:100000000080012055380008ED370008EF37000860
:10001000F1370008F3370008F5370008000000004A
:100020000000000000000000000000003120000877
:10003000F737000800000000C12000082521000853
:10004000A5380008A5380008A5380008A53800081C
:10005000A5380008A5380008F9370008A5380008B9
:10006000A5380008A5380008A5380008A5380008FC
:10007000A5380008A5380008A5380008A5380008EC
:10008000A5380008A5380008A5380008A5380008DC
:10009000A5380008A5380008A5380008A5380008CC
:1000A000A5380008A5380008A5380008A5380008BC
:1000B000A5380008A5380008A5380008A5380008AC
:1000C000A5380008A5380008A5380008A53800089C
:1000D000A5380008A5380008A5380008A53800088C
:1000E000A5380008A5380008A5380008A53800087C
:1000F000A5380008A5380008A5380008A53800086C
:10010000A5380008A5380008A5380008A53800085B
:10011000A5380008A538000801380008A5380008EF
:10012000A5380008A5380008A5380008A53800083B
:10013000A5380008A5380008A5380008A53800082B
:10014000A5380008A5380008A5380008A53800081B
:10015000A5380008A5380008A5380008A53800080B
:10016000A5380008A5380008A5380008A5380008FB
:10017000A5380008A5380008A538000800000000D0
:08018000A5380008A5380008AD
:1001900010B5054C237833B9044B13B10448AFF3C1
:1001A00000800123237010BD6C00002000000000BF
:1001B0007447000808B5034B1BB103490348AFF36C
:1001C000008008BD00000000700000207447000897
:1001D00001F0FF01102A2BDB10F0070F08D010F8F8
:1001E000013B013A8B422DD010F0070F42B3F6D1FC
:1001F000F0B441EA012141EA014122F007047FF015
:1002000000070023F0E80256083C85EA010586EA6B
:10021000010685FA47F5A3FA87F586FA47F6A5FAA7
:1002200087F68EB9EED1F0BC01F0FF0102F00702B3
:1002300032B110F8013B013A83EA010313B1F8D15E
:100240000020704701387047002D06BF354603383F
:10025000073815F0010F07D1013015F4807F02BF78
:10026000013015F4C03F0130F0BC0138704700BFC9
:1002700053B94AB9002908BF00281CBF4FF0FF310D
:100280004FF0FF3000F07AB9ADF1080C6DE904CE03
:1002900000F006F8DDF804E0DDE9022304B0704761
:1002A0002DE9F0478C460D460446089E002B51D19F
:1002B0008A4217466DD9B2FA82FEBEF1000F0BD00A
:1002C000CEF1200C01FA0EF520FA0CFC02FA0EF722
:1002D0004CEA050C00FA0EF44FEA174A250CBCFB59
:1002E000FAF81FFA87F90AFB18CC45EA0C4508FB17
:1002F00009F3AB420AD9ED1908F1FF3280F02381EE
:10030000AB4240F22081A8F102083D44ED1AA4B2AC
:10031000B5FBFAF00AFB105544EA054400FB09F965
:10032000A14509D9E41900F1FF3380F00A81A14504
:1003300040F2078102383C44A4EB090440EA08403B
:100340000021002E61D024FA0EF400233460736083
:10035000BDE8F0878B4207D9002E54D0002186E8F3
:1003600021000846BDE8F087B3FA83F1002940F088
:100370008E80AB4202D3824200F2FA80841A65EB8F
:1003800003050120AC46002E3FD086E81010BDE8E2
:10039000F08712B90127B7FBF2F7B7FA87FEBEF173
:1003A000000F34D1EB1B3A0C1FFA87FC0121B3FB81
:1003B000F2F8250C02FB183345EA03450CFB08F361
:1003C000AB4207D9ED1908F1FF3002D2AB4200F27F
:1003D000D1808046ED1AA3B2B5FBF2F002FB1055B6
:1003E00043EA05440CFB00FCA44507D9E41900F1DD
:1003F000FF3302D2A44500F2B8801846A4EB0C04E7
:1004000040EA08409DE731463046BDE8F087CEF12E
:10041000200405FA0EF307FA0EF720FA04F83A0C56
:1004200025FA04F448EA0308B4FBF2F14FEA184550
:1004300002FB11441FFA87FC45EA044501FB0CF35B
:10044000AB4200FA0EF409D9ED1901F1FF3080F04A
:100450008A80AB4240F2878002393D44EB1A1FFA92
:1004600088F5B3FBF2F002FB103345EA034500FBCD
:100470000CF3AB4207D9ED1900F1FF386FD2AB4254
:100480006DD902383D44EB1A40EA01418FE7C1F1D2
:10049000200722FA07F88B4005FA01F448EA030323
:1004A00020FA07FE4FEA134CFD404EEA040EB5FB5E
:1004B000FCF94FEA1E440CFB19551FFA83F844EA75
:1004C000054509FB08F4AC4202FA01F200FA01FA10
:1004D00008D9ED1809F1FF3043D2AC4241D9A9F156
:1004E00002091D442D1B1FFA8EFEB5FBFCF00CFB10
:1004F00010554EEA054400FB08F8A04507D9E4185A
:1005000000F1FF3529D2A04527D902381C4440EA22
:100510000940A4EB0804A0FB02894C45C6464D46A1
:1005200015D312D056B1BAEB0E0364EB050404FAEE
:1005300007F7CB401F43CC40376074600021BDE813
:10054000F0871846F8E69046E0E6C245EAD2B8EBF6
:10055000020E69EB03050138E4E72846D7E7404679
:1005600091E78146BEE7014678E702383C4445E71B
:10057000084608E7A8F102083D442BE7704700BF92
:1005800010B5032000F01AF8002003F0F3F8044639
:1005900018B903F09DF8204610BD0124FBE70000C8
:1005A000024A136801331360704700BFF02800202F
:1005B000014B1868704700BFF0280020074AD36835
:1005C00023F4E0631B041B0C43F0BF63000243F4FD
:1005D000003300F4E0600343D360704700ED00E0B7
:1005E000174B30B5DC68C4F30224C4F10703251DA2
:1005F000042B28BF0423062D4FF0010505FA03F351
:1006000003F1FF338CBF033C00241940A14005FADD
:1006100004F4013C2240002842EA01024FEA02129F
:10062000AFBF00F1604000F00F00064BD2B2A5BF93
:1006300000F56140D2B21A5480F8002330BD00BFEB
:1006400000ED00E014ED00E04209012300F01F007E
:1006500003FA00F0014B43F82200704700E100E08C
:100660002DE9F04F85B00B68DFF8A881674C019346
:100670000023019ADA4002D105B0BDE8F08F0126CF
:10068000019A9E4012EA060E00F0B1804A6822F0FC
:100690001007022F16D14FEAD30900EB890903F0A6
:1006A000070AD9F820504FEA8A0A4FF00F0C0CFACB
:1006B0000AFC25EA0C0C0D6905FA0AF545EA0C0559
:1006C000C9F820504FEA430C0325D0F800B005FAD2
:1006D0000CF5ED4302F0030A0BEA050B0AFA0CF9DC
:1006E000013F49EA0B09012FC0F8009011D8876833
:1006F00005EA0709CF6807FA0CF747EA0907876098
:10070000476827EA0609C2F300179F4047EA09072E
:100710004760BAF1030F07D1C76A27EA0606C2F39A
:10072000C0079F403E43C662C66835408E6806FAE1
:100730000CF63543C560D50059D5D8F8605045F062
:100740000105C8F86050D8F8605023F0030606F1A0
:10075000804605F0010506F58036039503F0030C8D
:10076000039DB5684FEA8C0C0F2707FA0CF7B0F120
:10077000904F25EA07073CD0254DA8423BD005F510
:100780008065A84239D005F58065A84237D005F5C7
:100790008065A84235D005F58065A84233D005F5BF
:1007A0008065A84214BF0725062505FA0CF53D43D0
:1007B000B56025686FEA0E06D70354BF35404EEA90
:1007C000050525606568970354BF35404EEA050569
:1007D0006560A568D70254BF35404EEA0505A5609F
:1007E000E568920254BF35404EEA0505E5600133E5
:1007F0003FE70025D9E70125D7E70225D5E70325FF
:10080000D3E70425D1E70525CFE700BF0004014069
:1008100000040048001002400AB181617047816203
:100820007047704708B5044B5969014202D05861BE
:10083000FFF7F7FF08BD00BF00040140024B186836
:1008400000F4C060704700BF00700040174B1A688A
:10085000B0F5007F02F4C0621CD1B2F5007F15D064
:100860001A6822F4C06242F400721A60104A1168D9
:1008700032224A430F49B2FBF1F21946013258695C
:10088000400500D522B94B695B050DD400207047A7
:10089000013AF4E7B2F5806F1FBF1A6822F4C06214
:1008A00042F480621A60F1E7032070470070004054
:1008B0000400002040420F0037B51E4DAB6DDA003A
:1008C000044618D5FFF7BAFFB0F5007F23D1802C7E
:1008D00029D9A02C8CBF02200120174A136823F0CD
:1008E000070303431360136803F00703181A18BFC4
:1008F000012003B030BDAB6D43F08053AB65AB6DF1
:1009000003F080530193019BFFF798FFAB6D23F039
:100910008053AB65D8E7802C07D808D0A4F17003CA
:1009200058425841D9E70020D7E70320D5E70220F5
:10093000D3E700BF0010024000200240254B9A6818
:10094000D96812F00C0205D00C2A15D101F0030170
:10095000012918D119682048090755BFD3F8941008
:100960001968C1F30321C1F3031150F8210082B3C8
:100970000C2A09D000207047042A29D0082A1748D9
:1009800018BF002070470020D968DA6801F0030121
:10099000C2F30212022902F1010205D0032912D08A
:1009A000D968C1F3062103E0D9680D48C1F30621D7
:1009B000DB68B0FBF2F0C3F34163013348435B00F3
:1009C000B0FBF3F07047D9680448C1F30621EFE7A4
:1009D00003487047001002400C48000800127A00DB
:1009E0000024F4002DE9F743054618B9012003B0AF
:1009F000BDE8F083A54C0368A668E768DB0606F04F
:100A00000C0607F003073CD51EB10C2E63D1012F55
:100A100061D12368980702D5AB69002BE6D0236823
:100A2000286A190756BFD4F8943023681B0903F0CD
:100A3000F00383423AD2FFF73FFF0028D6D1236864
:100A400043F00803236023682A6A23F0F00313436A
:100A500023606368EA6923F47F4343EA0223636007
:100A6000FFF76CFFA3688A4AC3F30313D35C03F058
:100A70001F03D840874B1860002002F07BFE00283F
:100A8000B5D12B68D8075DD42B68990700F19C80FD
:100A90002B68180700F1D0802B68590700F1FC8003
:100AA000AB6A002B40F065810020A0E7236843F08B
:100AB00008032360236823F0F00303432360636883
:100AC000EA6923F47F4343EA02236360FFF7F4FEFD
:100AD0000028C5D08AE7AB691BB3236843F0010344
:100AE0002360FFF765FD804623689A0711D52368C8
:100AF00043F00803236023682A6A23F0F0031343BA
:100B000023606368EA6923F47F4343EA0223636056
:100B1000B7E7FFF74DFDA0EB08000228E4D903205A
:100B200065E7236823F001032360FFF741FD80465A
:100B300023689B07A5D5FFF73BFDA0EB0800022823
:100B4000F6D9ECE7082E03D00C2E08D1032F06D1DE
:100B500023689A0398D56B68002B95D146E76B689C
:100B6000B3F5803F10D1236843F480332360FFF74F
:100B70001FFD804623689B0386D4FFF719FDA0EB79
:100B800008006428F6D9CAE7B3F5A02F04D123687A
:100B900043F480232360E6E7226822F48032226057
:100BA000226822F480222260002BE0D1FFF700FDB2
:100BB0008046236898037FF567AFFFF7F9FCA0EB49
:100BC00008006428F5D9AAE7042E03D00C2E10D112
:100BD000022F0ED12368590503D5EB68002B3FF493
:100BE00005AF63682A6923F0F85343EA0263636040
:100BF0004EE7EB687BB1236843F480732360FFF713
:100C0000D7FC074623685A05EBD4FFF7D1FCC01B7D
:100C10000228F7D983E7236823F480732360FFF762
:100C2000C7FC074623685B057FF532AFFFF7C0FCC2
:100C3000C01B0228F6D972E76B699BB1D4F89430D7
:100C400043F00103C4F89430FFF7B2FC0746D4F830
:100C500094309A073FF520AFFFF7AAFCC01B02288B
:100C6000F5D95CE7D4F8943023F00103C4F894304C
:100C7000FFF79EFC0746D4F894309B077FF50CAF36
:100C8000FFF796FCC01B0228F5D948E70010024088
:100C9000F247000804000020A36DD80029D4A36DFA
:100CA00043F08053A365A36D03F080530193019B30
:100CB0004FF001085D4F3B68D9051DD5AB68012B8E
:100CC0002BD1D4F8903043F00103C4F89030FFF7F3
:100CD0006FFC41F288390746D4F890309B0742D523
:100CE000B8F1000F3FF4DCAEA36D23F08053A36591
:100CF000D6E64FF00008DDE73B6843F480733B60C5
:100D0000FFF756FC81463B68DA05D7D4FFF750FC65
:100D1000A0EB09000228F6D901E7052B06D1D4F88B
:100D2000903043F00403C4F89030CAE7D4F8902020
:100D300022F00102C4F89020D4F8902022F004029E
:100D4000C4F89020002BC2D1FFF732FC41F2883961
:100D50000746D4F890309807C2D5FFF729FCC01B8E
:100D60004845F6D9DBE6FFF723FCC01B4845B3D95D
:100D7000D5E60C2E3FF43AAE022B236823F08073A5
:100D8000236037D1FFF714FC0646236899012BD462
:100D90006A6BEB6A43EA02232A6B013A43EA0213C5
:100DA000AA6B120943EA4243EA6B5208013A43EA4A
:100DB00042532A6C5208013A43EA4263E3602368D3
:100DC00043F080732360E36843F08073E360FFF7D0
:100DD000EFFB054623689A013FF566AEFFF7E8FB97
:100DE000401B0228F6D99AE6FFF7E2FB801B022897
:100DF000CBD994E6236813F0205F02BFE36823F0A9
:100E00000303E360E36823F0887323F48033E36033
:100E1000FFF7CEFB054623689B017FF545AEFFF744
:100E2000C7FB401B0228F6D979E600BF00700040DE
:100E30002DE9F0410E46044610B90120BDE8F081CD
:100E4000404A136803F007038B4229D32368D9076C
:100E500031D421688A075BD43A4A136803F0070348
:100E60009E425DD311F0040F374D64D10B0706D5B8
:100E7000AB68226923F4605343EAC203AB60FFF717
:100E80005DFDAB68314AC3F30313BDE8F041D35CA9
:100E900003F01F03D8402E4B1860002002F06ABCFC
:100EA000136823F007030B431360136803F0070371
:100EB0009942C2D1CAE76268234D032A2B681BD12D
:100EC00013F0007FB9D0AB6823F003031343AB608A
:100ED000FFF76EFB41F288380746AB68626803F0A3
:100EE0000C03B3EB820FB4D0FFF762FBC01B40458D
:100EF000F3D90320BDE8F081022A02D113F4003FA8
:100F0000E0E712B913F0020FDCE713F4806FD9E7C2
:100F10000D4AA068936823F0F003034393609BE7B6
:100F2000136823F0070333431360136803F00703C8
:100F30009E4282D196E7AB68E26823F4E0631343F4
:100F4000AB6093E70020024000100240F247000827
:100F500004000020054B064A9B68C3F30223D35CC0
:100F6000044A106803F01F03D84070470010024085
:100F70000248000804000020054B064A9B68C3F3A2
:100F8000C223D35C044A106803F01F03D8407047A3
:100F90000010024002480008040000200F230360F4
:100FA0000B4B9A6802F0030242609A6802F0F0026A
:100FB00082609A6802F4E062C2609B68DB0803F416
:100FC000E0630361034B1B6803F007030B6070478A
:100FD0000010024000200240F8B5454BDA6812F0DC
:100FE000030F05460E461C4600682AD0DA6802F058
:100FF000030282423CD1002A3AD0DB686A68C3F31C
:1010000002130133934233D1236823F080632360BA
:10101000FFF7CEFA074623681A0132D4AF68002ED4
:1010200036D0012E50D12269286922F4C00240082E
:1010300022F4FE42013842EA072242EA405222618B
:1010400032E0022810D0032814D0012810D11B68E8
:101050009F0738D5E3686A6823F07303013A1843A1
:1010600040EA0210E060CFE71B6813F4806FF1D113
:101070000120F8BD1A689103ECD41B6813F4802F8B
:10108000F5E7FFF795FAC01B0228C4D90320F8BD85
:101090002169EB6821F41F3121F4407141EA0721F5
:1010A0001B0941EA43412161236843F080632360C7
:1010B000FFF77EFA064623681B0113D52369AA6948
:1010C000134323610020F8BD2369686923F0C063DE
:1010D000400823F4FE43013843EA072343EA406310
:1010E0002361E1E7FFF764FA801B0228E3D9CDE72B
:1010F00000100240F8B53D4BDA6812F0030F0546C8
:101100000E461C46006828D0DA6802F003028242CC
:101110003AD1002A38D0DB686A68C3F3021301337E
:10112000934231D1236823F080532360FFF740FAC4
:10113000074623689A0030D4A868002E34D063692B
:10114000296923F0C063490823F4FE43013943EAC7
:10115000002343EA4163636132E0022810D0032890
:1011600014D0012810D11B689F0738D5E3686A683E
:1011700023F07303013A184340EA0210E060D1E71C
:101180001B6813F4806FF1D10120F8BD1A68910338
:10119000ECD41B6813F4802FF5E7FFF709FAC01BA6
:1011A0000228C6D90320F8BD6269EB6822F41F3219
:1011B00022F4407242EA00221B0942EA4342626181
:1011C000236843F080532360FFF7F2F90646236853
:1011D0009B0005D563696A69134363610020F8BD0C
:1011E000FFF7E6F9801B0228F1D9DBE70010024087
:1011F0002DE9F347066816F40066044624D0416ED4
:10120000B1F5800F2CD002D8C1B101261CE0B1F598
:10121000000F0DD0B1F5400FF7D14D4A616ED2F8F5
:10122000883023F440030B43C2F8883000260BE0DB
:10123000474AD36843F48033D360EEE70430FFF7C6
:10124000CBFE06460028E8D02368D80406D5A16E58
:10125000B1F1807F74D008D8A9B10126354621E0CC
:1012600000212030FFF746FFEBE7B1F1007F04D00B
:10127000B1F1407FF1D1354609E0354AD36843F4F6
:101280008033D360F7E7201DFFF7A6FE0546002D4B
:101290005CD12F4AA16ED2F8883023F040730B4303
:1012A000C2F888302368990340F14F81284FBB6D05
:1012B000DA0040F176814FF00008DFF89890D9F815
:1012C000003043F48073C9F80030FFF771F98246AB
:1012D000D9F80030DB053FD5002D44D1D7F8903048
:1012E00013F4407315D0D4F88420934211D0D7F86A
:1012F0009030D7F8902042F48032C7F89020D7F889
:10130000902023F4407322F48032C7F89020C7F86D
:101310009030D80709D5FFF74BF941F288390546D7
:10132000D7F89030990740F10981D7F89030D4F878
:10133000842023F440731343C7F89030354612E0FD
:10134000002104F12000FFF7D5FE9FE72E46A9E714
:101350000010024000700040FFF72AF9A0EB0A00DD
:101360000228B5D90325B8F1000F03D0BB6D23F0D7
:101370008053BB652368DA0708D59049A06BD1F884
:10138000882022F003020243C1F888209F0708D575
:101390008A49E06BD1F8882022F00C020243C1F8A0
:1013A00088205E0708D58549206CD1F8882022F076
:1013B00030020243C1F88820180708D57F49606CC5
:1013C000D1F8882022F0C0020243C1F88820D90653
:1013D00008D57A49A06CD1F8882022F440720243E3
:1013E000C1F888209A0608D57449E06CD1F88820A5
:1013F00022F440620243C1F888209F0508D56F4956
:10140000E06DD1F8882022F440220243C1F8882000
:101410005E0508D56949206ED1F8882022F4401273
:101420000243C1F88820580608D56449206DD1F8D8
:10143000882022F440520243C1F88820190608D5BA
:101440005E49606DD1F8882022F440420243C1F821
:101450008820DA0508D55949A06DD1F8882022F4F2
:1014600040320243C1F888209B040FD5534AE16EF5
:10147000D2F8883023F040630B43B1F1006FC2F81B
:10148000883064D1D36843F48013D36023681F038A
:101490000FD54A4A216FD2F8883023F040630B43BE
:1014A000B1F1006FC2F888305CD1D36843F4801387
:1014B000D36023685E030FD5404A616FD2F888304D
:1014C00023F040630B43B1F1006FC2F8883054D170
:1014D000D36843F48013D3602368580412D5374986
:1014E000A26FD1F8883023F040531343B2F1805FEC
:1014F000C1F888304CD10221201DFFF76DFD002876
:1015000018BF05462268110408D52C49E06FD1F8B0
:10151000883023F080430343C1F88830D30309D5D2
:10152000264AD4F88010D2F8883023F000430B43C9
:10153000C2F88830284602B0BDE8F087FFF738F8D7
:10154000401B48457FF6ECAE0CE7354612E7B1F19B
:10155000806F9BD10121201DFFF73EFD002818BFA1
:10156000054693E7B1F1806FA3D10121201DFFF75C
:1015700033FD002818BF05469BE7B1F1806FABD162
:101580000121201DFFF728FD002818BF0546A3E70D
:10159000B2F1005FB6D1022104F12000FFF7AAFDED
:1015A000ADE7BB6D43F08053BB65BB6D03F080536B
:1015B0000193019B4FF001087FE600BF001002403D
:1015C0007047000003680A48DA6842F00102DA60F6
:1015D00099680140062908D09A680240B2F5803F18
:1015E0001EBF1A6842F001021A600020704700BF57
:1015F00007000100704770477047704703681A6919
:10160000910710B504460FD5DA6892070CD56FF034
:1016100002021A619B6901229907027700F0858016
:10162000FFF7E9FF0023237723681A69520710D5D3
:10163000DA6850070DD56FF004021A619B69022227
:1016400013F4407F2277204675D0FFF7D4FF0023A4
:10165000237723681A6911070FD5DA6812070CD5AA
:101660006FF008021A61DB6904229B07227720468B
:1016700067D0FFF7C0FF0023237723681A69D006DD
:1016800010D5DA68D1060DD56FF010021A61DB694A
:10169000082213F4407F2277204658D0FFF7ABFF93
:1016A0000023237723681A69D20708D5DA68D007A0
:1016B00005D56FF001021A61204601F0FFFF236893
:1016C0001A69110608D5DA68120605D56FF080028E
:1016D0001A61204600F0C3F823681A69D00508D5BE
:1016E000DA68110605D56FF480721A61204600F0A1
:1016F000B7F823681A69520608D5DA68500605D586
:101700006FF040021A612046FFF777FF23681A69DD
:10171000910622D5DA6892061FD56FF02002204686
:101720001A61BDE8104000F099B8FFF763FF20464A
:10173000FFF762FF76E7FFF75DFF2046FFF75CFFEC
:1017400085E7FFF757FF2046FFF756FF93E7FFF7C0
:1017500051FF2046FFF750FFA2E710BD304A036853
:10176000904212D0B0F1804F0FD0A2F59432904247
:101770000BD002F58062904207D002F58062904261
:1017800003D002F59432904219D14A6823F07003D5
:101790001343234A90421DD0B0F1804F1AD0A2F5D6
:1017A0009432904216D002F58062904212D002F537
:1017B000806290420ED002F5943290420AD0194ACB
:1017C000904207D002F58062904203D002F5806219
:1017D000904203D1CA6823F4407313434A6923F04B
:1017E0008003134303608B68C3620B6883620C4BF6
:1017F00098420FD003F5006398420BD003F5406385
:10180000984207D003F58063984203D003F58063C4
:10181000984201D10B69036301234361704700BF04
:10182000002C01400040014010B50446A0B190F8E2
:101830003D3003F0FF021BB980F83C20FFF7C0FEEB
:10184000022384F83D302068211DFFF787FF012324
:1018500084F83D30002010BD012010BD7047704756
:10186000704700000268C169F8B5044683680069E2
:101870001568034360690343BA480B432840034398
:1018800013605368E06823F4405303435360B64B3E
:10189000A0699A421CBF236A1843936823F43063FB
:1018A00003439360B14B9A4219D103F55843B04AB0
:1018B000D3F8883003F00303B1F5004FD35C40F058
:1018C0003881082B00F28F80DFE813F01A01CA007C
:1018D000F9008D0014018D008D008D003600A54BA0
:1018E0009A4207D103F5E633A34AD3F8883003F0D0
:1018F0000C03E1E7A14B9A4223D103F5E433D3F87B
:10190000883003F03003102B00F0F1800BD8002B4F
:1019100000F0F380B1F5004F4FF001024FF00003EB
:1019200000F0F880A8E0202B00F0C680302BF1D129
:10193000B1F5004F40F0B8806068430803F580338C
:10194000C3E08F4B9A421ED103F5E233D3F88830BF
:1019500003F0C003402B00F0BB800AD87BB9824B58
:101960009A4240F0CA80FFF7F5FA0023B0BB024666
:101970003AE0802B00F09D80C02B00F0B0807A4BC5
:101980009A42C7D12FE07F4B9A4211D103F5E03341
:10199000D3F8883003F44073B3F5807F00F098806B
:1019A000DCD9B3F5007F00F08480B3F5407FE4E735
:1019B0006D4B9A42AED103F5C833D3F8883003F4A7
:1019C0004063B3F5806F00F08380C7D9B3F5006F33
:1019D0006FD0B3F5406FD0E76B480223626802EB2B
:1019E0004201814205D90122002323666366104625
:1019F000F8BDB0EB023FF6D8082B2ED8DFE803F095
:101A0000052D1C2D242D2D2D2700FFF7A3FA62682C
:101A10004FF4807156080027E1FB00670023304631
:101A20003946FEF725FC0022584BA0F5407199423B
:101A3000D9D82368D860D7E7554855080023002136
:101A4000401941F10001ECE7FEF778FFDFE75008AD
:101A50000021002310F50000F3E701220020E3E756
:101A6000FFF78AFA4EE0FFF775FA626800EB52035F
:101A7000B3FBF2F39BB20022A3F110004FF6EF711B
:101A80008842B0D82168CB60AEE7FFF775FAECE783
:101A90006068430803F5740303F51053B3FBF0F3D8
:101AA000E8E7FEF74BFFE0E76068430803F5004313
:101AB000F4E72D4B9A428FD0B1F5004FE8D1606822
:101AC000430803F1F47303F59043B3FBF0F31FE015
:101AD000254B9A420BD1FEF731FF042346E7224BF8
:101AE0009A427FF425AF4FF40040082376E7B1F522
:101AF000004FD6D1FEF722FF04E0B1F5004FB2D17E
:101B0000FFF728FA61684A0802EB4003B3FBF1F3E0
:101B10009BB20022A3F110004FF6EF7188423FF60E
:101B200062AF23F00F012068C3F342030B43C3608D
:101B30005AE7082B3FF657AF01A252F823F000BF37
:101B4000671A00088B1A0008911A0008E7190008A4
:101B5000A31A0008E7190008E7190008E7190008A8
:101B6000A91A0008F369FFEF008000400038014027
:101B7000B447000800440040B8470008004800404F
:101B8000004C0040005000400024F400FFFC0F0017
:101B9000000024F4436ADA0710B506D50168846AA8
:101BA0004A6822F4003222434A609C0706D5016845
:101BB000C46A4A6822F4803222434A60590706D533
:101BC0000168046B4A6822F4802222434A601A07A3
:101BD00006D50168446B4A6822F4004222434A60F9
:101BE000DC0606D50168846B8A6822F480522243A1
:101BF0008A60990606D50168C46B8A6822F400528F
:101C000022438A605A060FD50168046C4A6822F4A0
:101C100080122243B4F5801F4A6005D14A68446CA3
:101C200022F4C00222434A601B0606D50268816C7A
:101C3000536823F400230B43536010BD2DE9F0419A
:101C4000069D04460F46164698462168CA6937EA3B
:101C500002030CBF01220022B24202D00020BDE8E4
:101C6000F0816B1CF2D09DB923681A6822F4D072FF
:101C70001A609A6822F001029A60202384F8713079
:101C800084F87230002384F870300320BDE8F081BE
:101C9000FEF78EFCA0EB08008542D6D2E4E72DE9E2
:101CA000F3411F4690F87130202B04460D469046B4
:101CB0004AD1002946D0002A44D090F87030012B38
:101CC00042D0012380F8703000234367212380F83D
:101CD0007130FEF76DFCA4F850800646A4F85280DF
:101CE000B4F85220009792B2334652B940212046B0
:101CF000FFF7A4FF58B9202384F8713084F87000EE
:101D000006E0002280212046FFF798FF18B103204B
:101D100002B0BDE8F081A3682268B3F5805F0DD101
:101D200023695BB935F8023BC3F308031385B4F8A4
:101D30005230013B9BB2A4F85230D1E72B78138587
:101D40000135F4E70120E3E70220E1E773B504463B
:101D500000264667FEF72CFC23681B681A07054619
:101D600017D423681B685B070AD56FF07E43009386
:101D700000222B464FF480012046FFF75FFFA0B9F9
:101D80002023002084F8713084F8700084F87230C9
:101D90000CE06FF07E430093324603464FF400118F
:101DA0002046FFF74BFF0028DBD0032002B070BDB8
:101DB00010B5044660B390F8713003F0FF021BB910
:101DC00080F8702001F0A4FC2268242384F871308C
:101DD000136823F0010313602046FFF743FD012839
:101DE00016D0636A13B12046FFF7D4FE23685A6801
:101DF00022F490425A609A6822F02A029A601A6885
:101E000042F0010220461A60BDE81040FFF79EBF75
:101E1000012010BD08B500F0CBFF002008BD30B593
:101E2000B0F90840028A0B4690E8220085B0842C65
:101E300014BF0334002403A801900094284600F046
:101E4000E7FE01280CBF0398002005B030BD08B59F
:101E5000002808BF012001F0F9F8002008BD01208A
:101E600000F0D2BC13B500240194E0B1EFF3058378
:101E7000A3B101AA214600F0EDFD012802D0FF2008
:101E800002B010BD019B3BB1084B4FF080521A606D
:101E9000BFF34F8FBFF36F8F0020F1E700F01AFD03
:101EA0000128ECD1F8E78020EAE700BF04ED00E06C
:101EB00013B500240194EFF3058393B101A900F059
:101EC000B5FC012813D1019B13B9002002B010BD4D
:101ED000084B4FF080521A60BFF34F8FBFF36F8FE4
:101EE000F3E71A46194600F0D9FB0128EDD0FF2090
:101EF000ECE700BF04ED00E0FFF7DABF00F10803F4
:101F000043604FF0FF32C3600361002382600360CF
:101F1000704700230361704743684B609A688A608A
:101F20009A685160996003680861013303607047E3
:101F30000A68531C30B50AD103695A684A60916037
:101F40008B605960036808610133036030BD00F1A4
:101F500008035C682568AA42EFD32346F9E7416885
:101F6000826803698A60826851605968884208BF44
:101F70005A60002202611A68013A1A6018687047B4
:101F800082B0002301930D4B1B68013308D04FF042
:101F9000500383F31188BFF36F8FBFF34F8FFEE7BA
:101FA0004FF0500383F31188BFF36F8FBFF34F8F50
:101FB000019B002BFCD002B0704700BF0000002046
:101FC00008480068006880F308884FF0000080F33C
:101FD000148862B661B6BFF34F8FBFF36F8F00DF17
:101FE00000BF000008ED00E0DFF80C00016841F4DC
:101FF000700101607047000088ED00E04FF08073D1
:1020000040F8043C074B40F80C3C21F001016FF014
:10201000020340F8081C40F8202C40F8243C4438C7
:10202000704700BF811F0008000000000000000092
:10203000074B19680868B0E8F04F80F30988BFF3D0
:102040006F8F4FF0000080F311887047AFF300806E
:10205000B82700204FF0500383F31188BFF36F8F30
:10206000BFF34F8F0A4A13680133012B13600DD160
:10207000084B1B6813F0FF0F08D04FF0500383F399
:102080001188BFF36F8FBFF34F8FFEE7704700BF1C
:102090000000002004ED00E0084A136843B94FF047
:1020A000500383F31188BFF36F8FBFF34F8FFEE7A9
:1020B000013B13600BB983F31188704700000020C7
:1020C000EFF30980BFF36F8F154B1A681EF0100FE6
:1020D00008BF20ED108A20E9F04F10602DE90900BB
:1020E0004FF0500080F31188BFF34F8FBFF36F8F15
:1020F00000F0D0FF4FF0000080F3118809BC196890
:102100000868B0E8F04F1EF0100F08BFB0EC108A5E
:1021100080F30988BFF36F8F704700BFAFF3008073
:10212000B827002008B54FF0500383F31188BFF3A0
:102130006F8FBFF34F8F00F07FFE18B1034B4FF04E
:1021400080521A60002383F3118808BD04ED00E07B
:10215000084A0949002313600B60084B4FF47A7159
:102160001B68B3FBF1F30649013B0B6007231360C7
:10217000704700BF10E000E018E000E0040000201D
:1021800014E000E0394B3A4A13B51968914208D17E
:102190004FF0500383F31188BFF36F8FBFF34F8F5E
:1021A000FEE71A68334B9A4208D14FF0500383F38D
:1021B0001188BFF36F8FBFF34F8FFEE72E4B1A7856
:1021C000D2B20192FF221A701B782C4ADBB28DF832
:1021D00003309DF8033003F050031370284B07229F
:1021E0001A6000219DF80300000602F1FF340DD4AF
:1021F00001B11A601A68032A11D04FF0500383F31B
:102200001188BFF36F8FBFF34F8FFEE79DF8032058
:102210005200D2B28DF8032001212246E2E71202D9
:1022200002F4E0621A60019B134ADBB21370154B93
:102230001A6842F470021A601A6842F070421A601A
:10224000FFF786FF104B00241C60FFF7CDFE0F4AFE
:10225000136843F040431360FFF7B2FE00F01AFF2B
:10226000FFF78EFE204602B010BD00BF00ED00E07B
:1022700071C20F4170C20F4100E400E088000020ED
:102280008C00002020ED00E00000002034EF00E092
:10229000EFF305830F2B0ED9104A9B5C104A12787E
:1022A0009A4208D94FF0500383F31188BFF36F8F20
:1022B000BFF34F8FFEE70B4B0B4A1B68126803F40A
:1022C000E063934208D94FF0500383F31188BFF3C2
:1022D0006F8FBFF34F8FFEE7704700BFF0E300E062
:1022E000880000200CED00E08C00002010B50F4BA2
:1022F0001A68824218D35C681919884201BF416884
:10230000184609195960446801198A4207D10849D9
:1023100009688A421FBF51681268091941609842D2
:10232000026018BF186010BD1346E1E7B027002017
:10233000900000202DE9F041044600F075FD3D4974
:102340003D4D0B68FBB93D4A56071CBF07323C4B5D
:102350003C4E1ABF22F007029B1A42F2107313443C
:10236000083B23F00703002070603260586018605B
:102370000B60981A1360344B50601860334B186030
:102380004FF000432B602F68274216D1002C41D01C
:1023900004F1080358071CBF23F00703083363B197
:1023A0002A4A1668B342904607D8264A15686868D4
:1023B000834204D809688D4207D100242AE02C68A2
:1023C000002CF7D02A462546F1E7296814681160E9
:1023D000C21A102A0FD9E818410708D04FF050034D
:1023E00083F31188BFF36F8FBFF34F8FFEE7426017
:1023F0006B60FFF77BFF14496B680868F61A1F4390
:1024000086424FF00003C8F8006038BF0E60083401
:102410006F602B6000F0A2FD630708D04FF05003FF
:1024200083F31188BFF36F8FBFF34F8FFEE7204612
:10243000BDE8F08190000020A42700209400002037
:10244000A4270020B0270020AC270020A8270020C8
:1024500010B5044670B3184A50F8043C1268134291
:1024600008D14FF0500383F31188BFF36F8FBFF390
:102470004F8FFEE750F8081C41B14FF0500383F333
:102480001188BFF36F8FBFF34F8FFEE723EA02037C
:1024900040F8043C00F0C8FC084A54F8043C1168B9
:1024A000A4F108000B441360FFF720FFBDE81040C3
:1024B00000F054BD10BD00BFA4270020A8270020B5
:1024C00010B50446FFF7C6FDA46BFFF7E5FDB4FAAF
:1024D00084F0400910BD70B51546026C866B044649
:1024E00042B905689DB9406800F01CFF656001367F
:1024F000A66370BD6DB9806801F0FAF9A368226C1B
:1025000013446268A360934201D32368A360002050
:10251000EDE7C06801F0ECF9236CE26821685B42EA
:102520001A448A42E2603EBF62689B18E360022D53
:10253000EDD10EB1013EEAE73046D8E7034610B4CC
:102540001A6C084662B1D9685C681144A142D9602E
:1025500024BF1968D960D9685DF8044B01F0C8B987
:102560005DF8044B704770B50446FFF773FD94F8AF
:10257000455004F124066DB2002D14DCFF2384F8CD
:102580004530FFF789FDFFF765FD94F8445004F1ED
:1025900010066DB2002D12DCFF2384F84430BDE834
:1025A0007040FFF779BD636A002BE7D0304600F03A
:1025B000C5FD08B100F04CFE013D6DB2DCE72369BA
:1025C000002BE9D0304600F0B9FD08B100F040FE24
:1025D000013D6DB2DEE7000038B50D46044640B956
:1025E0004FF0500383F31188BFF36F8FBFF34F8F0A
:1025F000FEE7FFF72FFD206CE36B2268A2604343E8
:10260000D1181B1A13446160E3600021FF23A1630A
:1026100084F8443084F8453095B9236963B104F1F6
:10262000100000F08BFD38B10A4B4FF080521A6059
:10263000BFF34F8FBFF36F8FFFF72EFD012038BD23
:1026400004F11000FFF75AFC04F12400FFF756FCD8
:10265000F2E700BF04ED00E070B50D46064640B954
:102660004FF0500383F31188BFF36F8FBFF34F8F89
:10267000FEE748434830FFF75DFE044638B145B9F0
:102680002060E663256401212046FFF7A5FF204670
:1026900070BD00F148030360F3E700002DE9FF4738
:1026A000894601921F46044640B94FF0500383F318
:1026B0001188BFF36F8FBFF34F8FFEE7002940F003
:1026C0008880036C002B00F084804FF0500383F36C
:1026D0001188BFF36F8FBFF34F8FFEE7019E002E6F
:1026E00000F082804FF0500383F31188BFF36F8FA7
:1026F000BFF34F8FFEE7019D1DB9FFF7CDFC002012
:1027000058E016B902A800F05BFDFFF7C5FC00F029
:102710008BFBFFF79FFC94F84430FF2B08BF84F835
:10272000448094F84530FF2B08BF84F84580FFF7BC
:10273000B3FC01A902A800F04FFD002843D1FFF728
:1027400089FCA66BE56BFFF7A7FCAE4235D101997A
:1027500004F1100000F0D8FC2046FFF704FF00F061
:10276000FDFB38B94FF08053CAF80030BFF34F8FEC
:10277000BFF36F8F0126FFF76DFCA26BE36B9A42EC
:1027800001D3022FB7D13A4649462046FFF7A3FEB0
:10279000636A1BB104F1240000F0D0FC38B1194B7E
:1027A0004FF080521A60BFF34F8FBFF36F8FFFF768
:1027B00073FC012004B0BDE8F0872046FFF7D3FE8C
:1027C00000F0CCFBD6E72046FFF7CDFE00F0C6FBBD
:1027D00095E7022F02D1E36B012B0AD100F03EFDF9
:1027E00000283FF47BAF00264FF00008DFF814A06C
:1027F000C1E74FF0500383F31188BFF36F8FBFF32E
:102800004F8FFEE704ED00E010B5024600210120E5
:10281000FFF722FF044638B1002343600360C36022
:102820001A461946FFF73AFF204610BD70B50D460F
:10283000044640B94FF0500383F31188BFF36F8F04
:10284000BFF34F8FFEE7036C43B14FF0500383F3A8
:102850001188BFF36F8FBFF34F8FFEE703680BB98B
:10286000436873BBFFF714FDEFF311864FF050037D
:1028700083F31188BFF36F8FBFF34F8FA26BE36BAE
:102880009A4201D3002014E094F8453001325BB243
:10289000A2635A1C10D1636A0BB9012009E004F14C
:1028A000240000F04BFC0028F7D0002DF5D00120CB
:1028B000286086F3118870BD01335BB284F845301F
:1028C000EBE74FF0500383F31188BFF36F8FBFF333
:1028D0004F8FFEE72DE9FF410446019140B94FF0CB
:1028E000500383F31188BFF36F8FBFF34F8FFEE761
:1028F000056C45B14FF0500383F31188BFF36F8F20
:10290000BFF34F8FFEE700F0A9FC18B9019D002D21
:1029100040F09580DFF838812E460027FFF79AFBBC
:10292000A36BE3B1013BA363236813B900F0A4FDDB
:102930006060236963B104F1100000F0FFFB38B15F
:10294000434B4FF080521A60BFF34F8FBFF36F8F2E
:10295000FFF7A2FB0125284604B0BDE8F081019BEA
:1029600063B945B14FF0500383F31188BFF36F8F04
:10297000BFF34F8FFEE7FFF78FFBECE716B902A816
:1029800000F01EFCFFF788FB00F04EFAFFF762FB39
:1029900094F84430FF2B08BF84F8447094F8453015
:1029A000FF2B08BF84F84570FFF776FB01A902A84A
:1029B00000F012FC40BB2046FFF782FDF0B1236817
:1029C0003BB9FFF747FB606800F058FC0546FFF78E
:1029D00063FB019904F1240000F096FB2046FFF709
:1029E000C2FD00F0BBFA38B94FF08053C8F8003090
:1029F000BFF34F8FBFF36F8F01268FE72046FFF79E
:102A0000B2FD00F0ABFAF7E72046FFF7ACFD00F0AF
:102A1000A5FA2046FFF754FD0028EDD0002D9AD0EE
:102A2000FFF718FB616A19B1236B1968C1F107013F
:102A3000606800F0C7FC0025FFF72EFB8BE74FF026
:102A4000500383F31188BFF36F8FBFF34F8FFEE7FF
:102A500004ED00E02DE9F84389469046054640B96B
:102A60004FF0500383F31188BFF36F8FBFF34F8F85
:102A7000FEE771BB036C63B34FF0500383F311881F
:102A8000BFF36F8FBFF34F8FFEE795F84460494661
:102A900076B22846FFF752FD013C731CAC6313D19C
:102AA0002B690BB901200BE005F1100000F046FB8B
:102AB0000028F7D0B8F1000FF4D00120C8F80000CA
:102AC00087F31188BDE8F883013676B285F8446053
:102AD000E8E7FFF7DDFBEFF311874FF0500383F3D7
:102AE0001188BFF36F8FBFF34F8FAC6B002CCCD12D
:102AF0002046E5E7064A13681968064B19B94FF0F6
:102B0000FF321A6070471268D268D2685268F8E7DC
:102B1000BC27002094280020F8B51B4B1B4E1D68D5
:102B20000446306804300F46FFF719FA334640B9BF
:102B30003168174EC96A32680120884022EA0002D3
:102B40003260621C07D137B1196812480431BDE800
:102B5000F840FFF7E1B92C441A68A542546007D940
:102B60000D4A10681968BDE8F8400431FFF7E0B974
:102B70000A4A106819680431FFF7DAF9084B1A6835
:102B8000944238BF1C60F8BDDC280020B827002024
:102B900064280020B4280020C0270020BC27002083
:102BA0009428002080B5DFF86480144F144C154E33
:102BB000236863B9144B1B68012BF8D94FF080537D
:102BC000C8F80030BFF34F8FBFF36F8FEEE7FFF70A
:102BD00041FAFB68DD68281DFFF7C1F93368013B46
:102BE00033602368013B2360FFF756FA286BFFF739
:102BF0002FFC2846FFF72CFCDAE700BFC82800208E
:102C00005428002050280020C427002004ED00E0B4
:102C10002DE9F84F4FEA820A804650460F46994602
:102C20000B9EFFF787FB0546002800F09680542096
:102C3000FFF780FB0446002800F08C80AAF1040A0C
:102C4000056355447B1E25F0070A00F134020F3757
:102C5000597802F8011B13F8011F09B1BB42F7D1E3
:102C60000A9D062D28BF06254FF0000B271DE562A3
:102C70006564384684F843B0C4F848B0FFF749F9B2
:102C8000C5F1070504F11800FFF743F9C4F84CB08B
:102C90002461A561646284F850B04A4641465046BA
:102CA000FFF7ACF9206006B13460FFF7D3F9324B7F
:102CB000324E1A68DFF8F08001321A603568002D54
:102CC0004ED134601B68012B1DD108EB0500143573
:102CD000FFF714F98C2DF8D1DFF8D090284D484635
:102CE000FFF70CF92846FFF709F92648FFF706F920
:102CF0002548FFF703F92548FFF700F9244BC3F8EF
:102D00000090244B1D60244A24491368086801334D
:102D10001360E26A012505FA02F3034314200B60F5
:102D200000FB02803946FFF7F7F8FFF7B5F91C4BB7
:102D30001B6863B13368DA6AE36A9A4207D2194BB7
:102D40004FF080521A60BFF34F8FBFF36F8F28464A
:102D5000BDE8F88F2846FFF77BFB4FF0FF35F6E71D
:102D60000F4B1B68002BCED13368DA6AE36A9A42B4
:102D700098BF3460C7E700BF50280020B827002064
:102D80007C2800209C280020C8280020B42800208F
:102D9000BC270020C02700206028002064280020D5
:102DA000B028002004ED00E0C4270020682800209F
:102DB00013B5174B01930024009423468022154934
:102DC0001548FFF725FF012814D14FF0500383F376
:102DD0001188BFF36F8FBFF34F8F104B4FF0FF324F
:102DE0001A600F4B18600F4B1C6002B0BDE810401A
:102DF000FFF7C8B9013008D14FF0500383F31188B1
:102E0000BFF36F8FBFF34F8FFEE702B010BD00BF5F
:102E100090280020C5470008A52B00089428002012
:102E2000B0280020DC280020024A13680133136018
:102E3000704700BF5C2800202DE9F84F3C4B1B6811
:102E4000002B53D13B4B1C6801341C60BCB93A4B7E
:102E50001A68126842B14FF0500383F31188BFF330
:102E60006F8FBFF34F8FFEE7344A19681068186000
:102E70001160334A136801331360FFF73BFE314D95
:102E8000314F2B689C424FF0000B3ED3DFF8A880F7
:102E9000DFF8C490D8F80020126872BB4FF0FF3200
:102EA0002A6032E006F1040A5046FFF758F8B16A8A
:102EB00019B106F11800FFF752F8F06AD9F800309E
:102EC000012202FA00F11943204BC9F800104FF01B
:102ED000140E51460EFB0030FFF71EF83868F16AF9
:102EE000C26A914228BF4FF0010BD3E7184A13681A
:102EF000013313604FF0000B11E0D8F80020D268C6
:102F0000D66871688C42CDD229603A680F4BD16A7D
:102F100014224A439A58022A28BF4FF0010B0D4A47
:102F20001268002A18BF4FF0010B5846BDE8F88F11
:102F30005C280020DC280020BC270020C0270020BF
:102F40009828002094280020B8270020C4270020BB
:102F500058280020E0280020642800202DE9F843AC
:102F6000314C236843B94FF0500383F31188BFF30A
:102F70006F8FBFF34F8FFEE7FFF76CF82368013BBD
:102F8000236024682CB10024FFF786F82046BDE8B2
:102F9000F883264B1B68002BF5D0DFF8A890244F50
:102FA000DFF8A480D9F80030E3B90CB1FFF7A2FD37
:102FB000204D2C6844B1204E0127FFF73DFF00B1A2
:102FC0003760013CF9D12C601B4B1B68002BDAD019
:102FD0001A4B4FF080521A60BFF34F8FBFF36F8FC1
:102FE0000124D1E7D9F80C30DC68261D04F1180063
:102FF000FEF7B5FF3046FEF7B2FFE26A39680125F9
:1030000005FA02F314200B4300FB028031463B60BB
:10301000FEF782FF0A4BE26A1B68DB6A9A4224BF12
:10302000054B1D60BEE700BF5C2800205028002033
:103030006428002058280020E028002004ED00E04B
:10304000B82700209C280020C427002008B540B9DC
:103050000E4B4FF080521A60BFF34F8FBFF36F8F4C
:1030600008BD0B4B196841B14FF0500383F3118831
:10307000BFF36F8FBFF34F8FFEE7FFF7D5FEFFF76C
:103080004BFDFFF76BFF0028E2D008BD04ED00E028
:103090005C280020174B1A68174B10B512B101229B
:1030A0001A6010BD1A60154B1B68B3FA83F3DBB2CC
:1030B000C3F11F03142212495A4388188C5844B98B
:1030C0004FF0500383F31188BFF36F8FBFF34F8F1F
:1030D000FEE744680832646844600A44944204BFCE
:1030E00062684260142202FB03135B68DA68054BD6
:1030F000D6E700BF5C280020E028002064280020DC
:10310000C4270020B827002010B50C4640B94FF066
:10311000500383F31188BFF36F8FBFF34F8FFEE728
:10312000054B19681831FEF703FF20460121BDE861
:103130001040FFF7F1BC00BFB827002038B5C368C6
:10314000DC6844B94FF0500383F31188BFF36F8FED
:10315000BFF34F8FFEE704F118052846FEF7FFFE88
:10316000114B1B68E3B9251D2846FEF7F8FE0F49F1
:10317000E26A08680123934003430B600C4B142060
:10318000294600FB0230FEF7C7FE0A4BE26A1B68C5
:10319000DB6A9A4283BF084B01201860002038BDCB
:1031A00029460648EFE700BF5C280020642800207D
:1031B000C4270020B8270020E02800209C280020F9
:1031C000034B1B680360034B1B684360704700BFE1
:1031D00098280020DC28002070B50C46054640B930
:1031E0004FF0500383F31188BFF36F8FBFF34F8FFE
:1031F000FEE741B94FF0500383F31188BFF36F8F9F
:10320000BFF34F8FFEE7FEF725FF0F4B69681A6883
:103210002368581C0ED00D482E680068864201D0E5
:103220008A420ED2521A9A4209D29B1A2360284629
:10323000FFF7C6FF0024FEF72FFF204670BD0023D6
:1032400023600124F7E700BFDC2800209828002035
:10325000014B01221A607047E0280020054B1B68D3
:1032600033B1054B1B68002B0CBF022000207047B8
:1032700001207047B02800205C2800202DE9F04193
:103280000446002841D0244AC36A1168C96A8B42A7
:10329000174631D28269214D002AA1BF3A68D26A0D
:1032A000C2F1070282611426426906FB03539A4267
:1032B0002DD100F104084046FEF751FE184B48B9E5
:1032C000E06A4643AA592AB91A680121814022EAD4
:1032D00001021A603A681968D26AE262012404FAAB
:1032E00002F0084318601420414600FB0250FEF72C
:1032F00013FE0120BDE8F0811368406CDC6AA04237
:103300002CBF00200120BDE8F081BDE8F0813B68C2
:10331000DB6AC362EDE700BFB8270020C4270020A6
:1033200064280020F8B5044608B90020F8BD224BF7
:103330001B68984208D04FF0500383F31188BFF305
:103340006F8FBFF34F8FFEE7836C43B94FF050038D
:1033500083F31188BFF36F8FBFF34F8FFEE7C16A0E
:10336000426C013B91428364DFD0002BDDD1051D0F
:103370002846FEF7F4FD114E114A50B9E76A1421B0
:10338000794373582BB913680120B84023EA00032E
:103390001360636CE362C3F10701A161116801244A
:1033A00004FA03F008431060142000FB0360294670
:1033B000FEF7B2FD2046F8BDB8270020C427002044
:1033C00064280020F8B5044600284DD0826C42B92C
:1033D0004FF0500383F31188BFF36F8FBFF34F8F0C
:1033E000FEE7436C994238BF1946C36A8B423BD013
:1033F000012A39D11D4A1268904208D14FF050037A
:1034000083F31188BFF36F8FBFF34F8FFEE782699D
:10341000174DC162002A4FF014064269A8BFC1F1DE
:10342000070106FB0353A8BF81619A421CD1071D07
:103430003846FEF794FDE26A0E4C40B95643AB594C
:103440002BB923680121914023EA010323602168FD
:10345000012393400B4314202360394600FB0250A4
:10346000BDE8F840FEF758BDF8BD00BFB827002002
:10347000C427002064280020044B1A681AB1196878
:103480008A6C01328A641868704700BFB827002030
:1034900008B5094C094D4FF4FA60FEF7D8FC4FF41B
:1034A0007A712068FEF7DEFC284600F035FA2068C5
:1034B000FEF722FDEFE700BF74290020CA4700088D
:1034C00008B5094C094D4FF4FA60FEF7C0FC4FF403
:1034D0007A712068FEF7C6FC284600F01DFA2068C5
:1034E000FEF70AFDEFE700BF74290020D847000867
:1034F00010B50A231446034892B2FEF7D0FB2046CB
:1035000010BD00BFFC28002010B5B8B04422002137
:1035100005A800F0F8F914220021684600F0F3F93C
:103520008822002116A800F0EEF91023059301234C
:1035300000240B9305A860230D93FDF753FA214651
:103540000F2368468DE81800029403940494FDF755
:103550006FFC022316A816932594FDF749FE4FF43D
:103560000070FDF773F938B010BD000000B591B0E0
:10357000FDF706F8FFF7C8FF142200210BA800F0A2
:10358000C2F9444B4448DA6C42F00102DA64DA6C66
:1035900002F001020292029ADA6C42F00202DA644C
:1035A000DA6C02F002020392039ADA6C42F0100223
:1035B000DA64DA6C02F010020492049ADA6C42F0D7
:1035C0000802DA64DB6C03F008030593002204218F
:1035D000059BFDF721F900224FF480712F4800254B
:1035E000FDF71AF901242E4B0B940BA94FF09040D4
:1035F0000C930D95FDF734F804230BA926480B9383
:103600000C940D950E95FDF72BF84FF480730BA9D4
:1036100022480B930C940D950E95FDF721F805218A
:103620002A460620FCF7DCFF0620FDF70DF81D48B2
:103630001D4A85604FF4E13380E80C000C234361A0
:10364000C56005618561C56105624562FEF7B0FB35
:1036500010A8164C40F83C5DFEF701FC144B1860B6
:103660000FCC06AE0FC654F8043B3360294606A8BB
:10367000FEF7D5FB0F4B18600FCC0BAE0FC62368BF
:10368000336029460BA8FEF7CAFB0B4B1860FEF708
:10369000C1FBFEE700100240000400480010004893
:1036A00000001110FC280020004400408C47000856
:1036B00074290020F4280020F82800200268034B19
:1036C0009A4201D1FCF76CBF704700BF0010004068
:1036D0000E4B07B51A6E42F001021A661A6E02F01E
:1036E00001020092009A9A6D42F080529A659B6D99
:1036F00003F08053019300220F216FF00100019B22
:10370000FCF76EFF03B05DF804FB00BF0010024041
:1037100010B5044688B01422002103A800F0F3F885
:103720002268124B9A421FD103F5E63303A99A6D22
:103730000F4842F400329A659A6D02F40032019209
:10374000019ADA6C42F00802DA64DB6C03F00803D9
:103750000293029B602303930223049303230693A3
:1037600007230793FCF77CFF08B010BD004400401E
:10377000000C004810B5014688B000223620FCF746
:103780002FFF3620FCF760FF144B154C9A6D42F06A
:1037900010029A659B6D03F01003029301A903A820
:1037A000029BFDF7FBFBFDF7D5FB0E4B236040F2C0
:1037B000E733E3600C4BB0FBF3F0013800236060AB
:1037C00020462361A360FEF72FF820B92046FDF7BD
:1037D000F9FE08B010BD0120FBE700BF0010024059
:1037E000782900200010004040420F007047FEE79B
:1037F000FEE7FEE7FEE770470120FDF713B8000083
:103800000148FDF7FBBE00BF782900200F49D1F821
:10381000883043F47003C1F888300D4B1A680020DB
:1038200042F001021A6098601A6822F0A85222F44D
:1038300010221A604FF48052DA601A6822F4802253
:103840001A6098614FF000638B60704700ED00E0F4
:1038500000100240DFF834D0002103E00C4B5B582D
:10386000435004310B480C4B42189A42F6D30B4A92
:1038700002E0002342F8043B094B9A42F9D3FFF7D8
:10388000C5FF00F011F8FFF771FEFEE70080012090
:10389000E4480008000000206C0000206C000020BC
:1038A000BC290020FEE7000070B50D4E0D4CA41B96
:1038B000A4100025A54209D10B4E0C4C00F05AFF74
:1038C000A41BA4100025A54205D170BD56F82530D3
:1038D00098470135EEE756F8253098470135F2E76D
:1038E000DC480008DC480008DC480008E048000824
:1038F00010B5431E0A44914200D110BD11F8014B8E
:1039000003F8014FF7E702440346934200D17047A2
:1039100003F8011BF9E700000FB40A4B13B51C684C
:1039200024B1A36913B9204600F04EF805AB049A00
:10393000A1680193204600F059F902B0BDE810409B
:1039400004B0704708000020014900F0A9B800BF8A
:10395000C1440008002310B504460360436083603F
:1039600081814366C28103614361836119460822F4
:103970005C30FFF7C8FF054B6362054BA362054B44
:10398000E362054B2462236310BD00BF654100085C
:1039900087410008BF410008E341000870B54A1E96
:1039A000682555430E4605F1740100F097F804466A
:1039B00040B1002180E842000C30A06005F16802AF
:1039C000FFF7A1FF204670BD836910B5044633BBE5
:1039D0008364C3640365124B124A1B688262984277
:1039E00004BF0123836100F01FF86060204600F0EF
:1039F0001BF8A060204600F017F80022E0600421C8
:103A00006068FFF7A7FF01220921A068FFF7A2FF66
:103A100002221221E068FFF79DFF0123A36110BD80
:103A20009C48000849390008F8B51C4B1E68B3696A
:103A3000074613B93046FFF7C7FF4836B4687368C6
:103A4000013B03D5336833B13668F7E7B4F90C505E
:103A50006DB16834F4E704213846FFF79FFF30600A
:103A60000028F1D10C233B6004462046F8BD4FF6F8
:103A7000FF73E3810123A38165662560A56065600E
:103A800025616561A5610822294604F15C00FFF704
:103A90003AFF6563A563A564E564E6E79C48000812
:103AA0002DE9F8438046894600F14804002614B900
:103AB0003046BDE8F883A5686768013F01D52468F2
:103AC000F5E7AB89012B07D9B5F90E30013303D0E7
:103AD00029464046C84706436835EEE770B5CD1C19
:103AE00025F0030508350C2D38BF0C25002D0646A2
:103AF00001DBA94203D90C233360002070BD00F024
:103B00007FFD234A1468214691B9224C23681BB9D2
:103B1000304600F017FB20602946304600F012FBCB
:103B2000431C26D10C233360304600F06AFDE4E7E5
:103B30000B685B1B1AD40B2B0FD90B60CD50CC1824
:103B4000304600F05EFD04F10B00231D20F007005D
:103B5000C31A1BD05A42E25070BD8C420DBF63683D
:103B60004B686360136018BF0C46E9E70C46496870
:103B7000CAE7C41C24F00304A04205D0211A304631
:103B800000F0E0FA0130CDD02560D9E770BD00BF6C
:103B9000E4280020E82800209368013B002B10B4A3
:103BA000936009DA9469A34202DBCBB20A2B03D1FA
:103BB0005DF8044B00F01ABB1368581C10601970B4
:103BC000C8B25DF8044B7047F8B506460F46144678
:103BD000D518AC4201D1002007E03A4614F8011B89
:103BE0003046FFF7D9FF431CF3D1F8BD2DE9F04F64
:103BF0009DB00C4617460393064618B183690BB96E
:103C0000FFF7E2FE7C4B9C4257D17468A3891807EA
:103C10005DD52369002B5AD00023099320238DF80A
:103C2000293030238DF82A304FF0010BB846454635
:103C300015F8013B002B55D1B8EB070A0BD05346C2
:103C40003A4621463046FFF7BFFF013000F0C480FE
:103C5000099B5344099398F80030002B00F0BC8076
:103C600000234FF0FF3204930793059206938DF8DB
:103C700053301A93052229786048FCF7A9FA05F118
:103C80000108049B002831D1D90644BF20228DF8B9
:103C900053201A0744BF2B228DF853202A782A2A52
:103CA0002CD0079A00210A20A846013598F8003048
:103CB000303B092B6DD971B326E0514B9C4201D1A9
:103CC000B468A3E74F4B9C4208BFF4689EE72146C7
:103CD000304600F0EFFA00289ED04FF0FF301DB0C4
:103CE000BDE8F08F252BA7D0A846A0E7434A801A4D
:103CF0000BFA00F0184304904546BBE7039A111DE8
:103D000012680391002A01DB079204E0524243F05B
:103D100002030792049398F800302E2B10D198F8E4
:103D200001302A2B08F1010137D1039B1A1D1B68B2
:103D30000392002BB8BF4FF0FF3308F10208059340
:103D4000314D98F8001003222846FCF741FA40B1A3
:103D50004023401B03FA00F0049B0343049308F143
:103D6000010898F8001029488DF82810062208F15B
:103D70000107FCF72DFA002834D0254B03BB039B29
:103D8000073323F0070308330393099B4B4409933C
:103D90004CE700FB0232012186E700230593184619
:103DA0000A258846013198F80020303A092A03D9BB
:103DB000002BC5D00590C3E705FB00200123F0E7E9
:103DC00003AB00932246134B04A93046AFF30080A7
:103DD000B0F1FF3F8146D8D1A3895B063FF57DAFA7
:103DE00009987CE703AB009322460A4B04A93046AE
:103DF00000F088F8ECE700BF5C480008A048000825
:103E00007C4800083C480008A6480008AA4800086A
:103E100000000000C93B00082DE9F04791461F460D
:103E20008A680B69DDF820809342B8BF1346C9F851
:103E3000003091F8432006460C4612B10133C9F810
:103E400000302368990642BFD9F800300233C9F820
:103E50000030256815F0060507D104F1190AE3685A
:103E6000D9F800209B1A9D4229DB94F84330226840
:103E7000003318BF012392062ED404F143023946C1
:103E80003046C047013021D02368E568D9F80020CA
:103E900003F00603042B08BFAD1AA36822690CBF08
:103EA00025EAE57500259342C4BF9B1AED184FF033
:103EB00000091A344D451BD10020BDE8F0870123CD
:103EC000524639463046C047013003D14FF0FF30EB
:103ED000BDE8F0870135C2E7E1185A1C302081F8AF
:103EE0004300224494F8451082F843100233C4E79B
:103EF0000123224639463046C0470130E6D009F159
:103F00000109D7E72DE9F04317460A7E85B06E2AEE
:103F1000984606460C460C9B01F1430E00F0BC800F
:103F20001AD8632A2ED00AD8002A00F0C880582A4E
:103F300000F08A8004F1420584F842202AE0642AD5
:103F400001D0692AF6D121681A6811F0800F23D0B8
:103F5000111D1960136827E0732A00F0B48008D897
:103F60006F2A2AD0702AE5D10A6842F020020A603E
:103F700003E0752A21D0782ADCD1782284F8452004
:103F80006E4964E01A6801F14205111D1960136859
:103F900084F842300123A3E011F0400F02F1040144
:103FA0001960D7D0B2F90030002B03DA2D225B4222
:103FB00084F8432062490A2217E02068196810F04B
:103FC000800F03D0081D18600B6806E010F0400F4A
:103FD00001F104001860F7D00B8859496F2A14BF0B
:103FE0000A220822002084F843006568A560002D9D
:103FF000C0F29C80206820F004002060002B3FD19C
:10400000002D40F095807546082A0BD12368DA0709
:1040100008D5236962689A42DEBF302305F8013C67
:1040200005F1FF35AEEB05032361CDF800803B467B
:1040300003AA21463046FFF7EFFE013055D14FF07D
:10404000FF3005B0BDE8F08381F845203C49226887
:10405000186812F0800F00F104051D6001D003689C
:1040600002E05506FBD50388D00744BF42F020028A
:1040700022601BB9226822F0200222601022B1E7E0
:104080007546B3FBF2F002FB1033CB5C05F8013D43
:1040900003460028F5D1B7E708681A68496910F0A7
:1040A000800F04D0101D18601368196007E010F02D
:1040B000400F02F1040018601368F6D01980002345
:1040C00023617546B1E71A68111D196015686268A9
:1040D00000212846FCF77CF808B1401B606063684B
:1040E0002361002384F843309FE723692A46394639
:1040F0003046C0470130A2D023689B0707D5002572
:1041000004F11909E368039A9B1A9D4205DBE068F4
:10411000039B9842B8BF184693E701234A463946A5
:104120003046C04701308AD00135EBE7002BA7D1DC
:104130000B7884F8423004F1420565E7C248000874
:10414000B148000838B5064C0023054608462360F0
:1041500000F002FB431C02D1236803B12B6038BD81
:10416000B829002010B50C46B1F90E1000F098FAED
:104170000028ABBF636DA3891B1823F48053ACBF29
:104180006365A38110BD2DE9F0411F468B89DB05D6
:1041900005460C46164605D502230022B1F90E103D
:1041A00000F0B8F9A389B4F90E1023F48053A38169
:1041B00032463B462846BDE8F04100F069B810B5EC
:1041C0000C46B1F90E1000F0A5F9431CA38915BFE8
:1041D000606523F4805343F48053A38118BFA38107
:1041E00010BDB1F90E1000F0D3B80000F8B50E46BE
:1041F0001446054618B183690BB9FFF7E5FB214B5F
:104200009C422AD16C68A369A360A3891A072ED5A2
:10421000236963B323692068C01A6369F6B29842C0
:10422000374604DB2146284600F04AF928BBA3683C
:10423000013BA36023685A1C22601E706369013031
:10424000984204D0A389DB0719D50A2E17D121463D
:10425000284600F035F990B10FE00B4B9C4201D19C
:10426000AC68D0E7094B9C4208BFEC68CBE721461D
:10427000284600F01FF80028CCD04FF0FF37384612
:10428000F8BD00BF5C4800087C4800083C480008B6
:1042900038B5074C054608461146002222601A46EA
:1042A000FFF726F9431C02D1236803B12B6038BD08
:1042B000B8290020324B70B51D6806460C4625B162
:1042C000AB6913B92846FFF77FFB2E4B9C420FD1F9
:1042D0006C68B4F90C309AB215072CD4D00611D4FE
:1042E0000922326043F04003A3814FF0FF3070BDDC
:1042F000254B9C4201D1AC68EBE7244B9C4208BFA4
:10430000EC68E6E7510712D5616B41B104F1440353
:10431000994202D0304600F075F900236363A38907
:1043200023F02403A3810023636023692360A3890E
:1043300043F00803A38123694BB9A38903F42073D5
:10434000B3F5007F03D02146304600F019F9A28969
:1043500012F001030CD00023A36063695B42A361E8
:10436000236953B9B4F90C3013F08000BAD170BD91
:10437000920758BF6369A360F2E70020F7E700BF28
:10438000080000205C4800087C4800083C48000801
:1043900038B5064C002305460846236000F0B4F902
:1043A000431C02D1236803B12B6038BDB82900201B
:1043B0008A892DE9F041054610070C465AD44B680E
:1043C000002B05DC0B6C002B02DC0020BDE8F0812B
:1043D000E66A002EF9D0002312F480522F682B6079
:1043E00033D0606DA3895A0705D56368C01A636B23
:1043F0000BB1236CC01A00230246E66A216A2846E4
:10440000B047431CA38906D129681D294BD82B4AE4
:10441000CA40D60747D500226260D90422692260CB
:1044200004D5421C01D12B6803B96065616B2F6014
:104430000029CAD004F14403994202D0284600F072
:10444000E1F800206063BDE8F081216A012328467D
:10445000B047411CC6D12B68002BC3D01D2B01D007
:10446000162B01D12F60B0E7A38943F04003A3814D
:10447000BDE8F0810F69002FA7D093070E6808BF31
:104480004B690F6018BF0023A6EB07088B60B8F1DB
:10449000000F9ADD43463A46216AA66A2846B0478D
:1044A000002807DCA38943F04003A3814FF0FF30CD
:1044B000BDE8F0810744A8EB0008E8E701004020D0
:1044C00038B50B6905460C46DBB118B183690BB9E9
:1044D000FFF77AFA0C4B9C4209D16C68B4F90C30A6
:1044E0007BB121462846BDE83840FFF761BF074B46
:1044F0009C4201D1AC68F1E7054B9C4208BFEC68D7
:10450000ECE7002038BD00BF5C4800087C4800088C
:104510003C48000838B5074C0546084611460022BD
:1045200022601A4600F008F9431C02D1236803B147
:104530002B6038BDB829002070B50E46B1F90E10B9
:10454000002990B014461D4607DA00232B60B3897A
:104550001A0610D44FF480630EE001AA00F0B2F8FE
:104560000028F2DB029A02F47042A2F500535A428C
:104570005A412A60EEE740230020236010B070BD4E
:104580008B8973B59D0706460C4607D504F1470392
:10459000236023610123636102B070BD01AB6A46F1
:1045A000FFF7CAFF009905463046FFF797FA48B96A
:1045B000B4F90C309A05EFD423F0030343F002035F
:1045C000A381E3E70D4BB362A389206043F080032E
:1045D000A381009B6361019B20615BB1B4F90E1064
:1045E000304600F081F828B1A38923F0030343F09B
:1045F0000103A381A3891D43A581CDE749390008A3
:104600007047704738B50546002945D051F8043C3D
:104610000C1F002BB8BFE418FFF7F2FF1F4A136806
:10462000104633B9636014602846BDE83840FFF790
:10463000E8BFA3420CD921686218934204BF1A68EC
:104640005B68636004BF521822600460ECE71346A5
:104650005A680AB1A242FAD919685818A0420BD177
:1046600020680144581882421960DDD110685268F0
:104670005A6001441960D7E702D90C232B60D3E7B5
:10468000206821188A4204BF11685268626004BF22
:10469000091821605C60C7E738BD00BFE42800202E
:1046A00038B5074C054608461146002222601A46D6
:1046B00000F04AF8431C02D1236803B12B6038BDD7
:1046C000B829002038B5074C002305460846114696
:1046D000236000F021F8431C02D1236803B12B6052
:1046E00038BD00BFB829002038B5064C0023054668
:1046F0000846236000F018F8431C02D1236803B178
:104700002B6038BDB8290020024B58221A604FF0A8
:10471000FF307047B8290020024B58221A604FF032
:10472000FF307047B8290020024B58221A60002041
:10473000704700BFB8290020024B58221A604FF082
:10474000FF307047B8290020024B58221A604FF002
:10475000FF307047B8290020044B1968024609B998
:1047600003491960186802441A607047EC28002059
:10477000BC290020F8B500BFF8BC08BC9E467047B5
:0C478000F8B500BFF8BC08BC9E467047AE
:10478C00EC47000891340008000000000000000015
:10479C0000020000E6470008C134000800000000D9
:1047AC0000000000000200000104020800101010BC
:1047BC0004101010021010100849444C45005461AC
:1047CC00736B31205072696E740A0D005461736BF7
:1047DC0032205072696E740A0D005461736B320092
:1047EC005461736B310000000000000000000102F6
:1047FC00030406070809000000000102030400007E
:10480C00A0860100400D0300801A060000350C0044
:10481C0040420F0080841E0000093D0000127A0007
:10482C000024F40000366E010048E801006CDC0244
:10483C00000000000000000000000000000000006C
:10484C00000000000000000000000000000000005C
:10485C00000000000000000000000000000000004C
:10486C00000000000000000000000000000000003C
:10487C00000000000000000000000000000000002C
:10488C00000000000000000000000000000000001C
:10489C000C000020232D302B2000686C4C0065662A
:1048AC006745464700303132333435363738394175
:1048BC00424344454600303132333435363738398B
:0848CC0061626364656600008F
:0848D400CCB9FF7F01000000D8
:0448DC00B50100081A
:0448E000910100083A
:1048E400AAAAAAAA00093D000C00002000000000AA
:1048F4005C4800087C4800083C48000800000000B0
:1049040000000000000000000000000000000000A3
:104914000000000000000000000000000000000093
:104924000000000000000000000000000000000083
:104934000000000000000000000000000000000073
:0C49440000000000000000000000000067
:040000050800385562
:00000001FF
