:020000040800F2
:10000000008001202D5B0008695A0008775A00081B
:100010007D5A0008835A0008895A00080000000031
:100020000000000000000000000000009134000803
:100030008F5A000800000000D13600083937000848
:100040007D5B00087D5B00087D5B00087D5B000830
:100050007D5B00087D5B00089D5A00087D5B000801
:100060007D5B00087D5B00087D5B00087D5B000810
:100070007D5B00087D5B00087D5B00087D5B000800
:100080007D5B00087D5B00087D5B00087D5B0008F0
:100090007D5B00087D5B00087D5B00087D5B0008E0
:1000A0007D5B00087D5B00087D5B00087D5B0008D0
:1000B0007D5B00087D5B00087D5B00087D5B0008C0
:1000C0007D5B00087D5B00087D5B00087D5B0008B0
:1000D0007D5B00087D5B00087D5B00087D5B0008A0
:1000E0007D5B00087D5B00087D5B00087D5B000890
:1000F0007D5B00087D5B00087D5B00087D5B000880
:100100007D5B00087D5B00087D5B00087D5B00086F
:100110007D5B00087D5B0008AD5A00087D5B000830
:100120007D5B00087D5B00087D5B00087D5B00084F
:100130007D5B00087D5B00087D5B00087D5B00083F
:100140007D5B00087D5B00087D5B00087D5B00082F
:100150007D5B00087D5B00087D5B00087D5B00081F
:100160007D5B00087D5B00087D5B00087D5B00080F
:100170007D5B00087D5B00087D5B000800000000DF
:080180007D5B00087D5B0008B7
:1001900010B5054C237833B9044B13B10448AFF3C1
:1001A00000800123237010BD6C00002000000000BF
:1001B0004C6A000808B5034B1BB103490348AFF371
:1001C000008008BD00000000700000204C6A00089C
:1001D00001F0FF01102A2BDB10F0070F08D010F8F8
:1001E000013B013A8B422DD010F0070F42B3F6D1FC
:1001F000F0B441EA012141EA014122F007047FF015
:1002000000070023F0E80256083C85EA010586EA6B
:10021000010685FA47F5A3FA87F586FA47F6A5FAA7
:1002200087F68EB9EED1F0BC01F0FF0102F00702B3
:1002300032B110F8013B013A83EA010313B1F8D15E
:100240000020704701387047002D06BF354603383F
:10025000073815F0010F07D1013015F4807F02BF78
:10026000013015F4C03F0130F0BC0138704700BFC9
:1002700053B94AB9002908BF00281CBF4FF0FF310D
:100280004FF0FF3000F07AB9ADF1080C6DE904CE03
:1002900000F006F8DDF804E0DDE9022304B0704761
:1002A0002DE9F0478C460D460446089E002B51D19F
:1002B0008A4217466DD9B2FA82FEBEF1000F0BD00A
:1002C000CEF1200C01FA0EF520FA0CFC02FA0EF722
:1002D0004CEA050C00FA0EF44FEA174A250CBCFB59
:1002E000FAF81FFA87F90AFB18CC45EA0C4508FB17
:1002F00009F3AB420AD9ED1908F1FF3280F02381EE
:10030000AB4240F22081A8F102083D44ED1AA4B2AC
:10031000B5FBFAF00AFB105544EA054400FB09F965
:10032000A14509D9E41900F1FF3380F00A81A14504
:1003300040F2078102383C44A4EB090440EA08403B
:100340000021002E61D024FA0EF400233460736083
:10035000BDE8F0878B4207D9002E54D0002186E8F3
:1003600021000846BDE8F087B3FA83F1002940F088
:100370008E80AB4202D3824200F2FA80841A65EB8F
:1003800003050120AC46002E3FD086E81010BDE8E2
:10039000F08712B90127B7FBF2F7B7FA87FEBEF173
:1003A000000F34D1EB1B3A0C1FFA87FC0121B3FB81
:1003B000F2F8250C02FB183345EA03450CFB08F361
:1003C000AB4207D9ED1908F1FF3002D2AB4200F27F
:1003D000D1808046ED1AA3B2B5FBF2F002FB1055B6
:1003E00043EA05440CFB00FCA44507D9E41900F1DD
:1003F000FF3302D2A44500F2B8801846A4EB0C04E7
:1004000040EA08409DE731463046BDE8F087CEF12E
:10041000200405FA0EF307FA0EF720FA04F83A0C56
:1004200025FA04F448EA0308B4FBF2F14FEA184550
:1004300002FB11441FFA87FC45EA044501FB0CF35B
:10044000AB4200FA0EF409D9ED1901F1FF3080F04A
:100450008A80AB4240F2878002393D44EB1A1FFA92
:1004600088F5B3FBF2F002FB103345EA034500FBCD
:100470000CF3AB4207D9ED1900F1FF386FD2AB4254
:100480006DD902383D44EB1A40EA01418FE7C1F1D2
:10049000200722FA07F88B4005FA01F448EA030323
:1004A00020FA07FE4FEA134CFD404EEA040EB5FB5E
:1004B000FCF94FEA1E440CFB19551FFA83F844EA75
:1004C000054509FB08F4AC4202FA01F200FA01FA10
:1004D00008D9ED1809F1FF3043D2AC4241D9A9F156
:1004E00002091D442D1B1FFA8EFEB5FBFCF00CFB10
:1004F00010554EEA054400FB08F8A04507D9E4185A
:1005000000F1FF3529D2A04527D902381C4440EA22
:100510000940A4EB0804A0FB02894C45C6464D46A1
:1005200015D312D056B1BAEB0E0364EB050404FAEE
:1005300007F7CB401F43CC40376074600021BDE813
:10054000F0871846F8E69046E0E6C245EAD2B8EBF6
:10055000020E69EB03050138E4E72846D7E7404679
:1005600091E78146BEE7014678E702383C4445E71B
:10057000084608E7A8F102083D442BE7704700BF92
:1005800080B582B000AF0023FB71032000F0D1F8EA
:10059000002005F013FA0346002B02D00123FB7163
:1005A00001E005F09FF9FB7918460837BD4680BD8C
:1005B00080B400AF044B1B680133034A136000BFD3
:1005C000BD465DF8047B7047F028002080B400AF82
:1005D000034B1B681846BD465DF8047B704700BF9F
:1005E000F028002080B485B000AF78607B6803F00D
:1005F0000703FB600C4BDB68BB60BA684FF6FF0378
:100600001340BB60FB681A02BB68134343F0BF632F
:1006100043F40033BB60044ABB68D36000BF1437A7
:10062000BD465DF8047B704700ED00E080B400AF8C
:10063000044BDB681B0A03F007031846BD465DF850
:10064000047B704700ED00E080B483B000AF034648
:10065000FB71094997F907305B09FA7902F01F022B
:10066000012000FA02F241F8232000BF0C37BD46FA
:100670005DF8047B704700BF00E100E080B483B008
:1006800000AF03463960FB7197F90730002B0BDA96
:100690000D49FB7903F00F03043B3A68D2B2120113
:1006A000D2B20B441A7609E0084997F907303A6844
:1006B000D2B21201D2B20B4483F8002300BF0C3730
:1006C000BD465DF8047B704700ED00E000E100E00E
:1006D00080B489B000AFF860B9607A60FB6803F05D
:1006E0000703FB61FB69C3F10703042B28BF042345
:1006F000BB61FB690433062B02D9FB69033B00E0B5
:1007000000237B610122BB6902FA03F35A1EBB6816
:100710001A407B699A4001217B6901FA03F3591E53
:100720007B680B40134318462437BD465DF8047BB5
:10073000704780B582B000AF78607868FFF752FFED
:1007400000BF0837BD4680BD80B586B000AF034608
:10075000B9607A60FB7300237B61FFF767FF786104
:100760007A68B9687869FFF7B3FF024697F90F30E6
:1007700011461846FFF782FF00BF1837BD4680BDFF
:1007800080B582B000AF0346FB7197F90730184679
:10079000FFF75AFF00BF0837BD4680BD80B487B061
:1007A00000AF7860396000237B617FE13B681A68A5
:1007B00001217B6901FA03F31340FB60FB68002B06
:1007C00000F071813B685B68022B03D03B685B687B
:1007D000122B23D17B69DA087B68083253F8223068
:1007E0003B617B6903F007039B000F2202FA03F3CE
:1007F000DB433A6913403B613B681A697B6903F04C
:1008000007039B0002FA03F33A6913433B617B69D8
:10081000DA087B680832396943F822107B681B6864
:100820003B617B695B00032202FA03F3DB433A6915
:1008300013403B613B685B6803F003027B695B002C
:1008400002FA03F33A6913433B617B683A691A6021
:100850003B685B68012B0BD03B685B68022B07D0C1
:100860003B685B68112B03D03B685B68122B30D16F
:100870007B689B683B617B695B00032202FA03F3A0
:10088000DB433A6913403B613B68DA687B695B0094
:1008900002FA03F33A6913433B617B683A699A6051
:1008A0007B685B683B6101227B6902FA03F3DB43EF
:1008B0003A6913403B613B685B681B0903F0010226
:1008C0007B6902FA03F33A6913433B617B683A6937
:1008D0005A603B685B6803F00303032B18D17B6805
:1008E000DB6A3B6101227B6902FA03F3DB433A696D
:1008F00013403B613B685B68DB0803F001027B69E6
:1009000002FA03F33A6913433B617B683A69DA629E
:100910007B68DB683B617B695B00032202FA03F3BF
:10092000DB433A6913403B613B689A687B695B0033
:1009300002FA03F33A6913433B617B683A69DA6070
:100940003B685B6803F08053002B00F0AC805E4A8C
:100950005D4B1B6E43F0010313665B4B1B6E03F094
:100960000103BB60BB68594A7B699B08023352F89C
:1009700023303B617B6903F003039B000F2202FAE3
:1009800003F3DB433A6913403B617B68B3F1904F5B
:1009900025D07B684E4A93421FD07B684D4A9342D4
:1009A00019D07B684C4A934213D07B684B4A9342E0
:1009B0000DD07B684A4A934207D07B68494A9342EC
:1009C00001D106230CE007230AE0052308E00423F5
:1009D00006E0032304E0022302E0012300E00023F9
:1009E0007A6902F00302920093403A6913433B6133
:1009F00036497B699B0802333A6941F823203A4B18
:100A00001B683B61FB68DB433A6913403B613B6811
:100A10005B6803F48033002B03D03A69FB6813430F
:100A20003B61314A3B6913602F4B5B683B61FB685C
:100A3000DB433A6913403B613B685B6803F4003376
:100A4000002B03D03A69FB6813433B61264A3B699C
:100A50005360254B9B683B61FB68DB433A6913405D
:100A60003B613B685B6803F48013002B03D03A6959
:100A7000FB6813433B611C4A3B6993601A4BDB687C
:100A80003B61FB68DB433A6913403B613B685B6851
:100A900003F40013002B03D03A69FB6813433B6156
:100AA000114A3B69D3607B6901337B613B681A68FB
:100AB0007B6922FA03F3002B7FF478AE00BF1C376A
:100AC000BD465DF8047B7047001002400000014005
:100AD0000004004800080048000C004800100048CE
:100AE00000140048001800480004014080B483B09E
:100AF00000AF78600B467B8013467B707B78002BC1
:100B000003D07A887B689A6102E07A887B689A626F
:100B100000BF0C37BD465DF8047B704780B582B0DE
:100B200000AF0346FB80084B5A69FB881340002B3B
:100B300006D0054AFB885361FB88184600F006F88A
:100B400000BF0837BD4680BD0004014080B483B0BB
:100B500000AF0346FB8000BF0C37BD465DF8047B49
:100B60007047000080B400AF044B1B6803F4C063FF
:100B70001846BD465DF8047B704700BF007000401A
:100B800080B485B000AF78607B68B3F5007F30D16A
:100B9000234B1B6803F4C063B3F5007F38D0204AB1
:100BA0001F4B1B6823F4C06343F4007313601D4B99
:100BB0001B68322202FB03F31B4AA2FB03239B0C9C
:100BC0000133FB6002E0FB68013BFB60144B5B6997
:100BD00003F48063B3F5806F02D1FB68002BF2D180
:100BE0000F4B5B6903F48063B3F5806F10D103236F
:100BF0000FE00B4B1B6803F4C063B3F5806F07D0A5
:100C0000074A074B1B6823F4C06343F480631360F7
:100C1000002318461437BD465DF8047B704700BFBB
:100C2000007000400400002083DE1B4380B588B0C4
:100C300000AF78607B68002B01D1012353E3A34B05
:100C40009B6803F00C03BB61A04BDB6803F003035C
:100C50007B617B681B6803F01003002B00F0DF80D2
:100C6000BB69002B07D0BB690C2B40F086807B69E9
:100C7000012B40F08280954B1B6803F00203002B90
:100C800005D07B689B69002B01D101232BE37B6896
:100C90001A6A8E4B1B6803F00803002B04D08B4BA1
:100CA0001B6803F0F00305E0884BD3F894301B0970
:100CB00003F0F0039A4223D97B681B6A184600F0C0
:100CC000FDFC0346002B01D001230CE37F4A7F4B40
:100CD0001B6843F0080313607C497C4B1B6823F0BE
:100CE000F0027B681B6A13430B607849774B5B68A3
:100CF00023F47F427B68DB691B0213434B6022E0D5
:100D0000724A724B1B6843F0080313606F496F4BC4
:100D10001B6823F0F0027B681B6A13430B606B496E
:100D20006A4B5B6823F47F427B68DB691B021343D9
:100D30004B607B681B6A184600F0C0FC0346002B22
:100D400001D00123CFE200F0B3FB01465F4B9B686B
:100D50001B0903F00F035E4AD35C03F01F0321FA63
:100D600003F35C4A1360002004F028FE0346FB7383
:100D7000FB7B002B52D0FB7BB5E27B689B69002B91
:100D800032D0524A514B1B6843F001031360FFF706
:100D90001DFC386108E0FFF719FC02463B69D31AD5
:100DA000022B01D903239EE2484B1B6803F0020388
:100DB000002BF0D0454A454B1B6843F008031360F5
:100DC0004249424B1B6823F0F0027B681B6A1343C5
:100DD0000B603E493D4B5B6823F47F427B68DB69D7
:100DE0001B0213434B601AE0384A384B1B6823F050
:100DF00001031360FFF7EAFB386108E0FFF7E6FB49
:100E000002463B69D31A022B01D903236BE22F4B15
:100E10001B6803F00203002BF0D100E000BF7B68E9
:100E20001B6803F00103002B72D0BB69082B05D0AF
:100E3000BB690C2B0ED17B69032B0BD1234B1B6899
:100E400003F40033002B62D07B685B68002B5ED11B
:100E5000012348E27B685B68B3F5803F06D11B4AFB
:100E60001A4B1B6843F4803313601DE07B685B689A
:100E7000B3F5A02F0CD1154A144B1B6843F4802303
:100E80001360124A114B1B6843F4803313600BE06C
:100E90000E4A0E4B1B6823F4803313600B4A0B4B36
:100EA0001B6823F4802313607B685B68002B1AD0D7
:100EB000FFF78CFB38610FE0FFF788FB02463B69C8
:100EC000D31A642B08D903230DE200BF001002409F
:100ED000386B000804000020AE4B1B6803F400339D
:100EE000002BE9D014E0FFF771FB386108E0FFF751
:100EF0006DFB02463B69D31A642B01D90323F2E14F
:100F0000A44B1B6803F40033002BF0D100E000BFBA
:100F10007B681B6803F00203002B60D0BB69042BC5
:100F200005D0BB690C2B19D17B69022B16D1994BCB
:100F30001B6803F48063002B05D07B68DB68002B03
:100F400001D10123CFE19349924B5B6823F0F85222
:100F50007B681B691B0613434B6040E07B68DB68C2
:100F6000002B23D08B4A8B4B1B6843F48073136098
:100F7000FFF72CFB386108E0FFF728FB02463B69CE
:100F8000D31A022B01D90323ADE1824B1B6803F472
:100F90008063002BF0D07F497E4B5B6823F0F852D2
:100FA0007B681B691B0613434B6018E0794A794B39
:100FB0001B6823F480731360FFF708FB386108E0B7
:100FC000FFF704FB02463B69D31A022B01D9032326
:100FD00089E1704B1B6803F48063002BF0D17B68C0
:100FE0001B6803F00803002B3CD07B685B69002B77
:100FF0001CD0684A674BD3F8943043F00103C2F821
:101000009430FFF7E3FA386108E0FFF7DFFA0246B1
:101010003B69D31A022B01D9032364E15D4BD3F85A
:10102000943003F00203002BEFD01BE0594A594BD8
:10103000D3F8943023F00103C2F89430FFF7C6FAD6
:10104000386108E0FFF7C2FA02463B69D31A022B67
:1010500001D9032347E14F4BD3F8943003F0020347
:10106000002BEFD17B681B6803F00403002B00F01A
:10107000A5800023FB77474B9B6D03F08053002B2B
:101080000DD1444A434B9B6D43F080539365414BD4
:101090009B6D03F08053BB60BB680123FB773E4B25
:1010A0001B6803F48073002B18D13B4A3A4B1B6832
:1010B00043F480731360FFF789FA386108E0FFF7A3
:1010C00085FA02463B69D31A022B01D903230AE1B0
:1010D000314B1B6803F48073002BF0D07B689B6856
:1010E000012B08D12B4A2B4BD3F8903043F001034E
:1010F000C2F8903024E07B689B68052B10D1254A0C
:10110000244BD3F8903043F00403C2F89030214AC6
:10111000204BD3F8903043F00103C2F890300FE039
:101120001C4A1C4BD3F8903023F00103C2F89030D6
:10113000184A184BD3F8903023F00403C2F89030CB
:101140007B689B68002B16D0FFF740FA38610AE0F5
:10115000FFF73CFA02463B69D31A41F288329342C8
:1011600001D90323BFE00B4BD3F8903003F0020307
:10117000002BEDD019E0FFF729FA38610EE0FFF7F8
:1011800025FA02463B69D31A41F28832934205D9C7
:101190000323A8E00010024000700040544BD3F835
:1011A000903003F00203002BE9D1FB7F012B05D126
:1011B0004F4A4F4B9B6D23F0805393657B689B6A2E
:1011C000002B00F08F80BB690C2B00F089807B68BE
:1011D0009B6A022B56D1464A454B1B6823F080730D
:1011E0001360FFF7F3F9386108E0FFF7EFF9024603
:1011F0003B69D31A022B01D9032374E03C4B1B68D3
:1012000003F00073002BF0D139497B681B6B013B65
:101210001A017B685B6B1B021A437B689B6B1B0983
:101220005B041A437B68DB6A1A437B68DB6B5B08F1
:10123000013B5B051A437B681B6C5B08013B5B064B
:101240001343CB602A4A2A4B1B6843F08073136018
:10125000274A274BDB6843F08073D360FFF7B6F96A
:10126000386108E0FFF7B2F902463B69D31A022B56
:1012700001D9032337E01E4B1B6803F00073002BDA
:10128000F0D02FE01A4A1A4B1B6823F080731360CA
:10129000174B1B6803F02053002B05D1144A144B45
:1012A000DB6823F00303D360114A114BDB6823F0A2
:1012B000887323F48033D360FFF788F9386108E03E
:1012C000FFF784F902463B69D31A022B01D90323A5
:1012D00009E0074B1B6803F00073002BF0D101E01D
:1012E000012300E0002318462037BD4680BD00BF23
:1012F0000010024080B584B000AF786039607B6830
:10130000002B01D10123C6E0654B1B6803F00702E7
:101310003B689A4210D26249614B1B6823F0070276
:101320003B6813430B605E4B1B6803F007023B688E
:101330009A4201D00123AEE07B681B6803F00103F1
:10134000002B4CD07B685B68032B07D1554B1B6887
:1013500003F00073002B21D101239CE07B685B68C4
:10136000022B07D14F4B1B6803F40033002B15D120
:10137000012390E07B685B68002B07D1494B1B6819
:1013800003F00203002B09D1012384E0454B1B68C5
:1013900003F48063002B01D101237CE04149414BE0
:1013A0009B6823F003027B685B6813438B60FFF745
:1013B0000DF9F8600AE0FFF709F90246FB68D31A55
:1013C00041F28832934201D9032364E0354B9B6894
:1013D00003F00C027B685B689B009A42EBD17B6850
:1013E0001B6803F00203002B08D02E492D4B9B688D
:1013F00023F0F0027B689B6813438B60284B1B68CB
:1014000003F007023B689A4210D92549244B1B6818
:1014100023F007023B6813430B60214B1B6803F06A
:1014200007023B689A4201D0012334E07B681B68C5
:1014300003F00403002B08D01A491A4B9B6823F4CD
:10144000E0627B68DB6813438B607B681B6803F09A
:101450000803002B09D01349124B9B6823F46052F8
:101460007B681B69DB0013438B6000F021F80146A9
:101470000C4B9B681B0903F00F030B4AD35C03F072
:101480001F0321FA03F3094A1360002004F096FABF
:101490000346FB72FB7A18461037BD4680BD00BF7D
:1014A0000020024000100240386B000804000020B9
:1014B00080B489B000AF0023FB610023BB61464BC1
:1014C0009B6803F00C033B61434BDB6803F00303B1
:1014D000FB603B69002B05D03B690C2B21D1FB68DD
:1014E000012B1ED13C4B1B6803F00803002B07D1D6
:1014F000394BD3F894301B0A03F00F03FB6105E06E
:10150000354B1B681B0903F00F03FB61334AFB6972
:1015100052F82330FB613B69002B0DD1FB69BB61A5
:101520000AE03B69042B02D12D4BBB6104E03B690F
:10153000082B01D12B4BBB613B690C2B45D1264BB2
:10154000DB6803F00303BB60234BDB681B0903F07C
:10155000070301337B60BB68022B02D0032B0DD045
:1015600019E01F4A7B68B2FBF3F31B4AD268120AE8
:1015700002F07F0202FB03F37B6119E0194A7B68EA
:10158000B2FBF3F3144AD268120A02F07F0202FBA4
:1015900003F37B610CE0FA697B68B2FBF3F30E4A5C
:1015A000D268120A02F07F0202FB03F37B6100BFE4
:1015B000094BDB685B0E03F0030301335B003B6008
:1015C0007A693B68B2FBF3F3BB61BB691846243709
:1015D000BD465DF8047B704700100240506B000868
:1015E0000024F40000127A0080B400AF034B1B68A3
:1015F0001846BD465DF8047B704700BF040000201C
:1016000080B500AFFFF7F0FF0146064B9B681B0A51
:1016100003F00703044AD35C03F01F0321FA03F32A
:10162000184680BD00100240486B000880B500AF2E
:10163000FFF7DAFF0146064B9B68DB0A03F007035E
:10164000044AD35C03F01F0321FA03F3184680BD5C
:1016500000100240486B000880B483B000AF78608F
:1016600039607B680F221A60124B9B6803F00302FB
:101670007B685A600F4B9B6803F0F0027B689A60AE
:101680000C4B9B6803F4E0627B68DA60094B9B6853
:10169000DB0803F4E0627B681A61074B1B6803F008
:1016A00007023B681A6000BF0C37BD465DF8047B3B
:1016B000704700BF001002400020024080B586B095
:1016C00000AF786000233B612A4B9B6D03F0805391
:1016D000002B03D0FFF746FA786114E0254A254B2A
:1016E0009B6D43F080539365224B9B6D03F08053B9
:1016F000FB60FB68FFF736FA78611E4A1D4B9B6D55
:1017000023F0805393657B69B3F5007F0BD17B6831
:10171000802B19D97B68A02B02D902233B6113E0EF
:1017200001233B6110E07B68802B02D903233B61DE
:101730000AE07B68802B02D102233B6104E07B68D6
:10174000702B01D101233B610B490B4B1B6823F02C
:1017500007023B6913430B60074B1B6803F007024A
:101760003B699A4201D0012300E000231846183754
:10177000BD4680BD001002400020024080B586B00A
:1017800000AF78600023FB740023BB747B681B6888
:1017900003F40063002B3FD07B685B6EB3F5800FD2
:1017A0001CD0B3F5800F02D8002B0ED01FE0B3F58C
:1017B000000F03D0B3F5400F1CD018E0854A854BCD
:1017C000DB6843F48033D36015E07B680433002189
:1017D000184600F0B9FA0346FB740CE07B6820332E
:1017E0000021184600F0A0FB0346FB7403E0012330
:1017F000FB7400E000BFFB7C002B0BD17549754BDF
:10180000D3F8883023F440027B685B6E1343C1F841
:10181000883001E0FB7CBB747B681B6803F4805359
:10182000002B3FD07B689B6EB3F1807F1CD0B3F15F
:10183000807F02D8002B0ED01FE0B3F1007F03D0D1
:10184000B3F1407F1CD018E0624A624BDB6843F47E
:101850008033D36015E07B6804330021184600F024
:1018600073FA0346FB740CE07B68203300211846B2
:1018700000F05AFB0346FB7403E00123FB7400E015
:1018800000BFFB7C002B0BD15249524BD3F8883060
:1018900023F040727B689B6E1343C1F8883001E0EF
:1018A000FB7CBB747B681B6803F40033002B00F0E7
:1018B000A08000237B74474B9B6D03F08053002B6B
:1018C00001D1012300E00023002B0DD0414A414B00
:1018D0009B6D43F0805393653E4B9B6D03F08053AB
:1018E000BB60BB6801237B743B4A3B4B1B6843F4E2
:1018F00080731360FEF76AFEF86009E0FEF766FE8B
:101900000246FB68D31A022B02D90323FB7405E0BD
:10191000314B1B6803F48073002BEFD0FB7C002B52
:101920005CD12C4BD3F8903003F440737B617B691E
:10193000002B1FD07B68D3F884207B699A4219D092
:10194000244BD3F8903023F440737B61214A214B20
:10195000D3F8903043F48033C2F890301D4A1D4BC9
:10196000D3F8903023F48033C2F89030194A7B6961
:10197000C2F890307B6903F00103002B16D0FEF70C
:1019800025FEF8600BE0FEF721FE0246FB68D31A45
:1019900041F28832934202D90323FB7406E00D4BD7
:1019A000D3F8903003F00203002BECD0FB7C002B2B
:1019B0000CD10849074BD3F8903023F440727B6870
:1019C000D3F884301343C1F8903009E0FB7CBB743A
:1019D00006E000BF0010024000700040FB7CBB74BA
:1019E0007B7C012B05D19E4A9D4B9B6D23F0805340
:1019F00093657B681B6803F00103002B0AD09849AC
:101A0000974BD3F8883023F003027B689B6B13431A
:101A1000C1F888307B681B6803F00203002B0AD0F2
:101A20008F498F4BD3F8883023F00C027B68DB6B37
:101A30001343C1F888307B681B6803F00403002B54
:101A40000AD08749864BD3F8883023F030027B6870
:101A50001B6C1343C1F888307B681B6803F00803D4
:101A6000002B0AD07E497E4BD3F8883023F0C00289
:101A70007B685B6C1343C1F888307B681B6803F09C
:101A80001003002B0AD07649754BD3F8883023F425
:101A900040727B689B6C1343C1F888307B681B687D
:101AA00003F02003002B0AD06D496D4BD3F888302A
:101AB00023F440627B68DB6C1343C1F888307B6899
:101AC0001B6803F40073002B0AD06549644BD3F8FC
:101AD000883023F440227B68DB6D1343C1F88830E3
:101AE0007B681B6803F48063002B0AD05C495C4B65
:101AF000D3F8883023F440127B681B6E1343C1F87F
:101B000088307B681B6803F04003002B0AD05449DF
:101B1000534BD3F8883023F440527B681B6D13433A
:101B2000C1F888307B681B6803F08003002B0AD063
:101B30004B494B4BD3F8883023F440427B685B6DB4
:101B40001343C1F888307B681B6803F48073002B53
:101B50000AD04349424BD3F8883023F440327B68A3
:101B60009B6D1343C1F888307B681B6803F40053F6
:101B7000002B28D03A493A4BD3F8883023F0406202
:101B80007B68DB6E1343C1F888307B68DB6EB3F192
:101B9000006F06D1324A324BDB6843F48013D360C6
:101BA00011E07B68DB6EB3F1806F0CD17B6804338E
:101BB0000121184600F0C8F80346FB74FB7C002B9B
:101BC00001D0FB7CBB747B681B6803F40023002BF3
:101BD00028D02349224BD3F8883023F040627B6819
:101BE0001B6F1343C1F888307B681B6FB3F1006F24
:101BF00006D11B4A1A4BDB6843F48013D36011E013
:101C00007B681B6FB3F1806F0CD17B6804330121BB
:101C1000184600F099F80346FB74FB7C002B01D0BA
:101C2000FB7CBB747B681B6803F48023002B2BD0E8
:101C30000B490B4BD3F8883023F040627B685B6F15
:101C40001343C1F888307B685B6FB3F1006F09D133
:101C5000034A034BDB6843F48013D36014E000BFF6
:101C6000001002407B685B6FB3F1806F0CD17B6822
:101C700004330121184600F067F80346FB74FB7C2F
:101C8000002B01D0FB7CBB747B681B6803F4804392
:101C9000002B2FD02B492B4BD3F8883023F0405208
:101CA0007B689B6F1343C1F888307B689B6FB3F1EF
:101CB000805F0DD17B6804330221184600F044F8A0
:101CC0000346FB74FB7C002B14D0FB7CBB7411E03F
:101CD0007B689B6FB3F1005F0CD17B6820330221DE
:101CE000184600F021F90346FB74FB7C002B01D061
:101CF000FB7CBB747B681B6803F40043002B0AD099
:101D00001049104BD3F8883023F080427B68DB6F9A
:101D10001343C1F888307B681B6803F48033002BC1
:101D20000BD00849074BD3F8883023F000427B687A
:101D3000D3F880301343C1F88830BB7C184618377D
:101D4000BD4680BD0010024080B584B000AF786011
:101D500039600023FB73734BDB6803F00303002B34
:101D600018D0704BDB6803F003027B681B689A4253
:101D70000DD17B681B68002B09D06A4BDB681B09FF
:101D800003F007035A1C7B685B689A4244D0012326
:101D9000FB7341E07B681B68022B0CD0032B13D034
:101DA000012B20D15F4B1B6803F00203002B1DD1D8
:101DB0000123FB731AE05B4B1B6803F48063002B69
:101DC00016D10123FB7313E0564B1B6803F4003359
:101DD000002B0FD1534B1B6803F48023002B09D138
:101DE0000123FB7306E00123FB7304E000BF02E064
:101DF00000BF00E000BFFB7B002B0DD14948494BE1
:101E0000DB6823F073027B6819687B685B68013BC1
:101E10001B010B431343C360FB7B002B7DD1414A65
:101E2000404B1B6823F080631360FEF7CFFBB86064
:101E300009E0FEF7CBFB0246BB68D31A022B02D99E
:101E40000323FB7305E0374B1B6803F00063002B93
:101E5000EFD1FB7B002B60D13B68002B11D13148C7
:101E6000304B1B6923F41F3323F440737A68926864
:101E700011027A68D268120952040A4313430361BB
:101E800027E03B68012B12D12648264B1B6923F41F
:101E9000C00323F4FE437A68926811027A681269DB
:101EA0005208013A52050A431343036111E01D48E9
:101EB0001C4B1B6923F0C06323F4FE437A689268CD
:101EC00011027A6852695208013A52060A431343D2
:101ED0000361144A134B1B6843F080631360FEF7E1
:101EE00075FBB86009E0FEF771FB0246BB68D31AC8
:101EF000022B02D90323FB7305E00A4B1B6803F096
:101F00000063002BEFD0FB7B002B06D10549054B6E
:101F10001A697B689B6913430B61FB7B184610377A
:101F2000BD4680BD0010024080B584B000AF78602F
:101F300039600023FB73684BDB6803F00303002B5D
:101F400018D0654BDB6803F003027B681B689A427C
:101F50000DD17B681B68002B09D05F4BDB681B0928
:101F600003F007035A1C7B685B689A4244D0012344
:101F7000FB7341E07B681B68022B0CD0032B13D052
:101F8000012B20D1544B1B6803F00203002B1DD101
:101F90000123FB731AE0504B1B6803F48063002B92
:101FA00016D10123FB7313E04B4B1B6803F4003382
:101FB000002B0FD1484B1B6803F48023002B09D161
:101FC0000123FB7306E00123FB7304E000BF02E082
:101FD00000BF00E000BFFB7B002B0DD13E483E4B15
:101FE000DB6823F073027B6819687B685B68013BE0
:101FF0001B010B431343C360FB7B002B67D1364AA5
:10200000354B1B6823F080531360FEF7DFFAB8608E
:1020100009E0FEF7DBFA0246BB68D31A022B02D9AD
:102020000323FB7305E02C4B1B6803F00053002BCC
:10203000EFD1FB7B002B4AD13B68002B11D1264806
:10204000254B5B6923F41F3323F440737A6892684D
:1020500011027A68D268120952040A431343436199
:1020600011E01D481C4B5B6923F0C06323F4FE4361
:102070007A68926811027A6812695208013A520627
:102080000A4313434361144A134B1B6843F08053C4
:102090001360FEF79BFAB86009E0FEF797FA024674
:1020A000BB68D31A022B02D90323FB7305E00A4B4A
:1020B0001B6803F00053002BEFD0FB7B002B06D1F5
:1020C0000549054B5A697B685B6913434B61FB7B90
:1020D00018461037BD4680BD0010024080B582B062
:1020E00000AF78607B68002B01D101231DE07B6885
:1020F00093F83D30DBB2002B06D17B68002283F8D9
:102100003C20786800F015F87B68022283F83D20B7
:102110007B681A687B6804331946104600F088F91A
:102120007B68012283F83D20002318460837BD460E
:1021300080BD80B483B000AF786000BF0C37BD466F
:102140005DF8047B7047000080B483B000AF786016
:102150007B681B687A681268D26842F00102DA6014
:102160007B681B689A680D4B1340062B0FD07B6869
:102170001B689A68094B1340B3F5803F07D07B6812
:102180001B687A681268126842F001021A60002324
:1021900018460C37BD465DF8047B70470700010008
:1021A00080B582B000AF78607B681B681B6903F064
:1021B0000203022B22D17B681B68DB6803F0020359
:1021C000022B1BD17B681B686FF002021A617B68CF
:1021D00001221A777B681B689B6903F00303002BBD
:1021E00003D0786800F005F905E0786800F0F7F8AA
:1021F000786800F008F97B6800221A777B681B6812
:102200001B6903F00403042B22D17B681B68DB6885
:1022100003F00403042B1BD17B681B686FF00402DE
:102220001A617B6802221A777B681B689B6903F43A
:102230004073002B03D0786800F0DBF805E0786885
:1022400000F0CDF8786800F0DEF87B6800221A779D
:102250007B681B681B6903F00803082B22D17B688D
:102260001B68DB6803F00803082B1BD17B681B6825
:102270006FF008021A617B6804221A777B681B687A
:10228000DB6903F00303002B03D0786800F0B1F89A
:1022900005E0786800F0A3F8786800F0B4F87B688F
:1022A00000221A777B681B681B6903F01003102B50
:1022B00022D17B681B68DB6803F01003102B1BD155
:1022C0007B681B686FF010021A617B6808221A771E
:1022D0007B681B68DB6903F44073002B03D07868CC
:1022E00000F087F805E0786800F079F8786800F089
:1022F0008AF87B6800221A777B681B681B6903F0E9
:102300000103012B0ED17B681B68DB6803F001031E
:10231000012B07D17B681B686FF001021A61786896
:1023200003F0C6FA7B681B681B6903F08003802BEF
:102330000ED17B681B68DB6803F08003802B07D11C
:102340007B681B686FF080021A61786800F014F9EE
:102350007B681B681B6903F48073B3F5807F0ED123
:102360007B681B68DB6803F08003802B07D17B68E8
:102370001B686FF480721A61786800F007F97B6857
:102380001B681B6903F04003402B0ED17B681B6860
:10239000DB6803F04003402B07D17B681B686FF0BC
:1023A00040021A61786800F038F87B681B681B6986
:1023B00003F02003202B0ED17B681B68DB6803F041
:1023C0002003202B07D17B681B686FF020021A6165
:1023D000786800F0C7F800BF0837BD4680BD80B4FC
:1023E00083B000AF786000BF0C37BD465DF8047B5A
:1023F000704780B483B000AF786000BF0C37BD4633
:102400005DF8047B704780B483B000AF786000BF94
:102410000C37BD465DF8047B704780B483B000AFD5
:10242000786000BF0C37BD465DF8047B7047000044
:1024300080B485B000AF786039607B681B68FB6052
:102440007B68404A934213D07B68B3F1804F0FD032
:102450007B683D4A93420BD07B683C4A934207D04D
:102460007B683B4A934203D07B683A4A934208D147
:10247000FB6823F07003FB603B685B68FA681343FA
:10248000FB607B682F4A93421FD07B68B3F1804F7B
:102490001BD07B682C4A934217D07B682B4A93420F
:1024A00013D07B682A4A93420FD07B68294A934213
:1024B0000BD07B68284A934207D07B68274A934217
:1024C00003D07B68264A934208D1FB6823F440730B
:1024D000FB603B68DB68FA681343FB60FB6823F032
:1024E00080023B685B691343FB607B68FA681A6093
:1024F0003B689A687B68DA623B681A687B689A6214
:102500007B68104A93420FD07B68124A93420BD0EB
:102510007B68114A934207D07B68104A934203D0EC
:102520007B680F4A934203D13B681A697B681A6340
:102530007B6801225A6100BF1437BD465DF8047BF9
:10254000704700BF002C014000040040000800401C
:10255000000C0040003401400040014000440140B4
:102560000048014080B483B000AF786000BF0C37F2
:10257000BD465DF8047B704780B483B000AF7860DF
:1025800000BF0C37BD465DF8047B704780B483B054
:1025900000AF786000BF0C37BD465DF8047B704724
:1025A00080B582B000AF78607B68002B01D1012339
:1025B00043E07B6893F87130DBB2002B06D17B6877
:1025C000002283F87020786803F0B4F97B68242235
:1025D00083F871207B681B687A681268126822F0A1
:1025E00001021A60786800F0B9F80346012B01D1A6
:1025F000012322E07B685B6A002B02D0786800F040
:10260000EBFB7B681B687A681268526822F4904280
:102610005A607B681B687A681268926822F02A0206
:102620009A607B681B687A681268126842F001023F
:102630001A60786800F072FC034618460837BD46F9
:1026400080BD80B588B002AFF860B9603B601346CA
:10265000FB8000237B61FB6893F87130DBB2202B99
:1026600077D1BB68002B02D0FB88002B01D101235E
:1026700070E0FB6893F87030012B01D1022369E010
:10268000FB68012283F87020FB6800225A67FB6810
:10269000212283F87120FDF799FF7861FB68FA88A1
:1026A000A3F85020FB68FA88A3F8522034E03B6876
:1026B00000937B6900228021F86800F078FC0346D3
:1026C000002B01D0032345E0FB689B68B3F5805FD6
:1026D00011D1FB681B69002B0DD1BB683B61FB6806
:1026E0001B683A691288C2F3080292B21A85BB6865
:1026F0000233BB6007E0FB681A68BB68591CB9600D
:102700001B789BB21385FB68B3F852309BB2013B38
:102710009AB2FB68A3F85220FB68B3F852309BB220
:10272000002BC4D13B6800937B6900224021F868EC
:1027300000F03DFC0346002B01D003230AE0FB68B8
:10274000202283F87120FB68002283F87020002388
:1027500000E0022318461837BD4680BD2DE9B0437E
:1027600088B000AF78600023FB611023FB76002364
:102770007B8100237B610023FB740023FB607B686B
:102780009A687B681B691A437B685B691A437B689C
:10279000DB691343FB617B681A687B681B681968F7
:1027A000AA4B0B40F9690B4313607B681B687A687E
:1027B0001268526822F440517A68D2680A435A601B
:1027C0007B689B69FB617B681B68A14A934204D0CC
:1027D0007B681B6AFA691343FB617B681B687A6834
:1027E0001268926822F43061FA690A439A607B6841
:1027F0001B68984A934221D1974BD3F8883003F055
:102800000303032B16D801A252F823F01D28000859
:1028100029280008232800082F2800080123FB7618
:10282000E4E00223FB76E1E00423FB76DEE008230C
:10283000FB76DBE01023FB7600BFD7E07B681B68EC
:10284000864A934234D1844BD3F8883003F00C038A
:102850000C2B29D801A252F823F000BF91280008C0
:10286000A9280008A9280008A92800089D28000810
:10287000A9280008A9280008A92800089728000806
:10288000A9280008A9280008A9280008A3280008EA
:102890000023FB76AAE00223FB76A7E00423FB7665
:1028A000A4E00823FB76A1E01023FB7600BF9DE0A7
:1028B0007B681B686A4A934220D1674BD3F8883003
:1028C00003F03003102B0FD0102B02D8002B05D0B3
:1028D00010E0202B05D0302B09D00BE00023FB7635
:1028E00084E00223FB7681E00423FB767EE008236C
:1028F000FB767BE01023FB7600BF77E07B681B68EC
:10290000584A934220D1544BD3F8883003F0C00387
:10291000402B0FD0402B02D8002B05D010E0802B8D
:1029200005D0C02B09D00BE00023FB765EE002232C
:10293000FB765BE00423FB7658E00823FB7655E04A
:102940001023FB7600BF51E07B681B68464A934228
:1029500024D1414BD3F8883003F44073B3F5807F22
:1029600012D0B3F5807F02D8002B07D012E0B3F568
:10297000007F06D0B3F5407F09D00BE00023FB7643
:1029800034E00223FB7631E00423FB762EE00823BB
:10299000FB762BE01023FB7600BF27E07B681B68EB
:1029A0002B4A934223D12C4BD3F8883003F4406355
:1029B000B3F5806F12D0B3F5806F02D8002B07D02B
:1029C00012E0B3F5006F06D0B3F5406F09D00BE00D
:1029D0000023FB760AE00223FB7607E00423FB7664
:1029E00004E00823FB7601E01023FB7600BF7B6840
:1029F0001B68174A934240F0EE80FB7E082B37D8C5
:102A000001A252F823F000BF2D2A0008712A000805
:102A1000352A0008712A00083B2A0008712A00089C
:102A2000712A0008712A0008432A0008FEF7E8FD11
:102A3000F86020E00D4BFB601DE0FEF739FDF8600B
:102A400019E04FF40043FB6015E000BFF369FFEFAE
:102A50000080004000380140001002400044004067
:102A600000480040004C0040005000400024F400AA
:102A70000123FB7400BFFB68002B00F09E817B6884
:102A80005A6813465B001A44FB689A4205D87B6873
:102A90005B681A03FB689A4202D20123FB748CE143
:102AA000FB7E082B00F2848001A252F823F000BFC5
:102AB000D52A0008B12B0008152B0008B12B0008FF
:102AC000492B0008B12B0008B12B0008B12B0008DE
:102AD000872B0008FEF794FD03464FF000044FEAF1
:102AE000042949EA13694FEA03287B685B685B089D
:102AF0004FF0000418EB030049EB04017B685B68AE
:102B00004FF000041A462346FDF7B2FB03460C467D
:102B10007B6150E07B685B685B084FF00004AD4967
:102B20004FF0000213EB010844EB0209404649460E
:102B30007B685B684FF000041A462346FDF798FB5C
:102B400003460C467B6136E0FEF7B2FC03461A46AC
:102B50004FF000031D0245EA126514027B685B68B2
:102B60005B081A464FF00003A01845EB03017B6891
:102B70005B684FF000041A462346FDF779FB0346D5
:102B80000C467B6117E07B685B685B084FF00004D4
:102B900013F5000044F100017B685B684FF000040E
:102BA0001A462346FDF764FB03460C467B6102E0B0
:102BB0000123FB7400BF7B69B3F5407F08D37B69B9
:102BC000B3F5801F04D27B681B687A69DA60F4E091
:102BD0000123FB74F1E07B68DB69B3F5004F7ED124
:102BE000FB7E082B5BD801A252F823F0112C0008C1
:102BF0002F2C00084D2C00089F2C0008692C000881
:102C00009F2C00089F2C00089F2C0008872C000890
:102C1000FEF7F6FC03465A007B685B685B081A44C3
:102C20007B685B68B2FBF3F39BB27B613AE0FEF733
:102C3000FDFC03465A007B685B685B081A447B68AE
:102C40005B68B2FBF3F39BB27B612BE07B685B6854
:102C50005B0803F1F47303F590437A685268B3FBA1
:102C6000F2F39BB27B611DE0FEF722FC03465A00A3
:102C70007B685B685B081A447B685B68B2FBF3F3B4
:102C80009BB27B610EE07B685B685B0803F580327A
:102C90007B685B68B2FBF3F39BB27B6102E00123CC
:102CA000FB7400BF7B690F2B16D97B69B3F5803F9E
:102CB00012D27B699BB223F00F037B817B695B0897
:102CC0009BB203F007039AB27B8913437B817B6835
:102CD0001B687A89DA6070E00123FB746DE0FB7E8B
:102CE000082B59D801A252F823F000BF112D00087B
:102CF0002D2D0008492D0008992D0008652D00088C
:102D0000992D0008992D0008992D0008812D0008A3
:102D1000FEF776FC02467B685B685B081A447B68BA
:102D20005B68B2FBF3F39BB27B6138E0FEF77EFC9D
:102D300002467B685B685B081A447B685B68B2FB91
:102D4000F3F39BB27B612AE07B685B685B0803F569
:102D5000740303F510537A685268B3FBF2F39BB225
:102D60007B611CE0FEF7A4FB02467B685B685B08A6
:102D70001A447B685B68B2FBF3F39BB27B610EE0A5
:102D80007B685B685B0803F500427B685B68B2FBAD
:102D9000F3F39BB27B6102E00123FB7400BF7B690C
:102DA0000F2B08D97B69B3F5803F04D27B681B6881
:102DB0007A69DA6001E00123FB747B6800221A66FD
:102DC0007B6800225A66FB7C18462037BD46BDE86A
:102DD000B08300BF000024F480B483B000AF7860FB
:102DE0007B685B6A03F00103002B0AD07B681B68D9
:102DF0007A681268526822F400317A68926A0A434B
:102E00005A607B685B6A03F00203002B0AD07B6880
:102E10001B687A681268526822F480317A68D26A34
:102E20000A435A607B685B6A03F00403002B0AD0F4
:102E30007B681B687A681268526822F480217A687D
:102E4000126B0A435A607B685B6A03F00803002B2D
:102E50000AD07B681B687A681268526822F40041C5
:102E60007A68526B0A435A607B685B6A03F010030E
:102E7000002B0AD07B681B687A681268926822F47B
:102E800080517A68926B0A439A607B685B6A03F0B0
:102E90002003002B0AD07B681B687A68126892684E
:102EA00022F400517A68D26B0A439A607B685B6AAD
:102EB00003F04003002B1AD07B681B687A68126805
:102EC000526822F480117A68126C0A435A607B6857
:102ED0001B6CB3F5801F0AD17B681B687A68126887
:102EE000526822F4C0017A68526C0A435A607B68C7
:102EF0005B6A03F08003002B0AD07B681B687A684A
:102F00001268526822F400217A68926C0A435A606F
:102F100000BF0C37BD465DF8047B704780B586B0B6
:102F200002AF78600023FB607B6800225A67FDF7E0
:102F30004DFBF8607B681B681B6803F00803082BD7
:102F40000ED16FF07E430093FB6800224FF4001116
:102F5000786800F02CF80346002B01D0032322E010
:102F60007B681B681B6803F00403042B0ED16FF011
:102F70007E430093FB6800224FF48001786800F0E4
:102F800016F80346002B01D003230CE07B682022B7
:102F900083F871207B68202283F872207B680022EE
:102FA00083F87020002318461037BD4680BD80B5D9
:102FB00084B000AFF860B9603B601346FB712CE051
:102FC000BB69B3F1FF3F28D0BB69002B07D0FDF7E9
:102FD000FDFA02463B68D21ABB699A421DD9FB68CA
:102FE0001B68FA681268126822F4D0721A60FB68D3
:102FF0001B68FA681268926822F001029A60FB6806
:10300000202283F87120FB68202283F87220FB685D
:10301000002283F8702003230FE0FB681B68DA6945
:10302000BB681A40BB689A420CBF01230023DBB285
:103030001A46FB799A42C3D0002318461037BD4682
:1030400080BD80B485B000AF0346FB800023FB60E9
:10305000B7F90630842B05D0B7F90620FB68134476
:103060000333FB60FB6818461437BD465DF8047BEC
:10307000704780B483B000AFEFF305837B607B685B
:10308000002B14BF01230023DBB218460C37BD46CA
:103090005DF8047B704780B500AF01F02FFC002382
:1030A000184680BDF0B587B002AF786039607B68A4
:1030B0005C687B681D687B681B699EB27B68B3F99E
:1030C00008301846FFF7BDFF024607F10C030193D5
:1030D00000923B6832462946204601F0B2FA034688
:1030E000012B01D0002300E0FB6818461437BD46D1
:1030F000F0BD80B584B000AF78607B68FB60FB6892
:10310000002B01D0FB6800E00123184601F0C2FB50
:10311000002318461037BD4680BD80B584B000AF8F
:10312000786039603B68012B10D103220021012017
:1031300000F0CCFDF860FB68002B05D000230022D6
:103140000021F86800F04CFEFB6806E03B683A6836
:103150001146184600F012FE034618461037BD46C9
:1031600080BD000080B584B000AF78603960002376
:10317000BB607B68002B01D180233AE00023FB6019
:103180003B68B3F1FF3F03D14FF0FF33FB6009E031
:103190003B68002B06D03B68FB60FB68002B01D12D
:1031A0000123FB60FFF765FF0346002B17D007F1F3
:1031B00008031A460021786801F09EF80346012BA7
:1031C00001D0FF2315E0BB68002B11D00B4B4FF053
:1031D00080521A60BFF34F8FBFF36F8F08E0F9681A
:1031E000786800F081FF0346012B01D0FF2300E047
:1031F000002318461037BD4680BD00BF04ED00E037
:1032000080B584B000AF78600023FB600023BB6012
:10321000FFF72FFF0346002B16D007F108031946CE
:10322000786800F0D7FE0346012B01D0FF2317E09A
:10323000BB68002B13D00C4B4FF080521A60BFF3C9
:103240004F8FBFF36F8F0AE00023002200217868C0
:1032500000F0C6FD0346012B01D0FF23FB60FB6895
:1032600018461037BD4680BD04ED00E080B483B041
:1032700000AF78607B6803F108027B685A607B6866
:103280004FF0FF329A607B6803F108027B68DA60D6
:103290007B6803F108027B681A617B6800221A6070
:1032A00000BF0C37BD465DF8047B704780B483B027
:1032B00000AF78607B6800221A6100BF0C37BD4602
:1032C0005DF8047B704780B485B000AF78603960EA
:1032D0007B685B68FB603B68FA685A60FB689A68C9
:1032E0003B689A60FB689B683A685A60FB683A687A
:1032F0009A603B687A681A617B681B685A1C7B6815
:103300001A6000BF1437BD465DF8047B704780B477
:1033100085B000AF786039603B681B68BB60BB68F4
:10332000B3F1FF3F03D17B681B69FB600CE07B6856
:103330000833FB6002E0FB685B68FB60FB685B686E
:103340001A68BB689A42F6D9FB685A683B685A60AB
:103350003B685B683A689A603B68FA689A60FB6809
:103360003A685A603B687A681A617B681B685A1C25
:103370007B681A6000BF1437BD465DF8047B704758
:1033800080B485B000AF78607B681B69FB607B68A8
:103390005B687A6892689A607B689B687A68526812
:1033A0005A60FB685A687B689A4203D17B689A68C6
:1033B000FB685A607B6800221A61FB681B685A1E12
:1033C000FB681A60FB681B6818461437BD465DF839
:1033D000047B704780B485B000AFF860B9607A6054
:1033E000FB68043BFB60FB684FF080721A60FB686F
:1033F000043BFB60BB6823F00102FB681A60FB68BA
:10340000043BFB600C4AFB681A60FB68143BFB60E2
:103410007A68FB681A60FB68043BFB60FB686FF02E
:1034200002021A60FB68203BFB60FB6818461437F9
:10343000BD465DF8047B70473D34000880B485B01C
:1034400000AF00237B60114B1B68B3F1FF3F09D035
:103450004FF0500383F31188BFF36F8FBFF34F8F8B
:10346000FB60FEE74FF0500383F31188BFF36F8FCB
:10347000BFF34F8FBB6000BF7B68002BFCD000BF49
:103480001437BD465DF8047B704700BF0000002084
:10349000074B19680868B0E8F04F80F30988BFF35C
:1034A0006F8F4FF0000080F311887047AFF30080FA
:1034B000B827002000BF00BF08480068006880F3FC
:1034C00008884FF0000080F3148862B661B6BFF33D
:1034D0004F8FBFF36F8F00DF00BF00BF08ED00E02C
:1034E00080B586B000AF444B1B68444A934209D173
:1034F0004FF0500383F31188BFF36F8FBFF34F8FEB
:103500003B61FEE73C4B1B683D4A934209D14FF0BB
:10351000500383F31188BFF36F8FBFF34F8FFB60AE
:10352000FEE7384B7B617B691B78DBB27B607B6994
:10353000FF221A707B691B78DBB2FB70FB78DBB271
:1035400003F05003DAB2304B1A70304B07221A6086
:1035500009E02E4B1B68013B2C4A1360FB78DBB261
:103560005B00DBB2FB70FB78DBB203F08003802BE7
:10357000EFD0264B1B68C3F10703042B09D04FF093
:10358000500383F31188BFF36F8FBFF34F8FBB607E
:10359000FEE71E4B1B681B021C4A13601B4B1B687B
:1035A00003F4E063194A13607B68DAB27B691A702E
:1035B000174A174B1B6843F470031360144A144BEB
:1035C0001B6843F07043136000F0D6F8114B0022E3
:1035D0001A6000F0F5F8104A0F4B1B6843F04043A7
:1035E0001360FFF769FF01F035FBFFF727FF0023AA
:1035F00018461837BD4680BD00ED00E071C20F418E
:1036000070C20F4100E400E0880000208C00002020
:1036100020ED00E00000002034EF00E080B483B033
:1036200000AF4FF0500383F31188BFF36F8FBFF3E8
:103630004F8F7B600E4B1B6801330D4A13600C4BA0
:103640001B68012B0ED10B4B1B68DBB2002B09D082
:103650004FF0500383F31188BFF36F8FBFF34F8F89
:103660003B60FEE700BF0C37BD465DF8047B70474A
:103670000000002004ED00E080B483B000AF114BE7
:103680001B68002B09D14FF0500383F31188BFF35F
:103690006F8FBFF34F8F7B60FEE70A4B1B68013BC8
:1036A000084A1360074B1B68002B04D100233B60C2
:1036B0003B6883F3118800BF0C37BD465DF8047B7F
:1036C000704700BF00000020000000000000000064
:1036D000EFF30980BFF36F8F154B1A681EF0100FC0
:1036E00008BF20ED108A20E9F04F10602DE9090095
:1036F0004FF0500080F31188BFF34F8FBFF36F8FEF
:1037000001F0A8FA4FF0000080F3118809BC196895
:103710000868B0E8F04F1EF0100F08BFB0EC108A38
:1037200080F30988BFF36F8F704700BFAFF300804D
:10373000B827002000BF00BF80B582B000AF4FF0B7
:10374000500383F31188BFF36F8FBFF34F8F7B60FC
:1037500001F0C4F90346002B03D0064B4FF0805212
:103760001A6000233B603B6883F3118800BF083771
:10377000BD4680BD04ED00E080B400AF0B4B0022DD
:103780001A600B4B00221A600A4A0B4B1B680B494C
:10379000A1FB03139B09013B1360044B07221A6032
:1037A00000BFBD465DF8047B704700BF10E000E03D
:1037B00018E000E014E000E004000020D34D6210A7
:1037C000DFF80C00016841F470010160704700BF30
:1037D00088ED00E080B485B000AFEFF30583FB60B7
:1037E000FB680F2B13D9164AFB6813441B78FB7236
:1037F000144B1B78FA7A9A4209D24FF0500383F3A4
:103800001188BFF36F8FBFF34F8F7B60FEE70E4BC6
:103810001B6803F4E0620D4B1B689A4209D94FF014
:10382000500383F31188BFF36F8FBFF34F8F3B605B
:10383000FEE700BF1437BD465DF8047B704700BF4C
:10384000F0E300E0880000200CED00E08C00002098
:1038500080B58AB000AF78600023FB6101F094F876
:10386000574B1B68002B01D100F00CF9554B1A681F
:103870007B681340002B40F08C807B68002B1CD0B1
:1038800008227B6813447B607B6803F00703002BEE
:1038900013D07B6823F0070308337B607B6803F059
:1038A0000703002B09D04FF0500383F31188BFF3B7
:1038B0006F8FBFF34F8F7B61FEE77B68002B68D073
:1038C000414B1B687A689A4263D8404B3B623F4B3E
:1038D0001B687B6204E07B6A3B627B6A1B687B62DD
:1038E0007B6A5A687B689A4203D27B6A1B68002B0A
:1038F000F1D1334B1B687A6A9A424AD03B6A1B6803
:1039000008221344FB617B6A1A683B6A1A607B6A6F
:103910005A687B68D21A08235B009A421ED97A6AD9
:103920007B681344BB61BB6903F00703002B09D01C
:103930004FF0500383F31188BFF36F8FBFF34F8FA6
:103940003B61FEE77B6A5A687B68D21ABB695A60A2
:103950007B6A7A685A60B86900F0F6F81A4B1A6800
:103960007B6A5B68D31A184A1360174B1A68184BA6
:103970001B689A4203D2144B1B68154A13607B6A7A
:103980005A68104B1B681A437B6A5A607B6A002294
:103990001A6001F007F8FB6903F00703002B09D058
:1039A0004FF0500383F31188BFF36F8FBFF34F8F36
:1039B000FB60FEE7FB6918462837BD4680BD00BFA7
:1039C000A8270020B4270020AC270020A027002033
:1039D000B027002080B586B000AF78607B687B613F
:1039E0007B68002B46D008235B427A6913447B61D5
:1039F0007B693B613B695A68204B1B681340002B75
:103A000009D14FF0500383F31188BFF36F8FBFF3D9
:103A10004F8FFB60FEE73B691B68002B09D04FF01E
:103A2000500383F31188BFF36F8FBFF34F8FBB60D9
:103A3000FEE73B695A68114B1B681340002B19D0F5
:103A40003B691B68002B15D13B695A680B4B1B68FF
:103A5000DB431A403B695A6000F096FF3B695A68A5
:103A6000074B1B681344064A1360386900F06CF872
:103A700000F098FF00BF1837BD4680BDB427002076
:103A8000AC27002080B485B000AF42F21073BB6059
:103A9000274BFB60FB6803F00703002B0CD0FB688F
:103AA0000733FB60FB6823F00703FB60BA68FB6821
:103AB000D31A1F4A1344BB60FB687B601D4A7B68B6
:103AC00013601C4B00225A607A68BB681344FB6089
:103AD0000822FB689B1AFB60FB6823F00703FB606E
:103AE000FB68154A1360144B1B6800225A60124B86
:103AF0001B6800221A607B683B603B68FA68D21A38
:103B00003B685A600C4B1A683B681A603B685B68FC
:103B10000A4A13603B685B68094A1360094B4FF01F
:103B200000421A6000BF1437BD465DF8047B704741
:103B300090000020A0270020A8270020B027002008
:103B4000AC270020B427002080B485B000AF786097
:103B5000284BFB6002E0FB681B68FB60FB681A688F
:103B60007B689A42F7D3FB68BB60FB685B68BA6806
:103B70001A447B689A4208D1FB685A687B685B6884
:103B80001A44FB685A60FB687B607B68BB607B689B
:103B90005B68BA681A44FB681B689A4218D1FB68D4
:103BA0001A68154B1B689A420DD07B685A68FB68EF
:103BB0001B685B681A447B685A60FB681B681A685C
:103BC0007B681A6008E00C4B1A687B681A6003E097
:103BD000FB681A687B681A60FA687B689A4202D0B0
:103BE000FB687A681A6000BF1437BD465DF8047B35
:103BF000704700BFA0270020A827002080B584B010
:103C000000AF786039607B68FB60FB68002B09D1EE
:103C10004FF0500383F31188BFF36F8FBFF34F8FC3
:103C2000BB60FEE7FFF7FAFCFB681A68FB68DB6B1A
:103C3000F968096C01FB03F31A44FB685A60FB68DE
:103C400000229A63FB681A68FB689A60FB681A682E
:103C5000FB68DB6B013BF968096C01FB03F31A4459
:103C6000FB68DA60FB68FF2283F84420FB68FF22D0
:103C700083F845203B68002B14D1FB681B69002B9F
:103C80001AD0FB681033184601F062F80346002B87
:103C900012D00D4B4FF080521A60BFF34F8FBFF31D
:103CA0006F8F09E0FB6810331846FFF7DFFAFB68F7
:103CB00024331846FFF7DAFAFFF7DEFC0123184633
:103CC0001037BD4680BD00BF04ED00E080B58AB06E
:103CD00002AFF860B9601346FB71FB68002B09D195
:103CE0004FF0500383F31188BFF36F8FBFF34F8FF3
:103CF0003B61FEE7BB68002B02D10023FB6104E0BF
:103D0000FB68BA6802FB03F3FB61FB6948331846A2
:103D1000FFF79EFDB861BB69002B0BD0BB69483330
:103D20007B61FA79BB69009313467A69B968F868D0
:103D300000F005F8BB6918462037BD4680BD80B548
:103D400084B000AFF860B9607A60FB70BB68002B8C
:103D500003D1BB69BA691A6002E0BB697A681A606C
:103D6000BB69FA68DA63BB69BA681A640121B86989
:103D7000FFF744FF00BF1037BD4680BD80B586B059
:103D800000AF786039607B68002B09D14FF0500399
:103D900083F31188BFF36F8FBFF34F8F3B61FEE753
:103DA0003A687B689A4209D94FF0500383F311882F
:103DB000BFF36F8FBFF34F8FFB60FEE7022200213E
:103DC0007868FFF783FF78617B69002B02D07B69FD
:103DD0003A689A637B6918461837BD4680BD000073
:103DE00080B58EB000AFF860B9607A603B600023A8
:103DF0007B63FB683B633B6B002B09D14FF05003A7
:103E000083F31188BFF36F8FBFF34F8FBB62FEE761
:103E1000BB68002B03D13B6B1B6C002B01D1012332
:103E200000E00023002B09D14FF0500383F31188E9
:103E3000BFF36F8FBFF34F8F7B62FEE73B68022BB0
:103E400003D13B6BDB6B012B01D1012300E000238D
:103E5000002B09D14FF0500383F31188BFF36F8F0C
:103E6000BFF34F8F3B62FEE701F010F90346002BD2
:103E700002D17B68002B01D1012300E00023002B3D
:103E800009D14FF0500383F31188BFF36F8FBFF355
:103E90004F8FFB61FEE7FFF7C1FB3B6B9A6B3B6B00
:103EA000DB6B9A4202D33B68022B29D13A68B9688E
:103EB000386B00F0B6FAF8623B6B5B6A002B10D0EF
:103EC0003B6B2433184600F043FF0346002B13D00E
:103ED0003F4B4FF080521A60BFF34F8FBFF36F8F8D
:103EE0000AE0FB6A002B07D0394B4FF080521A6072
:103EF000BFF34F8FBFF36F8FFFF7BEFB012363E06C
:103F00007B68002B03D1FFF7B7FB00235CE07B6BE2
:103F1000002B06D107F11403184600F07BFF0123A4
:103F20007B63FFF7A9FB00F02FFDFFF777FB3B6BEF
:103F300093F844305BB2B3F1FF3F03D13B6B0022F7
:103F400083F844203B6B93F845305BB2B3F1FF3FFD
:103F500003D13B6B002283F84520FFF78DFB3A1D10
:103F600007F114031146184600F06AFF0346002BC0
:103F700024D1386B00F04DFB0346002B18D03B6B6F
:103F800010337A681146184600F0BEFE386B00F018
:103F9000D8FA00F007FD0346002B7FF47CAF0C4BF2
:103FA0004FF080521A60BFF34F8FBFF36F8F72E7ED
:103FB000386B00F0C6FA00F0F5FC6CE7386B00F0E7
:103FC000C0FA00F0EFFC002318463837BD4680BD2C
:103FD00004ED00E080B58EB000AF786039607B689A
:103FE0003B633B6B002B09D14FF0500383F31188E7
:103FF000BFF36F8FBFF34F8F3B62FEE73B6B1B6CD2
:10400000002B09D04FF0500383F31188BFF36F8F5B
:10401000BFF34F8FFB61FEE73B6B1B68002B03D1A7
:104020003B6B5B68002B01D1012300E00023002BD8
:1040300009D14FF0500383F31188BFF36F8FBFF3A3
:104040004F8FBB61FEE7FFF7C5FBEFF311824FF027
:10405000500383F31188BFF36F8FBFF34F8F7A61E3
:104060003B617B69FB623B6B9B6BBB623B6BDA6BBF
:10407000BB6A9A422BD93B6B93F8453087F82730BF
:10408000BB6A5A1C3B6B9A6397F92730B3F1FF3F29
:1040900012D13B6B5B6A002B16D03B6B2433184666
:1040A00000F056FE0346002B0ED03B68002B0BD0D1
:1040B0003B6801221A6007E097F827300133DBB232
:1040C0005AB23B6B83F8452001237B6301E0002358
:1040D0007B63FB6AFB60FB6883F311887B6B18468C
:1040E0003837BD4680BD000080B58EB000AF786027
:1040F000396000237B637B68FB6200233B63FB6AC0
:10410000002B09D14FF0500383F31188BFF36F8F59
:10411000BFF34F8F3B62FEE7FB6A1B6C002B09D09D
:104120004FF0500383F31188BFF36F8FBFF34F8FAE
:10413000FB61FEE700F0AAFF0346002B02D13B68BB
:10414000002B01D1012300E00023002B09D14FF007
:10415000500383F31188BFF36F8FBFF34F8FBB61A1
:10416000FEE7FFF75BFAFB6A9B6BBB62BB6A002B47
:1041700024D0BB6A5A1EFB6A9A63FB6A1B68002B39
:1041800004D101F049F90246FB6A5A60FB6A1B69D7
:10419000002B0FD0FB6A1033184600F0D9FD034600
:1041A000002B07D0534B4FF080521A60BFF34F8F54
:1041B000BFF36F8FFFF760FA012396E03B68002B97
:1041C00010D13B6B002B09D04FF0500383F31188C3
:1041D000BFF36F8FBFF34F8F7B61FEE7FFF74CFAA2
:1041E000002382E07B6B002B06D107F10C031846FD
:1041F00000F010FE01237B63FFF73EFA00F0C4FBE2
:10420000FFF70CFAFB6A93F844305BB2B3F1FF3F5F
:1042100003D1FB6A002283F84420FB6A93F84530FF
:104220005BB2B3F1FF3F03D1FB6A002283F8452064
:10423000FFF722FA3A4607F10C031146184600F040
:10424000FFFD0346002B32D1F86A00F0CCF903469B
:10425000002B26D0FB6A1B68002B09D1FFF7DEF983
:10426000FB6A5B68184600F02FFF3863FFF704FA1B
:10427000FB6A24333A681146184600F045FDF86A97
:1042800000F05FF900F08EFB0346002B7FF469AF6E
:10429000184B4FF080521A60BFF34F8FBFF36F8FF0
:1042A0005FE7F86A00F04DF900F07CFB59E7F86A27
:1042B00000F047F900F076FBF86A00F094F9034645
:1042C000002B3FF44EAF3B6B002B0DD0FFF7A6F950
:1042D000F86A00F08EF87862FB6A5B68796A1846C3
:1042E00000F0FCFFFFF7C8F9002318463837BD4639
:1042F00080BD00BF04ED00E080B58EB000AFF86077
:10430000B9607A60FB683B633B6B002B09D14FF0CF
:10431000500383F31188BFF36F8FBFF34F8F3B625E
:10432000FEE7BB68002B03D13B6B1B6C002B01D15C
:10433000012300E00023002B09D14FF0500383F349
:104340001188BFF36F8FBFF34F8FFB61FEE7FFF75D
:1043500041FAEFF311824FF0500383F31188BFF35A
:104360006F8FBFF34F8FBA617B61BB69FB623B6BA1
:104370009B6BBB62BB6A002B2FD03B6B93F8443026
:1043800087F82730B968386B00F0B5F8BB6A5A1E59
:104390003B6B9A6397F92730B3F1FF3F12D13B6B28
:1043A0001B69002B16D03B6B1033184600F0D0FC75
:1043B0000346002B0ED07B68002B0BD07B680122BC
:1043C0001A6007E097F827300133DBB25AB23B6B33
:1043D00083F8442001237B6301E000237B63FB6AB5
:1043E0003B613B6983F311887B6B18463837BD46C8
:1043F00080BD80B485B000AF78607B685B6A002BBD
:1044000006D07B681B6B1B68C3F10703FB6001E0F0
:104410000023FB60FB6818461437BD465DF8047B3B
:10442000704780B586B000AFF860B9607A6000234D
:104430007B61FB689B6B3B61FB681B6C002B0DD1A8
:10444000FB681B68002B4DD1FB685B68184600F0C9
:10445000C1FE7861FB6800225A6043E07B68002B54
:1044600019D1FB689868FB681B6C1A46B96801F0A3
:10447000ABFBFB689A68FB681B6C1A44FB689A608C
:10448000FB689A68FB685B689A422BD3FB681A68E2
:10449000FB689A6026E0FB68D868FB681B6C1A46CC
:1044A000B96801F091FBFB68DA68FB681B6C5B4242
:1044B0001A44FB68DA60FB68DA68FB681B689A429A
:1044C00007D2FB685A68FB681B6C5B421A44FB68A6
:1044D000DA607B68022B05D13B69002B02D03B6977
:1044E000013B3B613B695A1CFB689A637B69184638
:1044F0001837BD4680BD80B582B000AF78603960A6
:104500007B681B6C002B18D07B68DA687B681B6C9F
:104510001A447B68DA607B68DA687B685B689A4279
:1045200003D37B681A687B68DA607B68D9687B682C
:104530001B6C1A46386801F047FB00BF0837BD46C0
:1045400080BD80B584B000AF7860FFF767F87B6806
:1045500093F84530FB7311E07B685B6A002B12D047
:104560007B682433184600F0F3FB0346002B01D090
:1045700000F0C6FCFB7B013BDBB2FB7397F90F300D
:10458000002BE9DC00E000BF7B68FF2283F84520B8
:10459000FFF772F8FFF742F87B6893F84430BB737B
:1045A00011E07B681B69002B12D07B681033184622
:1045B00000F0CEFB0346002B01D000F0A1FCBB7B3A
:1045C000013BDBB2BB7397F90E30002BE9DC00E056
:1045D00000BF7B68FF2283F84420FFF74DF800BF3F
:1045E0001037BD4680BD80B584B000AF7860FFF75E
:1045F00015F87B689B6B002B02D10123FB6001E067
:104600000023FB60FFF738F8FB6818461037BD46FB
:1046100080BD80B584B000AF7860FEF7FFFF7B6897
:104620009A6B7B68DB6B9A4202D10123FB6001E04D
:104630000023FB60FFF720F8FB6818461037BD46E3
:1046400080BD80B58CB004AFF860B9603B601346A4
:10465000FB80FB889B001846FFF7FAF878617B69BE
:10466000002B0ED05420FFF7F3F8F861FB69002B04
:1046700003D0FB697A691A6305E07869FFF7AAF944
:1046800001E00023FB61FB69002B13D0FA880023B3
:104690000393FB690293FB6A0193BB6A00933B6837
:1046A000B968F86800F00EF8F86900F089F801239D
:1046B000BB6102E04FF0FF33BB61BB691846203796
:1046C000BD4680BD80B588B000AFF860B9607A6043
:1046D0003B603B6B1A6B7B6803F18043013B9B00A3
:1046E0001344BB61BB6923F00703BB61BB6903F0E3
:1046F0000703002B09D04FF0500383F31188BFF359
:104700006F8FBFF34F8F7B61FEE70023FB6112E0E9
:10471000BA68FB69134419783A6BFB691344343364
:104720000A461A70BA68FB6913441B78002B06D03E
:10473000FB690133FB61FB690F2BE9D900E000BF86
:104740003B6B002283F84320BB6A062B01D906236A
:10475000BB623B6BBA6ADA623B6BBA6A5A643B6B08
:1047600000229A643B6B04331846FEF79FFD3B6BB7
:1047700018331846FEF79AFD3B6B3A6B1A61BB6A19
:10478000C3F107023B6B9A613B6B3A6B5A623B6B1E
:104790000022DA643B6B002283F850203A68F96803
:1047A000B869FEF717FE02463B6B1A60FB6A002BE6
:1047B00002D0FB6A3A6B1A6000BF2037BD4680BD4D
:1047C00080B582B000AF7860FEF728FF2A4B1B68E7
:1047D0000133294A1360294B1B68002B09D1274A52
:1047E0007B681360244B1B68012B10D100F0ACFBDD
:1047F0000DE0234B1B68002B09D1204B1B68DA6AA4
:104800007B68DB6A9A4202D81C4A7B6813601D4BA6
:104810001B6801331B4A13607B68DB6A01229A40E4
:10482000194B1B681343184A13607B68DA6A1346F6
:104830009B0013449B00154A1A447B6804331946B5
:104840001046FEF740FDFEF717FF0D4B1B68002BCF
:104850000ED00A4B1B68DA6A7B68DB6A9A4207D281
:104860000B4B4FF080521A60BFF34F8FBFF36F8F27
:1048700000BF0837BD4680BDB8280020B8270020FB
:10488000C4280020D4280020C0280020BC270020F5
:1048900004ED00E080B584B000AF78600023FB60D9
:1048A0007B68002B16D0134B1B68002B09D04FF0F0
:1048B000500383F31188BFF36F8FBFF34F8FBB603B
:1048C000FEE700F061F80021786800F0B9FD00F023
:1048D00069F8F860FB68002B07D1074B4FF0805256
:1048E0001A60BFF34F8FBFF36F8F00BF1037BD4605
:1048F00080BD00BFE028002004ED00E080B586B058
:1049000002AF1B4B0193002300930023802219491F
:104910001948FFF796FEF860FB68012B15D14FF0A0
:10492000500383F31188BFF36F8FBFF34F8FBB60CA
:10493000124B4FF0FF321A60114B01221A60114BDB
:1049400000221A60FEF7CCFD0DE0FB68B3F1FF3FDB
:1049500009D14FF0500383F31188BFF36F8FBFF37A
:104960004F8F7B60FEE700BF1037BD4680BD00BFA4
:10497000DC280020646A0008194F0008D8280020AD
:10498000C4280020BC28002080B400AF044B1B6862
:104990000133034A136000BFBD465DF8047B7047D6
:1049A000E028002080B584B000AF0023FB60002326
:1049B000BB60414B1B68002B09D14FF0500383F3C0
:1049C0001188BFF36F8FBFF34F8F3B60FEE7FEF799
:1049D00025FE394B1B68013B374A1360364B1B6879
:1049E000002B61D1354B1B68002B5DD02EE0344B82
:1049F000DB68DB68FB60FB6818331846FEF7C0FC19
:104A0000FB6804331846FEF7BBFCFB68DB6A012237
:104A10009A402C4B1B6813432A4A1360FB68DA6ADE
:104A200013469B0013449B00274A1A44FB68043337
:104A300019461046FEF747FCFB68DA6A234B1B68F1
:104A4000DB6A9A4202D3224B01221A601C4B1B687C
:104A5000002BCCD1FB68002B01D000F0F1FA1D4BEC
:104A60001B687B607B68002B10D000F037F8034692
:104A7000002B02D0164B01221A607B68013B7B6041
:104A80007B68002BF1D1134B00221A60104B1B687E
:104A9000002B09D00123BB600F4B4FF080521A60EE
:104AA000BFF34F8FBFF36F8FFEF7E6FDBB6818466D
:104AB0001037BD4680BD00BFE0280020B828002088
:104AC00078280020C0280020BC270020B82700201C
:104AD000CC280020C828002004ED00E080B586B076
:104AE00000AF00237B61504B1B68002B40F08C8093
:104AF0004E4B1B6801333B614C4A3B6913603B6979
:104B0000002B1FD14A4B1B681B68002B09D04FF0AC
:104B1000500383F31188BFF36F8FBFF34F8F3B6058
:104B2000FEE7434B1B68FB60424B1B68404A136027
:104B3000404AFB681360404B1B6801333E4A1360D8
:104B400000F07EFA3D4B1B683A699A424DD3384BD0
:104B50001B681B68002B01D1012300E00023002B00
:104B600004D0364B4FF0FF321A603EE0304B1B68EA
:104B7000DB68DB68BB60BB685B687B603A697B684D
:104B80009A4203D22D4A7B6813602EE0BB6804333F
:104B90001846FEF7F5FBBB689B6A002B04D0BB6888
:104BA00018331846FEF7ECFBBB68DB6A01229A401B
:104BB000234B1B681343224A1360BB68DA6A13460F
:104BC0009B0013449B001F4A1A44BB6804331946D8
:104BD0001046FEF778FBBB68DA6A1B4B1B68DB6A82
:104BE0009A42B4D301237B61B1E7174B1B68DA6AA1
:104BF000144913469B0013449B000B441B68012B74
:104C000007D901237B6104E0104B1B6801330F4A75
:104C100013600F4B1B68002B01D001237B617B6964
:104C200018461837BD4680BDE0280020BC2800206B
:104C30007028002074280020D0280020D8280020C8
:104C4000C0280020BC270020B8270020C82800204A
:104C5000CC28002080B487B000AF264B1B68002B07
:104C600003D0254B01221A603EE0234B00221A603C
:104C7000224B1B68FB60FB68B3FA83F3FB72FB7A81
:104C8000C3F11F037B611E497A6913469B001344DD
:104C90009B000B441B68002B09D14FF0500383F39A
:104CA0001188BFF36F8FBFF34F8F7B60FEE77A6988
:104CB00013469B0013449B00114A13443B613B691C
:104CC0005B685A683B695A603B695A683B690833BC
:104CD0009A4204D13B695B685A683B695A603B69F8
:104CE0005B68DB68074A136000BF1C37BD465DF890
:104CF000047B7047E0280020CC280020C02800203A
:104D0000BC270020B827002080B584B000AF7860B1
:104D100039607B68002B09D14FF0500383F3118871
:104D2000BFF36F8FBFF34F8FFB60FEE7074B1B682E
:104D3000183319467868FEF7EAFA0121386800F05E
:104D40007FFB00BF1037BD4680BD00BFB8270020E5
:104D500080B586B000AF78607B68DB68DB683B615C
:104D60003B69002B09D14FF0500383F31188BFF347
:104D70006F8FBFF34F8FFB60FEE73B691833184618
:104D8000FEF7FEFA1D4B1B68002B1CD13B69043358
:104D90001846FEF7F5FA3B69DB6A01229A40184B88
:104DA0001B681343164A13603B69DA6A13469B007B
:104DB00013449B00134A1A443B69043319461046B6
:104DC000FEF781FA05E03B69183319460E48FEF7F5
:104DD0007AFA3B69DA6A0D4B1B68DB6A9A4205D99D
:104DE00001237B610A4B01221A6001E000237B61F1
:104DF0007B6918461837BD4680BD00BFE0280020FB
:104E0000C0280020BC27002078280020B8270020D8
:104E1000CC28002080B483B000AF7860064B1A68BD
:104E20007B681A60054B1A687B685A6000BF0C37B4
:104E3000BD465DF8047B7047D0280020BC280020C8
:104E400080B588B000AF786039607B68002B09D1ED
:104E50004FF0500383F31188BFF36F8FBFF34F8F71
:104E60003B61FEE73B68002B09D14FF0500383F311
:104E70001188BFF36F8FBFF34F8FFB60FEE7FEF724
:104E8000CDFB1D4B1B68BB617B685B68BA69D31A9D
:104E90007B613B681B68B3F1FF3F02D10023FB61DC
:104EA00023E07B681A68154B1B689A4207D07B6821
:104EB0005A68BB699A4202D80123FB6115E03B683E
:104EC0001A687B699A420BD93B681A687B69D21AC7
:104ED0003B681A607868FFF79DFF0023FB6104E0E0
:104EE0003B6800221A600123FB61FEF7C5FBFB69EA
:104EF00018462037BD4680BDBC280020D0280020A1
:104F000080B400AF034B01221A6000BFBD465DF8BC
:104F1000047B7047CC28002080B582B000AF786059
:104F200000F052F8064B1B68012BF9D9054B4FF0E6
:104F300080521A60BFF34F8FBFF36F8FF0E700BF4F
:104F4000BC27002004ED00E080B582B000AF002354
:104F50007B600CE07A6813469B0013449B00124A66
:104F600013441846FEF782F97B6801337B607B6847
:104F7000062BEFD90D48FEF779F90D48FEF776F9C3
:104F80000C48FEF773F90C48FEF770F90B48FEF772
:104F90006DF90B4B054A1A600A4B054A1A6000BFAF
:104FA0000837BD4680BD00BFBC2700204828002030
:104FB0005C280020782800208C280020A4280020CD
:104FC000702800207428002080B582B000AF19E05E
:104FD000FEF724FB0F4BDB68DB687B607B680433E8
:104FE0001846FEF7CDF90C4B1B68013B0A4A1360CB
:104FF0000A4B1B68013B094A1360FEF73DFB7868CA
:1050000000F00EF8054B1B68002BE1D100BF0837FC
:10501000BD4680BD8C280020B8280020A028002094
:1050200080B582B000AF78607B681B6B1846FEF7D6
:10503000D1FC7868FEF7CEFC00BF0837BD4680BDC6
:1050400080B483B000AF0F4B1B681B68002B01D1ED
:10505000012300E00023002B04D00B4B4FF0FF3264
:105060001A6008E0074B1B68DB68DB687B607B68C5
:105070005B68054A136000BF0C37BD465DF8047BD2
:10508000704700BF70280020D828002080B483B06B
:1050900000AF0B4B1B68002B02D101237B6008E0A3
:1050A000084B1B68002B02D102237B6001E0002328
:1050B0007B607B6818460C37BD465DF8047B704703
:1050C000C4280020E028002080B584B000AF7860BC
:1050D0007B68BB600023FB607B68002B6ED0BB68E5
:1050E000DA6A394B1B68DB6A9A425ED2BB689B69FD
:1050F000002B06DB344B1B68DB6AC3F10702BB687D
:105100009A61BB685969BB68DA6A13469B0013440D
:105110009B002E4A1344994201D1012300E0002351
:10512000002B3AD0BB6804331846FEF729F9034632
:10513000002B15D1BB68DA6A244913469B0013443F
:105140009B000B441B68002B0AD1BB68DB6A012261
:1051500002FA03F3DA431E4B1B6813401C4A136028
:10516000194B1B68DA6ABB68DA62BB68DB6A01222A
:105170009A40174B1B681343154A1360BB68DA6AE1
:1051800013469B0013449B00104A1A44BB68043327
:1051900019461046FEF797F804E00B4B1B68DA6AD5
:1051A000BB68DA620123FB6008E0BB685A6C064BFF
:1051B0001B68DB6A9A4201D20123FB60FB68184638
:1051C0001037BD4680BD00BFB8270020BC27002097
:1051D000C028002080B586B000AF78607B683B6156
:1051E00000237B617B68002B6CD0394B1B683A69CC
:1051F0009A4209D04FF0500383F31188BFF36F8FA9
:10520000BFF34F8FFB60FEE73B699B6C002B09D11E
:105210004FF0500383F31188BFF36F8FBFF34F8FAD
:10522000BB60FEE73B699B6C5A1E3B699A643B6915
:10523000DA6A3B695B6C9A4244D03B699B6C002BF9
:1052400040D13B6904331846FEF79AF80346002B19
:1052500015D13B69DA6A1F4913469B0013449B0032
:105260000B441B68002B0AD13B69DB6A012202FA5E
:1052700003F3DA43184B1B681340174A13603B696A
:105280005A6C3B69DA623B69DB6AC3F107023B692E
:105290009A613B69DB6A01229A400F4B1B681343FA
:1052A0000D4A13603B69DA6A13469B0013449B0066
:1052B000084A1A443B69043319461046FEF703F8BE
:1052C00001237B617B6918461837BD4680BD00BF4E
:1052D000B8270020BC270020C028002080B588B057
:1052E00000AF786039607B68BB6101237B617B68BC
:1052F000002B00F08680BB699B6C002B09D14FF01E
:10530000500383F31188BFF36F8FBFF34F8FFB60A0
:10531000FEE7BB695A6C3B689A4202D23B68FB616C
:1053200002E0BB695B6CFB61BB69DA6AFB699A42AC
:1053300067D0BB699A6C7B699A4262D1334B1B6818
:10534000BA699A4209D14FF0500383F31188BFF331
:105350006F8FBFF34F8FBB60FEE7BB69DB6A3B61BA
:10536000BB69FA69DA62BB699B69002B04DBFB69E4
:10537000C3F10702BB699A61BB6959693A6913466F
:105380009B0013449B00224A1344994201D10123FC
:1053900000E00023002B34D0BB6904331846FDF72E
:1053A000EFFF0346002B15D1BB69DA6A1849134693
:1053B0009B0013449B000B441B68002B0AD1BB6964
:1053C000DB6A012202FA03F3DA43124B1B68134033
:1053D000104A1360BB69DB6A01229A400D4B1B68BF
:1053E00013430C4A1360BB69DA6A13469B001344EB
:1053F0009B00074A1A44BB69043319461046FDF75F
:1054000062FF00BF2037BD4680BD00BFB827002027
:10541000BC270020C028002080B400AF074B1B68C9
:10542000002B04D0054B1B689A6C01329A64034B25
:105430001B681846BD465DF8047B7047B8270020FE
:1054400080B584B000AF78603960294B1B68FB6081
:10545000284B1B6804331846FDF792FF0346002BC8
:105460000BD1244B1B68DB6A012202FA03F3DA43F7
:10547000214B1B681340204A13607B68B3F1FF3F48
:105480000AD13B68002B07D01A4B1B68043319461E
:105490001A48FDF718FF26E0FA687B681344BB60E2
:1054A000144B1B68BA685A60BA68FB689A4209D202
:1054B000134B1A680F4B1B68043319461046FDF74F
:1054C00026FF10E00F4B1A680A4B1B68043319467D
:1054D0001046FDF71CFF0C4B1B68BA689A4202D2BB
:1054E000094ABB68136000BF1037BD4680BD00BFCE
:1054F000BC280020B8270020C0280020A4280020B5
:105500007428002070280020D828002080B584B09E
:1055100000AFF860B9607A607B689AB20A23B96814
:105520000348FDF78EF87B6818461037BD4680BDEE
:1055300004290020B0B590B000AFFBF721F800F0CF
:1055400057F800F0EBF800F0B9F8214800F050FBF4
:105550000023FB6307F13C0302211846FDF7DDFD44
:1055600002461C4B1A601C4B07F128041D460FCD48
:105570000FC42B68236007F1280300211846FDF7AC
:1055800091FD0246154B1A60154B07F114041D4698
:105590000FCD0FC42B68236007F1140300211846B8
:1055A000FDF780FD02460F4B1A600F4B3C461D462F
:1055B0000FCD0FC42B6823603B4600211846FDF732
:1055C00071FD0246094B1A60FDF765FDFEE700BF5D
:1055D0006C6A0008F82800208C6A0008F428002073
:1055E000A86A000800290020C46A0008FC280020DE
:1055F00080B5B8B000AF07F19C03442200211846E3
:1056000000F0EDFA07F1880300221A605A609A60F0
:10561000DA601A613B4688220021184600F0DFFA62
:105620001023C7F89C300123C7F8B4300023C7F813
:10563000B8306023C7F8BC300023C7F8C43007F186
:105640009C031846FBF7F2FA0346002B01D000F04A
:1056500041F90F23C7F888300023C7F88C300023A6
:10566000C7F890300023C7F894300023C7F898306B
:1056700007F1880300211846FBF73CFE0346002B88
:1056800001D000F027F902233B600023FB633B4677
:105690001846FCF773F80346002B01D000F01AF906
:1056A0004FF40070FBF76CFA0346002B01D000F0BA
:1056B00011F900BFE037BD4680BD000080B500AFE6
:1056C000144B154A1A60134B4FF4E1325A60114BD8
:1056D00000229A600F4B0022DA600E4B00221A6102
:1056E0000C4B0C225A610B4B00229A61094B002291
:1056F000DA61084B00221A62064B00225A62054802
:10570000FCF74EFF0346002B01D000F0E3F800BF8A
:1057100080BD00BF042900200044004080B58AB04D
:1057200000AF07F1140300221A605A609A60DA6031
:105730001A61384A374BDB6C43F00103D364354BB5
:10574000DB6C03F001033B613B69324A314BDB6C9C
:1057500043F00203D3642F4BDB6C03F00203FB60C6
:10576000FB682C4A2B4BDB6C43F01003D364294BB2
:10577000DB6C03F01003BB60BB68264A254BDB6C77
:1057800043F00803D364234BDB6C03F008037B6016
:105790007B68002204212048FBF7A8F900224FF47F
:1057A00080711E48FBF7A2F901237B611C4BBB6192
:1057B0000023FB6107F1140319464FF09040FAF7FC
:1057C000EDFF04237B610123BB610023FB61002308
:1057D0003B6207F1140319460F48FAF7DFFF4FF455
:1057E00080737B610123BB610023FB6100233B626B
:1057F00007F1140319460948FAF7D0FF00220521E2
:105800000620FAF7A1FF0620FAF7BAFF00BF2837F3
:10581000BD4680BD00100240000400480010004852
:105820000000111080B582B000AF78604FF47A703C
:10583000FDF75FFC044800F0DBF9044B1B681846D9
:10584000FDF7DEFCF2E700BFD86A0008F828002068
:1058500080B582B000AF78604FF47A70FDF749FCF4
:10586000044800F0C5F9044B1B681846FDF7C8FC56
:10587000F2E700BFFC6A0008F828002080B582B07B
:1058800000AF7860084B1B684FF47A611846FDF74B
:1058900069FC054B1B684FF47A611846FDF762FC02
:1058A000024800F0A5F9EDE7F8280020206B000879
:1058B00080B582B000AF78607B681B68044A934271
:1058C00001D1FAF775FE00BF0837BD4680BD00BFA5
:1058D0000010004080B400AF00BFBD465DF8047BFF
:1058E0007047000080B582B000AF114A104B1B6EAC
:1058F00043F0010313660E4B1B6E03F001037B6044
:105900007B680B4A0A4B9B6D43F080539365084BB1
:105910009B6D03F080533B603B6800220F216FF0CA
:105920000100FAF711FF00BF0837BD4680BD00BF78
:105930000010024080B58AB000AF786007F1140310
:1059400000221A605A609A60DA601A617B681B68EC
:10595000174A934227D1174A164B9B6D43F40033E5
:105960009365144B9B6D03F400333B613B69114A13
:10597000104BDB6C43F00803D3640E4BDB6C03F07D
:105980000803FB60FB6860237B610223BB6100238B
:10599000FB6103233B6207237B6207F11403194673
:1059A0000548FAF7FBFE00BF2837BD4680BD00BFA3
:1059B0000044004000100240000C004880B58CB04C
:1059C00000AF78600023FB620023BB62002279688D
:1059D0003620FAF7B9FE3620FAF7D2FE1E4A1E4BE1
:1059E0009B6D43F0100393651B4B9B6D03F01003FD
:1059F000FB60FB6807F1100207F11403114618461B
:105A0000FBF72AFEFBF7FCFDF862FB6A134AA2FBD8
:105A100003239B0C013BBB62114B124A1A60104BD3
:105A200040F2E732DA600E4ABB6A53600C4B002248
:105A30001A610B4B00229A600948FCF74FFB0346A2
:105A4000002B04D10648FCF77FFB034600E001234E
:105A500018463037BD4680BD0010024083DE1B4330
:105A60007C2900200010004080B400AF00BFBD467C
:105A70005DF8047B704780B400AFFEE780B400AFF0
:105A8000FEE780B400AFFEE780B400AFFEE780B46D
:105A900000AF00BFBD465DF8047B704780B500AF26
:105AA0000120FBF73BF800BF80BD000080B500AFD0
:105AB0000248FCF775FB00BF80BD00BF7C290020B9
:105AC00080B400AF174A174BD3F8883043F4700303
:105AD000C2F88830144A144B1B6843F0010313606A
