:020000040800F2
:1000000000800120592F0008F12E0008F32E00086F
:10001000F52E0008F72E0008F92E00080000000059
:10002000000000000000000000000000E11E0008C9
:10003000FB2E000800000000711F0008D51F0008FB
:10004000A92F0008A92F0008A92F0008A92F000830
:10005000A92F0008A92F0008FD2E0008A92F0008CD
:10006000A92F0008A92F0008A92F0008A92F000810
:10007000A92F0008A92F0008A92F0008A92F000800
:10008000A92F0008A92F0008A92F0008A92F0008F0
:10009000A92F0008A92F0008A92F0008A92F0008E0
:1000A000A92F0008A92F0008A92F0008A92F0008D0
:1000B000A92F0008A92F0008A92F0008A92F0008C0
:1000C000A92F0008A92F0008A92F0008A92F0008B0
:1000D000A92F0008A92F0008A92F0008A92F0008A0
:1000E000A92F0008A92F0008A92F0008A92F000890
:1000F000A92F0008A92F0008A92F0008A92F000880
:10010000A92F0008A92F0008A92F0008A92F00086F
:10011000A92F0008A92F0008052F0008A92F000803
:10012000A92F0008A92F0008A92F0008A92F00084F
:10013000A92F0008A92F0008A92F0008A92F00083F
:10014000A92F0008A92F0008A92F0008A92F00082F
:10015000A92F0008A92F0008A92F0008A92F00081F
:10016000A92F0008A92F0008A92F0008A92F00080F
:10017000A92F0008A92F0008A92F000800000000DF
:08018000A92F0008A92F0008B7
:1001900010B5054C237833B9044B13B10448AFF3C1
:1001A00000800123237010BD080000200000000023
:1001B0000430000808B5034B1BB103490348AFF3F3
:1001C000008008BD000000000C0000200430000882
:1001D00053B94AB9002908BF00281CBF4FF0FF31AE
:1001E0004FF0FF3000F07AB9ADF1080C6DE904CEA4
:1001F00000F006F8DDF804E0DDE9022304B0704702
:100200002DE9F0478C460D460446089E002B51D13F
:100210008A4217466DD9B2FA82FEBEF1000F0BD0AA
:10022000CEF1200C01FA0EF520FA0CFC02FA0EF7C2
:100230004CEA050C00FA0EF44FEA174A250CBCFBF9
:10024000FAF81FFA87F90AFB18CC45EA0C4508FBB7
:1002500009F3AB420AD9ED1908F1FF3280F023818E
:10026000AB4240F22081A8F102083D44ED1AA4B24D
:10027000B5FBFAF00AFB105544EA054400FB09F906
:10028000A14509D9E41900F1FF3380F00A81A145A5
:1002900040F2078102383C44A4EB090440EA0840DC
:1002A0000021002E61D024FA0EF400233460736024
:1002B000BDE8F0878B4207D9002E54D0002186E894
:1002C00021000846BDE8F087B3FA83F1002940F029
:1002D0008E80AB4202D3824200F2FA80841A65EB30
:1002E00003050120AC46002E3FD086E81010BDE883
:1002F000F08712B90127B7FBF2F7B7FA87FEBEF114
:10030000000F34D1EB1B3A0C1FFA87FC0121B3FB21
:10031000F2F8250C02FB183345EA03450CFB08F301
:10032000AB4207D9ED1908F1FF3002D2AB4200F21F
:10033000D1808046ED1AA3B2B5FBF2F002FB105556
:1003400043EA05440CFB00FCA44507D9E41900F17D
:10035000FF3302D2A44500F2B8801846A4EB0C0487
:1003600040EA08409DE731463046BDE8F087CEF1CF
:10037000200405FA0EF307FA0EF720FA04F83A0CF7
:1003800025FA04F448EA0308B4FBF2F14FEA1845F1
:1003900002FB11441FFA87FC45EA044501FB0CF3FC
:1003A000AB4200FA0EF409D9ED1901F1FF3080F0EB
:1003B0008A80AB4240F2878002393D44EB1A1FFA33
:1003C00088F5B3FBF2F002FB103345EA034500FB6E
:1003D0000CF3AB4207D9ED1900F1FF386FD2AB42F5
:1003E0006DD902383D44EB1A40EA01418FE7C1F173
:1003F000200722FA07F88B4005FA01F448EA0303C4
:1004000020FA07FE4FEA134CFD404EEA040EB5FBFE
:10041000FCF94FEA1E440CFB19551FFA83F844EA15
:10042000054509FB08F4AC4202FA01F200FA01FAB0
:1004300008D9ED1809F1FF3043D2AC4241D9A9F1F6
:1004400002091D442D1B1FFA8EFEB5FBFCF00CFBB0
:1004500010554EEA054400FB08F8A04507D9E418FA
:1004600000F1FF3529D2A04527D902381C4440EAC3
:100470000940A4EB0804A0FB02894C45C6464D4642
:1004800015D312D056B1BAEB0E0364EB050404FA8F
:1004900007F7CB401F43CC40376074600021BDE8B4
:1004A000F0871846F8E69046E0E6C245EAD2B8EB97
:1004B000020E69EB03050138E4E72846D7E740461A
:1004C00091E78146BEE7014678E702383C4445E7BC
:1004D000084608E7A8F102083D442BE7704700BF33
:1004E00010B5032000F01AF8002002F0C5FC044605
:1004F00018B902F06FFC204610BD0124FBE7000094
:10050000024A136801331360704700BF802800203F
:10051000014B1868704700BF80280020074AD36845
:1005200023F4E0631B041B0C43F0BF63000243F49D
:10053000003300F4E0600343D360704700ED00E057
:10054000174B30B5DC68C4F30224C4F10703251D42
:10055000042B28BF0423062D4FF0010505FA03F3F1
:1005600003F1FF338CBF033C00241940A14005FA7E
:1005700004F4013C2240002842EA01024FEA021240
:10058000AFBF00F1604000F00F00064BD2B2A5BF34
:1005900000F56140D2B21A5480F8002330BD00BF8C
:1005A00000ED00E014ED00E04209012300F01F001F
:1005B00003FA00F0014B43F82200704700E100E02D
:1005C0002DE9F04F85B00B68DFF8A881674C0193E7
:1005D0000023019ADA4002D105B0BDE8F08F012670
:1005E000019A9E4012EA060E00F0B1804A6822F09D
:1005F0001007022F16D14FEAD30900EB890903F047
:10060000070AD9F820504FEA8A0A4FF00F0C0CFA6B
:100610000AFC25EA0C0C0D6905FA0AF545EA0C05F9
:10062000C9F820504FEA430C0325D0F800B005FA72
:100630000CF5ED4302F0030A0BEA050B0AFA0CF97C
:10064000013F49EA0B09012FC0F8009011D88768D3
:1006500005EA0709CF6807FA0CF747EA0907876038
:10066000476827EA0609C2F300179F4047EA0907CF
:100670004760BAF1030F07D1C76A27EA0606C2F33B
:10068000C0079F403E43C662C66835408E6806FA82
:100690000CF63543C560D50059D5D8F8605045F003
:1006A0000105C8F86050D8F8605023F0030606F141
:1006B000804605F0010506F58036039503F0030C2E
:1006C000039DB5684FEA8C0C0F2707FA0CF7B0F1C1
:1006D000904F25EA07073CD0254DA8423BD005F5B1
:1006E0008065A84239D005F58065A84237D005F568
:1006F0008065A84235D005F58065A84233D005F560
:100700008065A84214BF0725062505FA0CF53D4370
:10071000B56025686FEA0E06D70354BF35404EEA30
:10072000050525606568970354BF35404EEA050509
:100730006560A568D70254BF35404EEA0505A5603F
:10074000E568920254BF35404EEA0505E560013385
:100750003FE70025D9E70125D7E70225D5E703259F
:10076000D3E70425D1E70525CFE700BF000401400A
:1007700000040048001002400AB1816170478162A4
:1007800070474369594041617047000008B5044B08
:100790005969014202D0586102F00AFB08BD00BF4E
:1007A00000040140024B186800F4C060704700BFAD
:1007B00000700040174B1A68B0F5007F02F4C06269
:1007C0001CD1B2F5007F15D01A6822F4C06242F441
:1007D00000721A60104A116832224A430F49B2FB74
:1007E000F1F2194601325869400500D522B94B692A
:1007F0005B050DD400207047013AF4E7B2F5806F35
:100800001FBF1A6822F4C06242F480621A60F1E7E6
:1008100003207047007000400400002040420F0099
:1008200037B51E4DAB6DDA00044618D5FFF7BAFF99
:10083000B0F5007F23D1802C29D9A02C8CBF0220B9
:100840000120174A136823F007030343136013685A
:1008500003F00703181A18BF012003B030BDAB6DB9
:1008600043F08053AB65AB6D03F080530193019B64
:10087000FFF798FFAB6D23F08053AB65D8E7802C72
:1008800007D808D0A4F1700358425841D9E7002096
:10089000D7E70320D5E70220D3E700BF00100240CE
:1008A00000200240254B9A68D96812F00C0205D04E
:1008B0000C2A15D101F00301012918D1196820482B
:1008C000090755BFD3F894101968C1F30321C1F388
:1008D000031150F8210082B30C2A09D00020704780
:1008E000042A29D0082A174818BF00207047002082
:1008F000D968DA6801F00301C2F30212022902F199
:10090000010205D0032912D0D968C1F3062103E002
:10091000D9680D48C1F30621DB68B0FBF2F0C3F3E0
:100920004163013348435B00B0FBF3F07047D96883
:100930000448C1F30621EFE7034870470010024066
:100940008030000800127A000024F4002DE9F743FB
:10095000054618B9012003B0BDE8F083A54C036833
:10096000A668E768DB0606F00C0607F003073CD52F
:100970001EB10C2E63D1012F61D12368980702D5D7
:10098000AB69002BE6D02368286A190756BFD4F854
:10099000943023681B0903F0F00383423AD2FFF737
:1009A0003FFF0028D6D1236843F008032360236863
:1009B0002A6A23F0F003134323606368EA6923F48F
:1009C0007F4343EA02236360FFF76CFFA3688A4A10
:1009D000C3F30313D35C03F01F03D840874B1860A5
:1009E000002002F049FA0028B5D12B68D8075DD461
:1009F0002B68990700F19C802B68180700F1D080C4
:100A00002B68590700F1FC80AB6A002B40F0658130
:100A10000020A0E7236843F008032360236823F045
:100A2000F003034323606368EA6923F47F4343EAE6
:100A300002236360FFF7F4FE0028C5D08AE7AB69A4
:100A40001BB3236843F001032360FFF761FD804679
:100A500023689A0711D5236843F0080323602368AD
:100A60002A6A23F0F003134323606368EA6923F4DE
:100A70007F4343EA02236360B7E7FFF749FDA0EB3A
:100A800008000228E4D9032065E7236823F0010366
:100A90002360FFF73DFD804623689B07A5D5FFF740
:100AA00037FDA0EB08000228F6D9ECE7082E03D0AA
:100AB0000C2E08D1032F06D123689A0398D56B68B2
:100AC000002B95D146E76B68B3F5803F10D12368C2
:100AD00043F480332360FFF71BFD804623689B03AC
:100AE00086D4FFF715FDA0EB08006428F6D9CAE705
:100AF000B3F5A02F04D1236843F480232360E6E7F5
:100B0000226822F480322260226822F4802222604D
:100B1000002BE0D1FFF7FCFC8046236898037FF5AB
:100B200067AFFFF7F5FCA0EB08006428F5D9AAE74A
:100B3000042E03D00C2E10D1022F0ED1236859059C
:100B400003D5EB68002B3FF405AF63682A6923F0F7
:100B5000F85343EA026363604EE7EB687BB12368B6
:100B600043F480732360FFF7D3FC074623685A05DC
:100B7000EBD4FFF7CDFCC01B0228F7D983E723682D
:100B800023F480732360FFF7C3FC074623685B05EB
:100B90007FF532AFFFF7BCFCC01B0228F6D972E725
:100BA0006B699BB1D4F8943043F00103C4F89430DE
:100BB000FFF7AEFC0746D4F894309A073FF520AF14
:100BC000FFF7A6FCC01B0228F5D95CE7D4F89430E7
:100BD00023F00103C4F89430FFF79AFC0746D4F8D9
:100BE00094309B077FF50CAFFFF792FCC01B0228E7
:100BF000F5D948E7001002406630000804000020E4
:100C0000A36DD80029D4A36D43F08053A365A36DD1
:100C100003F080530193019B4FF001085D4F3B6847
:100C2000D9051DD5AB68012B2BD1D4F8903043F0FA
:100C30000103C4F89030FFF76BFC41F28839074696
:100C4000D4F890309B0742D5B8F1000F3FF4DCAEEA
:100C5000A36D23F08053A365D6E64FF00008DDE7CF
:100C60003B6843F480733B60FFF752FC81463B686E
:100C7000DA05D7D4FFF74CFCA0EB09000228F6D91F
:100C800001E7052B06D1D4F8903043F00403C4F8F3
:100C90009030CAE7D4F8902022F00102C4F89020E6
:100CA000D4F8902022F00402C4F89020002BC2D186
:100CB000FFF72EFC41F288390746D4F890309807A8
:100CC000C2D5FFF725FCC01B4845F6D9DBE6FFF788
:100CD0001FFCC01B4845B3D9D5E60C2E3FF43AAEF5
:100CE000022B236823F08073236037D1FFF710FCB9
:100CF0000646236899012BD46A6BEB6A43EA022308
:100D00002A6B013A43EA0213AA6B120943EA4243EF
:100D1000EA6B5208013A43EA42532A6C5208013AFC
:100D200043EA4263E360236843F080732360E3682F
:100D300043F08073E360FFF7EBFB054623689A01FD
:100D40003FF566AEFFF7E4FB401B0228F6D99AE6B2
:100D5000FFF7DEFB801B0228CBD994E6236813F053
:100D6000205F02BFE36823F00303E360E36823F03E
:100D7000887323F48033E360FFF7CAFB05462368DA
:100D80009B017FF545AEFFF7C3FB401B0228F6D958
:100D900079E600BF007000402DE9F0410E460446A0
:100DA00010B90120BDE8F081404A136803F0070341
:100DB0008B4229D32368D90731D421688A075BD4B1
:100DC0003A4A136803F007039E425DD311F0040F03
:100DD000374D64D10B0706D5AB68226923F4605305
:100DE00043EAC203AB60FFF75DFDAB68314AC3F372
:100DF0000313BDE8F041D35C03F01F03D8402E4B32
:100E00001860002002F038B8136823F007030B4382
:100E10001360136803F007039942C2D1CAE76268FE
:100E2000234D032A2B681BD113F0007FB9D0AB6888
:100E300023F003031343AB60FFF76AFB41F28838EA
:100E40000746AB68626803F00C03B3EB820FB4D0C3
:100E5000FFF75EFBC01B4045F3D90320BDE8F081DE
:100E6000022A02D113F4003FE0E712B913F0020F97
:100E7000DCE713F4806FD9E70D4AA068936823F08C
:100E8000F003034393609BE7136823F007033343A6
:100E90001360136803F007039E4282D196E7AB68A4
:100EA000E26823F4E0631343AB6093E70020024061
:100EB000001002406630000804000020054B064A7E
:100EC0009B68C3F30223D35C044A106803F01F033A
:100ED000D84070470010024076300008040000201F
:100EE000054B064A9B68C3F3C223D35C044A1068CF
:100EF00003F01F03D840704700100240763000080E
:100F0000040000200F2303600B4B9A6802F00302D9
:100F100042609A6802F0F00282609A6802F4E0622D
:100F2000C2609B68DB0803F4E0630361034B1B684A
:100F300003F007030B6070470010024000200240DE
:100F4000F8B5454BDA6812F0030F05460E461C460D
:100F500000682AD0DA6802F0030282423CD1002AFB
:100F60003AD0DB686A68C3F302130133934233D18A
:100F7000236823F080632360FFF7CAFA07462368DB
:100F80001A0132D4AF68002E36D0012E50D122691A
:100F9000286922F4C002400822F4FE42013842EAE5
:100FA000072242EA4052226132E0022810D0032890
:100FB00014D0012810D11B689F0738D5E3686A68F0
:100FC00023F07303013A184340EA0210E060CFE7D0
:100FD0001B6813F4806FF1D10120F8BD1A689103EA
:100FE000ECD41B6813F4802FF5E7FFF791FAC01BD0
:100FF0000228C4D90320F8BD2169EB6821F41F3110
:1010000021F4407141EA07211B0941EA4341216172
:10101000236843F080632360FFF77AFA064623686B
:101020001B0113D52369AA69134323610020F8BD6E
:101030002369686923F0C063400823F4FE43013844
:1010400043EA072343EA40632361E1E7FFF760FADD
:10105000801B0228E3D9CDE700100240F8B53D4BD4
:10106000DA6812F0030F05460E461C46006828D0C9
:10107000DA6802F0030282423AD1002A38D0DB68F3
:101080006A68C3F302130133934231D1236823F01A
:1010900080532360FFF73CFA074623689A0030D458
:1010A000A868002E34D06369296923F0C063490819
:1010B00023F4FE43013943EA002343EA41636361B9
:1010C00032E0022810D0032814D0012810D11B6868
:1010D0009F0738D5E3686A6823F07303013A184321
:1010E00040EA0210E060D1E71B6813F4806FF1D191
:1010F0000120F8BD1A689103ECD41B6813F4802F0B
:10110000F5E7FFF705FAC01B0228C6D90320F8BD92
:101110006269EB6822F41F3222F4407242EA002234
:101120001B0942EA43426261236843F08053236013
:10113000FFF7EEF9064623689B0005D563696A69E7
:10114000134363610020F8BDFFF7E2F9801B02281A
:10115000F1D9DBE7001002402DE9F347066816F4E9
:101160000066044624D0416EB1F5800F2CD002D821
:10117000C1B101261CE0B1F5000F0DD0B1F5400F53
:10118000F7D14D4A616ED2F8883023F440030B4307
:10119000C2F8883000260BE0474AD36843F4803316
:1011A000D360EEE70430FFF7CBFE06460028E8D018
:1011B0002368D80406D5A16EB1F1807F74D008D819
:1011C000A9B10126354621E000212030FFF746FF76
:1011D000EBE7B1F1007F04D0B1F1407FF1D13546AA
:1011E00009E0354AD36843F48033D360F7E7201D24
:1011F000FFF7A6FE0546002D5CD12F4AA16ED2F85E
:10120000883023F040730B43C2F888302368990379
:1012100040F14F81284FBB6DDA0040F176814FF0ED
:101220000008DFF89890D9F8003043F48073C9F8CB
:101230000030FFF76DF98246D9F80030DB053FD565
:10124000002D44D1D7F8903013F4407315D0D4F862
:101250008420934211D0D7F89030D7F8902042F4F0
:101260008032C7F89020D7F8902023F4407322F4FE
:101270008032C7F89020C7F89030D80709D5FFF71B
:1012800047F941F288390546D7F89030990740F17F
:101290000981D7F89030D4F8842023F440731343A5
:1012A000C7F89030354612E0002104F12000FFF726
:1012B000D5FE9FE72E46A9E70010024000700040CF
:1012C000FFF726F9A0EB0A000228B5D90325B8F1EB
:1012D000000F03D0BB6D23F08053BB652368DA0792
:1012E00008D59049A06BD1F8882022F00302024370
:1012F000C1F888209F0708D58A49E06BD1F888207B
:1013000022F00C020243C1F888205E0708D5854907
:10131000206CD1F8882022F030020243C1F88820E6
:10132000180708D57F49606CD1F8882022F0C002E8
:101330000243C1F88820D90608D57A49A06CD1F8B3
:10134000882022F440720243C1F888209A0608D50A
:101350007449E06CD1F8882022F440620243C1F85D
:1013600088209F0508D56F49E06DD1F8882022F4C8
:1013700040220243C1F888205E0508D56949206EE5
:10138000D1F8882022F440120243C1F88820580680
:1013900008D56449206DD1F8882022F440520243D8
:1013A000C1F88820190608D55E49606DD1F88820FB
:1013B00022F440420243C1F88820DA0508D5594991
:1013C000A06DD1F8882022F440320243C1F8882071
:1013D0009B040FD5534AE16ED2F8883023F0406366
:1013E0000B43B1F1006FC2F8883064D1D36843F485
:1013F0008013D36023681F030FD54A4A216FD2F8A8
:10140000883023F040630B43B1F1006FC2F888309D
:101410005CD1D36843F48013D36023685E030FD597
:10142000404A616FD2F8883023F040630B43B1F13A
:10143000006FC2F8883054D1D36843F48013D3606E
:101440002368580412D53749A26FD1F8883023F0A9
:1014500040531343B2F1805FC1F888304CD1022170
:10146000201DFFF76DFD002818BF054622681104F6
:1014700008D52C49E06FD1F8883023F0804303432E
:10148000C1F88830D30309D5264AD4F88010D2F8A1
:10149000883023F000430B43C2F88830284602B05E
:1014A000BDE8F087FFF734F8401B48457FF6ECAE07
:1014B0000CE7354612E7B1F1806F9BD10121201D69
:1014C000FFF73EFD002818BF054693E7B1F1806F96
:1014D000A3D10121201DFFF733FD002818BF0546C9
:1014E0009BE7B1F1806FABD10121201DFFF728FDF3
:1014F000002818BF0546A3E7B2F1005FB6D102216C
:1015000004F12000FFF7AAFDADE7BB6D43F0805367
:10151000BB65BB6D03F080530193019B4FF0010845
:101520007FE600BF001002407047000003680A48D1
:10153000DA6842F00102DA6099680140062908D0B1
:101540009A680240B2F5803F1EBF1A6842F001025D
:101550001A600020704700BF070001007047704705
:101560007047704703681A69910710B504460FD594
:10157000DA6892070CD56FF002021A619B690122AA
:101580009907027700F08580FFF7E9FF00232377B2
:1015900023681A69520710D5DA6850070DD56FF025
:1015A00004021A619B69022213F4407F22772046CD
:1015B00075D0FFF7D4FF0023237723681A6911073A
:1015C0000FD5DA6812070CD56FF008021A61DB69D3
:1015D00004229B072277204667D0FFF7C0FF002335
:1015E000237723681A69D00610D5DA68D1060DD59D
:1015F0006FF010021A61DB69082213F4407F227732
:10160000204658D0FFF7ABFF0023237723681A69E1
:10161000D20708D5DA68D00705D56FF001021A6144
:10162000204601F0CDFB23681A69110608D5DA6857
:10163000120605D56FF080021A61204600F0C3F84B
:1016400023681A69D00508D5DA68110605D56FF444
:1016500080721A61204600F0B7F823681A695206B2
:1016600008D5DA68500605D56FF040021A612046A9
:10167000FFF777FF23681A69910622D5DA68920688
:101680001FD56FF0200220461A61BDE8104000F01F
:1016900099B8FFF763FF2046FFF762FF76E7FFF791
:1016A0005DFF2046FFF75CFF85E7FFF757FF204609
:1016B000FFF756FF93E7FFF751FF2046FFF750FF74
:1016C000A2E710BD304A0368904212D0B0F1804FBB
:1016D0000FD0A2F5943290420BD002F58062904276
:1016E00007D002F58062904203D002F59432904216
:1016F00019D14A6823F070031343234A90421DD046
:10170000B0F1804F1AD0A2F59432904216D002F573
:101710008062904212D002F5806290420ED002F5B3
:10172000943290420AD0194A904207D002F5806262
:10173000904203D002F58062904203D1CA6823F43C
:10174000407313434A6923F08003134303608B689B
:10175000C3620B6883620C4B98420FD003F50063A1
:1017600098420BD003F54063984207D003F580639D
:10177000984203D003F58063984201D10B6903635B
:1017800001234361704700BF002C0140004001402D
:1017900010B50446A0B190F83D3003F0FF021BB92C
:1017A00080F83C20FFF7C0FE022384F83D3020681B
:1017B000211DFFF787FF012384F83D30002010BD75
:1017C000012010BD70477047704700000268C16972
:1017D000F8B50446836800691568034360690343EC
:1017E000BA480B432840034313605368E06823F46E
:1017F000405303435360B64BA0699A421CBF236A0F
:101800001843936823F4306303439360B14B9A42C7
:1018100019D103F55843B04AD3F8883003F00303D5
:10182000B1F5004FD35C40F03881082B00F28F8077
:10183000DFE813F01A01CA00F9008D0014018D00D1
:101840008D008D003600A54B9A4207D103F5E63393
:10185000A34AD3F8883003F00C03E1E7A14B9A4286
:1018600023D103F5E433D3F8883003F03003102B91
:1018700000F0F1800BD8002B00F0F380B1F5004FA1
:101880004FF001024FF0000300F0F880A8E0202B99
:1018900000F0C680302BF1D1B1F5004F40F0B88098
:1018A0006068430803F58033C3E08F4B9A421ED132
:1018B00003F5E233D3F8883003F0C003402B00F087
:1018C000BB800AD87BB9824B9A4240F0CA80FFF7AE
:1018D000F5FA0023B0BB02463AE0802B00F09D8071
:1018E000C02B00F0B0807A4B9A42C7D12FE07F4BDB
:1018F0009A4211D103F5E033D3F8883003F44073F2
:10190000B3F5807F00F09880DCD9B3F5007F00F05C
:101910008480B3F5407FE4E76D4B9A42AED103F586
:10192000C833D3F8883003F44063B3F5806F00F018
:101930008380C7D9B3F5006F6FD0B3F5406FD0E7A0
:101940006B480223626802EB4201814205D9012201
:101950000023236663661046F8BDB0EB023FF6D85D
:10196000082B2ED8DFE803F0052D1C2D242D2D2D5E
:101970002700FFF7A3FA62684FF48071560800272A
:10198000E1FB0067002330463946FEF721FC0022C8
:10199000584BA0F540719942D9D82368D860D7E751
:1019A0005548550800230021401941F10001ECE79A
:1019B000FEF778FFDFE750080021002310F5000054
:1019C000F3E701220020E3E7FFF78AFA4EE0FFF792
:1019D00075FA626800EB5203B3FBF2F39BB200228C
:1019E000A3F110004FF6EF718842B0D82168CB60A8
:1019F000AEE7FFF775FAECE76068430803F5740398
:101A000003F51053B3FBF0F3E8E7FEF74BFFE0E715
:101A10006068430803F50043F4E72D4B9A428FD0EA
:101A2000B1F5004FE8D16068430803F1F47303F5A2
:101A30009043B3FBF0F31FE0254B9A420BD1FEF726
:101A400031FF042346E7224B9A427FF425AF4FF43F
:101A50000040082376E7B1F5004FD6D1FEF722FF0C
:101A600004E0B1F5004FB2D1FFF728FA61684A08E7
:101A700002EB4003B3FBF1F39BB20022A3F1100091
:101A80004FF6EF7188423FF662AF23F00F012068F6
:101A9000C3F342030B43C3605AE7082B3FF657AF2B
:101AA00001A252F823F000BFCF190008F319000873
:101AB000F91900084F1900080B1A00084F190008FF
:101AC0004F1900084F190008111A0008F369FFEFB9
:101AD00000800040003801404430000800440040CD
:101AE0004830000800480040004C004000500040D2
:101AF0000024F400FFFC0F00000024F4436ADA071E
:101B000010B506D50168846A4A6822F4003222437F
:101B10004A609C0706D50168C46A4A6822F480328C
:101B200022434A60590706D50168046B4A6822F4CB
:101B3000802222434A601A0706D50168446B4A682E
:101B400022F4004222434A60DC0606D50168846B19
:101B50008A6822F4805222438A60990606D5016879
:101B6000C46B8A6822F4005222438A605A060FD559
:101B70000168046C4A6822F480122243B4F5801F85
:101B80004A6005D14A68446C22F4C00222434A608C
:101B90001B0606D50268816C536823F400230B43AF
:101BA000536010BD2DE9F041069D04460F461646D0
:101BB00098462168CA6937EA02030CBF0122002255
:101BC000B24202D00020BDE8F0816B1CF2D09DB97A
:101BD00023681A6822F4D0721A609A6822F001020F
:101BE0009A60202384F8713084F87230002384F8DE
:101BF00070300320BDE8F081FEF78AFCA0EB0800FE
:101C00008542D6D2E4E773B5044600264667FEF760
:101C10007FFC23681B681A07054617D423681B68D6
:101C20005B070AD56FF07E43009300222B464FF4EA
:101C300080012046FFF7B6FFA0B92023002084F8DA
:101C4000713084F8700084F872300CE06FF07E43DD
:101C50000093324603464FF400112046FFF7A2FFDF
:101C60000028DBD0032002B070BD10B5044660B37D
:101C700090F8713003F0FF021BB980F8702001F07A
:101C8000C9F82268242384F87130136823F0010313
:101C900013602046FFF79AFD012816D0636A13B13E
:101CA0002046FFF72BFF23685A6822F490425A60BF
:101CB0009A6822F02A029A601A6842F001022046CD
:101CC0001A60BDE81040FFF79EBF012010BD08B5A7
:101CD00000F0ACFC002008BD30B5B0F90840028A25
:101CE0000B4690E8220085B0842C14BF03340024F6
:101CF00003A801900094284600F0C8FB01280CBFFF
:101D00000398002005B030BD08B5002808BF0120A9
:101D100000F0DAFD002008BD1FB504AB00220292DE
:101D200043F8042DEFF30582BAB102AA0092012212
:101D300000F0D6FE012804D04FF0004005B05DF859
:101D400004FB029B3BB1084B4FF080521A60BFF37B
:101D50004F8FBFF36F8F0398F0E7012200F058FE1A
:101D60000128F8D0E8E700BF04ED00E030B585B009
:101D70000023044615460293EFF3058010B1822339
:101D8000019307E0134602AA00F0FCFD01280BD0E6
:101D900045B9019504AB13E9070084E80700204624
:101DA00005B030BD4023EBE7029B002BB4BF862378
:101DB0000823E5E700F1080343604FF0FF32C360FA
:101DC0000361002382600360704700230361704752
:101DD00043684B609A688A609A68516099600368AA
:101DE00008610133036070470A68531C30B50AD19B
:101DF00003695A684A6091608B60596003680861A2
:101E00000133036030BD00F108035C682568AA4215
:101E1000EFD32346F9E74168826803698A608268E4
:101E200051605968884208BF5A60002202611A68EE
:101E3000013A1A601868704782B0002301930D4B75
:101E40001B68013308D04FF0500383F31188BFF3B0
:101E50006F8FBFF34F8FFEE74FF0500383F311886E
:101E6000BFF36F8FBFF34F8F019B002BFCD002B0ED
:101E7000704700BF0000002008480068006880F339
:101E800008884FF0000080F3148862B661B6BFF393
:101E90004F8FBFF36F8F00DF00BF000008ED00E041
:101EA000DFF80C00016841F4700101607047000028
:101EB00088ED00E04FF0807340F8043C074B40F899
:101EC0000C3C21F001016FF0020340F8081C40F8BF
:101ED000202C40F8243C4438704700BF391E0008CD
:101EE000074B19680868B0E8F04F80F30988BFF322
:101EF0006F8F4FF0000080F311887047AFF30080C0
:101F0000542700204FF0500383F31188BFF36F8FE5
:101F1000BFF34F8F0A4A13680133012B13600DD1B1
:101F2000084B1B6813F0FF0F08D04FF0500383F3EA
:101F30001188BFF36F8FBFF34F8FFEE7704700BF6D
:101F40000000002004ED00E0084A136843B94FF098
:101F5000500383F31188BFF36F8FBFF34F8FFEE7FA
:101F6000013B13600BB983F3118870470000002018
:101F7000EFF30980BFF36F8F154B1A681EF0100F37
:101F800008BF20ED108A20E9F04F10602DE909000C
:101F90004FF0500080F31188BFF34F8FBFF36F8F66
:101FA00000F0B6FC4FF0000080F3118809BC1968FE
:101FB0000868B0E8F04F1EF0100F08BFB0EC108AB0
:101FC00080F30988BFF36F8F704700BFAFF30080C5
:101FD0005427002008B54FF0500383F31188BFF356
:101FE0006F8FBFF34F8F00F065FB18B1034B4FF0BD
:101FF00080521A60002383F3118808BD04ED00E0CD
:10200000084A0949002313600B60084B4FF47A71AA
:102010001B68B3FBF1F30649013B0B600723136018
:10202000704700BF10E000E018E000E0040000206E
:1020300014E000E0394B3A4A13B51968914208D1CF
:102040004FF0500383F31188BFF36F8FBFF34F8FAF
:10205000FEE71A68334B9A4208D14FF0500383F3DE
:102060001188BFF36F8FBFF34F8FFEE72E4B1A78A7
:10207000D2B20192FF221A701B782C4ADBB28DF883
:1020800003309DF8033003F050031370284B0722F0
:102090001A6000219DF80300000602F1FF340DD400
:1020A00001B11A601A68032A11D04FF0500383F36C
:1020B0001188BFF36F8FBFF34F8FFEE79DF80320AA
:1020C0005200D2B28DF8032001212246E2E712022B
:1020D00002F4E0621A60019B134ADBB21370154BE5
:1020E0001A6842F470021A601A6842F070421A606C
:1020F000FFF786FF104B00241C60FFF7D1FE0F4A4C
:10210000136843F040431360FFF7B6FE00F000FC95
:10211000FFF792FE204602B010BD00BF00ED00E0C8
:1021200071C20F4170C20F4100E400E024000020A2
:102130002800002020ED00E00000002034EF00E047
:10214000EFF305830F2B0ED9104A9B5C104A1278CF
:102150009A4208D94FF0500383F31188BFF36F8F71
:10216000BFF34F8FFEE70B4B0B4A1B68126803F45B
:10217000E063934208D94FF0500383F31188BFF313
:102180006F8FBFF34F8FFEE7704700BFF0E300E0B3
:10219000240000200CED00E02800002010B50F4BBB
:1021A0001A68824218D35C681919884201BF4168D5
:1021B000184609195960446801198A4207D108492B
:1021C00009688A421FBF5168126809194160984224
:1021D000026018BF186010BD1346E1E74C270020CD
:1021E0002C0000202DE9F041044600F05BFA3D4947
:1021F0003D4D0B68FBB93D4A56071CBF07323C4BAF
:102200003C4E1ABF22F007029B1A42F2107313448D
:10221000083B23F0070300207060326058601860AC
:102220000B60981A1360344B50601860334B186081
:102230004FF000432B602F68274216D1002C41D06D
:1022400004F1080358071CBF23F00703083363B1E8
:102250002A4A1668B342904607D8264A1568686825
:10226000834204D809688D4207D100242AE02C68F3
:10227000002CF7D02A462546F1E72968146811603A
:10228000C21A102A0FD9E818410708D04FF050039E
:1022900083F31188BFF36F8FBFF34F8FFEE7426068
:1022A0006B60FFF77BFF14496B680868F61A1F43E1
:1022B00086424FF00003C8F8006038BF0E60083453
:1022C0006F602B6000F088FA630708D04FF050036E
:1022D00083F31188BFF36F8FBFF34F8FFEE7204664
:1022E000BDE8F0812C0000204027002030000020B5
:1022F000402700204C2700204827002044270020AA
:1023000010B5044670B3184A50F8043C12681342E2
:1023100008D14FF0500383F31188BFF36F8FBFF3E1
:102320004F8FFEE750F8081C41B14FF0500383F384
:102330001188BFF36F8FBFF34F8FFEE723EA0203CD
:1023400040F8043C00F0AEF9084A54F8043C116827
:10235000A4F108000B441360FFF720FFBDE8104014
:1023600000F03ABA10BD00BF4027002044270020EB
:10237000064A13681968064B19B94FF0FF321A6004
:1023800070471268D268D2685268F8E75827002070
:1023900030280020F8B51B4B1B4E1D6804463068E2
:1023A00004300F46FFF737FD334640B93168174E0A
:1023B000C96A32680120884022EA00023260621C49
:1023C00007D137B1196812480431BDE8F840FFF76A
:1023D000FFBC2C441A68A542546007D90D4A106806
:1023E0001968BDE8F8400431FFF7FEBC0A4A1068DE
:1023F00019680431FFF7F8FC084B1A68944238BF9B
:102400001C60F8BD782800205427002000280020F8
:10241000502800205C27002058270020302800206A
:1024200080B5DFF86480144F144C154E236863B9EF
:10243000144B1B68012BF8D94FF08053C8F80030BB
:10244000BFF34F8FBFF36F8FEEE7FFF75BFDFB68C6
:10245000DD68281DFFF7DFFC3368013B336023682C
:10246000013B2360FFF770FD286BFFF749FF28460B
:10247000FFF746FFDAE700BF64280020F0270020BE
:10248000EC2700206027002004ED00E02DE9F84F44
:102490004FEA820A804650460F4699460B9EFFF748
:1024A000A1FE0546002800F096805420FFF79AFE12
:1024B0000446002800F08C80AAF1040A0563554404
:1024C0007B1E25F0070A00F134020F37597802F815
:1024D000011B13F8011F09B1BB42F7D10A9D062D5C
:1024E00028BF06254FF0000B271DE56265643846BE
:1024F00084F843B0C4F848B0FFF767FCC5F107059E
:1025000004F11800FFF761FCC4F84CB02461A56128
:10251000646284F850B04A4641465046FFF7CAFC10
:10252000206006B13460FFF7EDFC324B324E1A6882
:10253000DFF8F08001321A603568002D4ED134602A
:102540001B68012B1DD108EB05001435FFF732FC89
:102550008C2DF8D1DFF8D090284D4846FFF72AFCA3
:102560002846FFF727FC2648FFF724FC2548FFF7FD
:1025700021FC2548FFF71EFC244BC3F80090244B98
:102580001D60244A24491368086801331360E26A15
:10259000012505FA02F3034314200B6000FB0280BF
:1025A0003946FFF715FCFFF7CFFC1C4B1B6863B1E6
:1025B0003368DA6AE36A9A4207D2194B4FF08052C5
:1025C0001A60BFF34F8FBFF36F8F2846BDE8F88FB7
:1025D0002846FFF795FE4FF0FF35F6E70F4B1B68D7
:1025E000002BCED13368DA6AE36A9A4298BF34602E
:1025F000C7E700BFEC270020542700201828002040
:102600003828002064280020502800205827002067
:102610005C270020FC270020002800204C280020F8
:1026200004ED00E0602700200428002013B5174BBC
:102630000193002400942346802215491548FFF792
:1026400025FF012814D14FF0500383F31188BFF305
:102650006F8FBFF34F8F104B4FF0FF321A600F4B4D
:1026600018600F4B1C6002B0BDE81040FFF7E2BCE1
:10267000013008D14FF0500383F31188BFF36F8FFF
:10268000BFF34F8FFEE702B010BD00BF2C28002023
:102690005530000821240008302800204C28002054
:1026A00078280020024A136801331360704700BF86
:1026B000F82700202DE9F84F3C4B1B68002B53D125
:1026C0003B4B1C6801341C60BCB93A4B1A68126859
:1026D00042B14FF0500383F31188BFF36F8FBFF304
:1026E0004F8FFEE7344A1968106818601160334A4A
:1026F000136801331360FFF73BFE314D314F2B68F8
:102700009C424FF0000B3ED3DFF8A880DFF8C49066
:10271000D8F80020126872BB4FF0FF322A6032E016
:1027200006F1040A5046FFF776FBB16A19B106F1CB
:102730001800FFF770FBF06AD9F80030012202FAA6
:1027400000F11943204BC9F800104FF0140E514608
:102750000EFB0030FFF73CFB3868F16AC26A914219
:1027600028BF4FF0010BD3E7184A136801331360F9
:102770004FF0000B11E0D8F80020D268D6687168DD
:102780008C42CDD229603A680F4BD16A14224A4359
:102790009A58022A28BF4FF0010B0D4A1268002AEE
:1027A00018BF4FF0010B5846BDE8F88FF8270020FE
:1027B00078280020582700205C270020342800209B
:1027C000302800205427002060270020F427002014
:1027D0007C280020002800202DE9F843314C236894
:1027E00043B94FF0500383F31188BFF36F8FBFF3EA
:1027F0004F8FFEE7FFF786FB2368013B23602468C9
:102800002CB10024FFF7A0FB2046BDE8F883264B3F
:102810001B68002BF5D0DFF8A890244FDFF8A480C8
:10282000D9F80030E3B90CB1FFF7A2FD204D2C68B8
:1028300044B1204E0127FFF73DFF00B13760013C56
:10284000F9D12C601B4B1B68002BDAD01A4B4FF0D0
:1028500080521A60BFF34F8FBFF36F8F0124D1E70F
:10286000D9F80C30DC68261D04F11800FFF7D3FA04
:102870003046FFF7D0FAE26A3968012505FA02F31B
:1028800014200B4300FB028031463B60FFF7A0FAA7
:102890000A4BE26A1B68DB6A9A4224BF054B1D6043
:1028A000BEE700BFF8270020EC270020002800200A
:1028B000F42700207C28002004ED00E054270020AD
:1028C000382800206027002008B540B90E4B4FF093
:1028D00080521A60BFF34F8FBFF36F8F08BD0B4B51
:1028E000196841B14FF0500383F31188BFF36F8F24
:1028F000BFF34F8FFEE7FFF7D5FEFFF74BFDFFF766
:102900006BFF0028E2D008BD04ED00E0F8270020AE
:10291000174B1A68174B10B512B101221A6010BD7F
:102920001A60154B1B68B3FA83F3DBB2C3F11F03C4
:10293000142212495A4388188C5844B94FF0500356
:1029400083F31188BFF36F8FBFF34F8FFEE74468A7
:102950000832646844600A44944204BF626842607A
:10296000142202FB03135B68DA68054BD6E700BF4D
:10297000F82700207C280020002800206027002065
:10298000542700202DE9F0411F4C1E4680460F467B
:102990001546FFF7B7FA236893F85030022B14D08E
:1029A0002368DA6C22EA0802DA642368012183F8DA
:1029B000501056B13046FFF7EDFC144B4FF08052EB
:1029C0001A60BFF34F8FBFF36F8FFFF7BDFAFFF7AA
:1029D00099FA15B12368DB6C2B60236893F85030AB
:1029E000022B01BF2368D96CB943D96423684FF027
:1029F00000020CBF0125002583F85020FFF7A4FA40
:102A00002846BDE8F08100BF5427002004ED00E017
:102A1000F8B50F4616461D46044640B94FF0500320
:102A200083F31188BFF36F8FBFF34F8FFEE7FFF77C
:102A300069FA0DB1E36C2B6094F850500223721EBA
:102A4000EDB284F85030032A0AD8DFE802F002061B
:102A50000410E16C0F43E76402E0E36C0133E364CC
:102A6000012D08D00125FFF76FFA2846F8BD022D89
:102A7000F1D10025F7E7261D3046FFF7CCF91449C0
:102A8000E26A086805FA02F303430B60114B142055
:102A900000FB02303146FFF79BF9A36A43B14FF0C8
:102AA000500383F31188BFF36F8FBFF34F8FFEE79F
:102AB000094BE26A1B68DB6A9A42D3D9074B4FF095
:102AC00080521A60BFF34F8FBFF36F8FCBE700BF09
:102AD00000280020602700205427002004ED00E09B
:102AE0002DE9F843089F894690461D46044640B9A3
:102AF0004FF0500383F31188BFF36F8FBFF34F8FF5
:102B0000FEE7FFF71DFBEFF311864FF0500383F351
:102B10001188BFF36F8FBFF34F8F0DB1E36C2B6044
:102B200094F85050022308F1FF32EDB284F850308F
:102B3000032A07D8DFE802F0020D1311E16C41EA25
:102B40000901E164012D0DD0012086F31188BDE853
:102B5000F883E36C0133E364F4E7022D33D0C4F867
:102B60004C90EFE7A36A43B14FF0500383F3118811
:102B7000BFF36F8FBFF34F8FFEE7144B1B68DBB9BA
:102B800004F104084046FFF746F9114AE36A116868
:102B90009D400D4315600F4A1420414600FB032061
:102BA000FFF716F90C4BE26A1B68DB6A9A42CBD935
:102BB00001202FB13860C8E704F118010748EFE79A
:102BC000074B1860C1E70020BFE700BFF8270020CF
:102BD00000280020602700205427002038280020EB
:102BE0007C2800201FB5064C68464FF0FF320121BB
:102BF000FFF7BCF804212046FDF7C3FDF4E700BF52
:102C00000004004808B50120FFF77EF8FBE710B587
:102C1000B8B04422002105A800F0ECF914220021EC
:102C2000684600F0E7F98822002116A800F0E2F9D2
:102C300010230593012300240B9305A860230D9313
:102C4000FDF784FE21460F2368468DE818000294A4
:102C500003940494FEF7A0F8022316A81693259473
:102C6000FEF77AFA4FF40070FDF7A4FD38B010BDFE
:102C700000B58FB0FDF734FCFFF7C9FF1422002127
:102C800009A800F0B7F9414B4148DA6C42F0010263
:102C9000DA64DA6C02F001020092009ADA6C42F017
:102CA0000202DA64DA6C02F002020192019ADA6C32
:102CB00042F01002DA64DA6C02F010020292029A18
:102CC000DA6C42F00802DA64DB6C03F00803039369
:102CD00000220421039BFDF74FFD00224FF4807179
:102CE0002C480025FDF748FD01242B4B099409A928
:102CF0004FF090400A930B95FDF762FC042309A95D
:102D0000234809930A940B950C95FDF759FC4FF451
:102D1000807309A91F4809930A940B950C95FDF738
:102D20004FFC05212A460620FDF70AFC0620FDF788
:102D30003BFC1A481A4A1B4C85604FF4E13380E88B
:102D40000C000C234361C56005618561C5610562A6
:102D50004562FEF78AFF0FCC04AE0FC654F8043B61
:102D60003360294604A8FEF7B7FF0F4B18600FCC5D
:102D700009AE0FC623683360294609A8FEF7ACFFE9
:102D80000A4B1860FEF7A3FFFEE700BF00100240E9
:102D90000004004800100048000011108C2800209A
:102DA000004400401C3000088428002088280020AF
:102DB000024B01211868FEF7AFBF00BF8428002036
:102DC0000268034B9A4201D1FDF79ABB704700BFDE
:102DD000001000400E4B07B51A6E42F001021A6651
:102DE0001A6E02F001020092009A9A6D42F080522F
:102DF0009A659B6D03F08053019300220F216FF0C1
:102E00000100019BFDF79CFB03B05DF804FB00BFD4
:102E10000010024010B5044688B01422002103A817
:102E200000F0E8F82268124B9A421FD103F5E6330E
:102E300003A99A6D0F4842F400329A659A6D02F424
:102E400000320192019ADA6C42F00802DA64DB6C1B
:102E500003F008030293029B60230393022304936D
:102E60000323069307230793FDF7AAFB08B010BDC1
:102E700000440040000C004810B5014688B0002214
:102E80003620FDF75DFB3620FDF78EFB144B154C0D
:102E90009A6D42F010029A659B6D03F01003029345
:102EA00001A903A8029BFEF72DF8FEF707F80E4BC9
:102EB000236040F2E733E3600C4BB0FBF3F00138E2
:102EC0000023606020462361A360FEF761FC20B907
:102ED0002046FEF72BFB08B010BD0120FBE700BF2A
:102EE00000100240042900200010004040420F0062
:102EF0007047FEE7FEE7FEE7FEE770470120FDF7BB
:102F000045BC00000148FEF72DBB00BF042900208E
:102F10000F49D1F8883043F47003C1F888300D4B65
:102F20001A68002042F001021A6098601A6822F0C4
:102F3000A85222F410221A604FF48052DA601A6804
:102F400022F480221A6098614FF000638B60704712
:102F500000ED00E000100240DFF834D0002103E073
:102F60000C4B5B58435004310B480C4B42189A42AF
:102F7000F6D30B4A02E0002342F8043B094B9A4285
:102F8000F9D3FFF7C5FF00F011F8FFF771FEFEE778
:102F900000800120C0300008000000200800002050
:102FA0000800002044290020FEE7000070B50D4E07
:102FB0000D4CA41BA4100025A54209D10B4E0C4CAE
:102FC00000F020F8A41BA4100025A54205D170BD77
:102FD00056F8253098470135EEE756F825309847E2
:102FE0000135F2E7B8300008B8300008B830000802
:102FF000BC30000802440346934200D1704703F8F6
:10300000011BF9E7F8B500BFF8BC08BC9E46704745
:0C301000F8B500BFF8BC08BC9E46704735
:10301C0060300008E52B00080000000000000000F4
:10302C00000200005A300008052C000800000000C7
:10303C000000000000020000010402080010101043
:10304C0004101010021010100849444C4500546133
:10305C00736B32005461736B310000000000000090
:10306C000000010203040607080900000000010229
:10307C0003040000A0860100400D0300801A060026
:10308C0000350C0040420F0080841E0000093D00FA
:10309C0000127A000024F40000366E010048E801AA
:0430AC00006CDC02D6
:0830B00050D1FF7F0100000078
:0430B800B501000856
:0430BC009101000876
:0830C000AAAAAAAA00093D001A
:0400000508002F5967
:00000001FF
