:020000040800F2
:1000000000800120415D00087D5C00088B5C0008D9
:10001000915C0008975C00089D5C000800000000EF
:100020000000000000000000000000001134000883
:10003000A35C00080000000051360008B936000833
:10004000915D0008915D0008915D0008915D0008D8
:10005000915D0008915D0008B15C0008915D0008A9
:10006000915D0008915D0008915D0008915D0008B8
:10007000915D0008915D0008915D0008915D0008A8
:10008000915D0008915D0008915D0008915D000898
:10009000915D0008915D0008915D0008915D000888
:1000A000915D0008915D0008915D0008915D000878
:1000B000915D0008915D0008915D0008915D000868
:1000C000915D0008915D0008915D0008915D000858
:1000D000915D0008915D0008915D0008915D000848
:1000E000915D0008915D0008915D0008915D000838
:1000F000915D0008915D0008915D0008915D000828
:10010000915D0008915D0008915D0008915D000817
:10011000915D0008915D0008C15C0008915D0008D8
:10012000915D0008915D0008915D0008915D0008F7
:10013000915D0008915D0008915D0008915D0008E7
:10014000915D0008915D0008915D0008915D0008D7
:10015000915D0008915D0008915D0008915D0008C7
:10016000915D0008915D0008915D0008915D0008B7
:10017000915D0008915D0008915D0008000000009D
:08018000915D0008915D00088B
:1001900010B5054C237833B9044B13B10448AFF3C1
:1001A00000800123237010BD6C00002000000000BF
:1001B000606C000808B5034B1BB103490348AFF35B
:1001C000008008BD0000000070000020606C000886
:1001D00001F0FF01102A2BDB10F0070F08D010F8F8
:1001E000013B013A8B422DD010F0070F42B3F6D1FC
:1001F000F0B441EA012141EA014122F007047FF015
:1002000000070023F0E80256083C85EA010586EA6B
:10021000010685FA47F5A3FA87F586FA47F6A5FAA7
:1002200087F68EB9EED1F0BC01F0FF0102F00702B3
:1002300032B110F8013B013A83EA010313B1F8D15E
:100240000020704701387047002D06BF354603383F
:10025000073815F0010F07D1013015F4807F02BF78
:10026000013015F4C03F0130F0BC0138704700BFC9
:1002700053B94AB9002908BF00281CBF4FF0FF310D
:100280004FF0FF3000F07AB9ADF1080C6DE904CE03
:1002900000F006F8DDF804E0DDE9022304B0704761
:1002A0002DE9F0478C460D460446089E002B51D19F
:1002B0008A4217466DD9B2FA82FEBEF1000F0BD00A
:1002C000CEF1200C01FA0EF520FA0CFC02FA0EF722
:1002D0004CEA050C00FA0EF44FEA174A250CBCFB59
:1002E000FAF81FFA87F90AFB18CC45EA0C4508FB17
:1002F00009F3AB420AD9ED1908F1FF3280F02381EE
:10030000AB4240F22081A8F102083D44ED1AA4B2AC
:10031000B5FBFAF00AFB105544EA054400FB09F965
:10032000A14509D9E41900F1FF3380F00A81A14504
:1003300040F2078102383C44A4EB090440EA08403B
:100340000021002E61D024FA0EF400233460736083
:10035000BDE8F0878B4207D9002E54D0002186E8F3
:1003600021000846BDE8F087B3FA83F1002940F088
:100370008E80AB4202D3824200F2FA80841A65EB8F
:1003800003050120AC46002E3FD086E81010BDE8E2
:10039000F08712B90127B7FBF2F7B7FA87FEBEF173
:1003A000000F34D1EB1B3A0C1FFA87FC0121B3FB81
:1003B000F2F8250C02FB183345EA03450CFB08F361
:1003C000AB4207D9ED1908F1FF3002D2AB4200F27F
:1003D000D1808046ED1AA3B2B5FBF2F002FB1055B6
:1003E00043EA05440CFB00FCA44507D9E41900F1DD
:1003F000FF3302D2A44500F2B8801846A4EB0C04E7
:1004000040EA08409DE731463046BDE8F087CEF12E
:10041000200405FA0EF307FA0EF720FA04F83A0C56
:1004200025FA04F448EA0308B4FBF2F14FEA184550
:1004300002FB11441FFA87FC45EA044501FB0CF35B
:10044000AB4200FA0EF409D9ED1901F1FF3080F04A
:100450008A80AB4240F2878002393D44EB1A1FFA92
:1004600088F5B3FBF2F002FB103345EA034500FBCD
:100470000CF3AB4207D9ED1900F1FF386FD2AB4254
:100480006DD902383D44EB1A40EA01418FE7C1F1D2
:10049000200722FA07F88B4005FA01F448EA030323
:1004A00020FA07FE4FEA134CFD404EEA040EB5FB5E
:1004B000FCF94FEA1E440CFB19551FFA83F844EA75
:1004C000054509FB08F4AC4202FA01F200FA01FA10
:1004D00008D9ED1809F1FF3043D2AC4241D9A9F156
:1004E00002091D442D1B1FFA8EFEB5FBFCF00CFB10
:1004F00010554EEA054400FB08F8A04507D9E4185A
:1005000000F1FF3529D2A04527D902381C4440EA22
:100510000940A4EB0804A0FB02894C45C6464D46A1
:1005200015D312D056B1BAEB0E0364EB050404FAEE
:1005300007F7CB401F43CC40376074600021BDE813
:10054000F0871846F8E69046E0E6C245EAD2B8EBF6
:10055000020E69EB03050138E4E72846D7E7404679
:1005600091E78146BEE7014678E702383C4445E71B
:10057000084608E7A8F102083D442BE7704700BF92
:1005800080B582B000AF0023FB71032000F0D1F8EA
:10059000002005F01DFB0346002B02D00123FB7158
:1005A00001E005F0A9FAFB7918460837BD4680BD81
:1005B00080B400AF044B1B680133034A136000BFD3
:1005C000BD465DF8047B70472C29002080B400AF45
:1005D000034B1B681846BD465DF8047B704700BF9F
:1005E0002C29002080B485B000AF78607B6803F0D0
:1005F0000703FB600C4BDB68BB60BA684FF6FF0378
:100600001340BB60FB681A02BB68134343F0BF632F
:1006100043F40033BB60044ABB68D36000BF1437A7
:10062000BD465DF8047B704700ED00E080B400AF8C
:10063000044BDB681B0A03F007031846BD465DF850
:10064000047B704700ED00E080B483B000AF034648
:10065000FB71094997F907305B09FA7902F01F022B
:10066000012000FA02F241F8232000BF0C37BD46FA
:100670005DF8047B704700BF00E100E080B483B008
:1006800000AF03463960FB7197F90730002B0BDA96
:100690000D49FB7903F00F03043B3A68D2B2120113
:1006A000D2B20B441A7609E0084997F907303A6844
:1006B000D2B21201D2B20B4483F8002300BF0C3730
:1006C000BD465DF8047B704700ED00E000E100E00E
:1006D00080B489B000AFF860B9607A60FB6803F05D
:1006E0000703FB61FB69C3F10703042B28BF042345
:1006F000BB61FB690433062B02D9FB69033B00E0B5
:1007000000237B610122BB6902FA03F35A1EBB6816
:100710001A407B699A4001217B6901FA03F3591E53
:100720007B680B40134318462437BD465DF8047BB5
:10073000704780B582B000AF78607868FFF752FFED
:1007400000BF0837BD4680BD80B586B000AF034608
:10075000B9607A60FB7300237B61FFF767FF786104
:100760007A68B9687869FFF7B3FF024697F90F30E6
:1007700011461846FFF782FF00BF1837BD4680BDFF
:1007800080B582B000AF0346FB7197F90730184679
:10079000FFF75AFF00BF0837BD4680BD80B487B061
:1007A00000AF7860396000237B617FE13B681A68A5
:1007B00001217B6901FA03F31340FB60FB68002B06
:1007C00000F071813B685B68022B03D03B685B687B
:1007D000122B23D17B69DA087B68083253F8223068
:1007E0003B617B6903F007039B000F2202FA03F3CE
:1007F000DB433A6913403B613B681A697B6903F04C
:1008000007039B0002FA03F33A6913433B617B69D8
:10081000DA087B680832396943F822107B681B6864
:100820003B617B695B00032202FA03F3DB433A6915
:1008300013403B613B685B6803F003027B695B002C
:1008400002FA03F33A6913433B617B683A691A6021
:100850003B685B68012B0BD03B685B68022B07D0C1
:100860003B685B68112B03D03B685B68122B30D16F
:100870007B689B683B617B695B00032202FA03F3A0
:10088000DB433A6913403B613B68DA687B695B0094
:1008900002FA03F33A6913433B617B683A699A6051
:1008A0007B685B683B6101227B6902FA03F3DB43EF
:1008B0003A6913403B613B685B681B0903F0010226
:1008C0007B6902FA03F33A6913433B617B683A6937
:1008D0005A603B685B6803F00303032B18D17B6805
:1008E000DB6A3B6101227B6902FA03F3DB433A696D
:1008F00013403B613B685B68DB0803F001027B69E6
:1009000002FA03F33A6913433B617B683A69DA629E
:100910007B68DB683B617B695B00032202FA03F3BF
:10092000DB433A6913403B613B689A687B695B0033
:1009300002FA03F33A6913433B617B683A69DA6070
:100940003B685B6803F08053002B00F0AC805E4A8C
:100950005D4B1B6E43F0010313665B4B1B6E03F094
:100960000103BB60BB68594A7B699B08023352F89C
:1009700023303B617B6903F003039B000F2202FAE3
:1009800003F3DB433A6913403B617B68B3F1904F5B
:1009900025D07B684E4A93421FD07B684D4A9342D4
:1009A00019D07B684C4A934213D07B684B4A9342E0
:1009B0000DD07B684A4A934207D07B68494A9342EC
:1009C00001D106230CE007230AE0052308E00423F5
:1009D00006E0032304E0022302E0012300E00023F9
:1009E0007A6902F00302920093403A6913433B6133
:1009F00036497B699B0802333A6941F823203A4B18
:100A00001B683B61FB68DB433A6913403B613B6811
:100A10005B6803F48033002B03D03A69FB6813430F
:100A20003B61314A3B6913602F4B5B683B61FB685C
:100A3000DB433A6913403B613B685B6803F4003376
:100A4000002B03D03A69FB6813433B61264A3B699C
:100A50005360254B9B683B61FB68DB433A6913405D
:100A60003B613B685B6803F48013002B03D03A6959
:100A7000FB6813433B611C4A3B6993601A4BDB687C
:100A80003B61FB68DB433A6913403B613B685B6851
:100A900003F40013002B03D03A69FB6813433B6156
:100AA000114A3B69D3607B6901337B613B681A68FB
:100AB0007B6922FA03F3002B7FF478AE00BF1C376A
:100AC000BD465DF8047B7047001002400000014005
:100AD0000004004800080048000C004800100048CE
:100AE00000140048001800480004014080B483B09E
:100AF00000AF78600B467B8013467B707B78002BC1
:100B000003D07A887B689A6102E07A887B689A626F
:100B100000BF0C37BD465DF8047B704780B582B0DE
:100B200000AF0346FB80084B5A69FB881340002B3B
:100B300006D0054AFB885361FB88184600F006F88A
:100B400000BF0837BD4680BD0004014080B483B0BB
:100B500000AF0346FB8000BF0C37BD465DF8047B49
:100B60007047000080B400AF044B1B6803F4C063FF
:100B70001846BD465DF8047B704700BF007000401A
:100B800080B485B000AF78607B68B3F5007F30D16A
:100B9000234B1B6803F4C063B3F5007F38D0204AB1
:100BA0001F4B1B6823F4C06343F4007313601D4B99
:100BB0001B68322202FB03F31B4AA2FB03239B0C9C
:100BC0000133FB6002E0FB68013BFB60144B5B6997
:100BD00003F48063B3F5806F02D1FB68002BF2D180
:100BE0000F4B5B6903F48063B3F5806F10D103236F
:100BF0000FE00B4B1B6803F4C063B3F5806F07D0A5
:100C0000074A074B1B6823F4C06343F480631360F7
:100C1000002318461437BD465DF8047B704700BFBB
:100C2000007000400400002083DE1B4380B588B0C4
:100C300000AF78607B68002B01D1012353E3A34B05
:100C40009B6803F00C03BB61A04BDB6803F003035C
:100C50007B617B681B6803F01003002B00F0DF80D2
:100C6000BB69002B07D0BB690C2B40F086807B69E9
:100C7000012B40F08280954B1B6803F00203002B90
:100C800005D07B689B69002B01D101232BE37B6896
:100C90001A6A8E4B1B6803F00803002B04D08B4BA1
:100CA0001B6803F0F00305E0884BD3F894301B0970
:100CB00003F0F0039A4223D97B681B6A184600F0C0
:100CC000FDFC0346002B01D001230CE37F4A7F4B40
:100CD0001B6843F0080313607C497C4B1B6823F0BE
:100CE000F0027B681B6A13430B607849774B5B68A3
:100CF00023F47F427B68DB691B0213434B6022E0D5
:100D0000724A724B1B6843F0080313606F496F4BC4
:100D10001B6823F0F0027B681B6A13430B606B496E
:100D20006A4B5B6823F47F427B68DB691B021343D9
:100D30004B607B681B6A184600F0C0FC0346002B22
:100D400001D00123CFE200F0B3FB01465F4B9B686B
:100D50001B0903F00F035E4AD35C03F01F0321FA63
:100D600003F35C4A1360002004F032FF0346FB7378
:100D7000FB7B002B52D0FB7BB5E27B689B69002B91
:100D800032D0524A514B1B6843F001031360FFF706
:100D90001DFC386108E0FFF719FC02463B69D31AD5
:100DA000022B01D903239EE2484B1B6803F0020388
:100DB000002BF0D0454A454B1B6843F008031360F5
:100DC0004249424B1B6823F0F0027B681B6A1343C5
:100DD0000B603E493D4B5B6823F47F427B68DB69D7
:100DE0001B0213434B601AE0384A384B1B6823F050
:100DF00001031360FFF7EAFB386108E0FFF7E6FB49
:100E000002463B69D31A022B01D903236BE22F4B15
:100E10001B6803F00203002BF0D100E000BF7B68E9
:100E20001B6803F00103002B72D0BB69082B05D0AF
:100E3000BB690C2B0ED17B69032B0BD1234B1B6899
:100E400003F40033002B62D07B685B68002B5ED11B
:100E5000012348E27B685B68B3F5803F06D11B4AFB
:100E60001A4B1B6843F4803313601DE07B685B689A
:100E7000B3F5A02F0CD1154A144B1B6843F4802303
:100E80001360124A114B1B6843F4803313600BE06C
:100E90000E4A0E4B1B6823F4803313600B4A0B4B36
:100EA0001B6823F4802313607B685B68002B1AD0D7
:100EB000FFF78CFB38610FE0FFF788FB02463B69C8
:100EC000D31A642B08D903230DE200BF001002409F
:100ED000B86C000804000020AE4B1B6803F400331C
:100EE000002BE9D014E0FFF771FB386108E0FFF751
:100EF0006DFB02463B69D31A642B01D90323F2E14F
:100F0000A44B1B6803F40033002BF0D100E000BFBA
:100F10007B681B6803F00203002B60D0BB69042BC5
:100F200005D0BB690C2B19D17B69022B16D1994BCB
:100F30001B6803F48063002B05D07B68DB68002B03
:100F400001D10123CFE19349924B5B6823F0F85222
:100F50007B681B691B0613434B6040E07B68DB68C2
:100F6000002B23D08B4A8B4B1B6843F48073136098
:100F7000FFF72CFB386108E0FFF728FB02463B69CE
:100F8000D31A022B01D90323ADE1824B1B6803F472
:100F90008063002BF0D07F497E4B5B6823F0F852D2
:100FA0007B681B691B0613434B6018E0794A794B39
:100FB0001B6823F480731360FFF708FB386108E0B7
:100FC000FFF704FB02463B69D31A022B01D9032326
:100FD00089E1704B1B6803F48063002BF0D17B68C0
:100FE0001B6803F00803002B3CD07B685B69002B77
:100FF0001CD0684A674BD3F8943043F00103C2F821
:101000009430FFF7E3FA386108E0FFF7DFFA0246B1
:101010003B69D31A022B01D9032364E15D4BD3F85A
:10102000943003F00203002BEFD01BE0594A594BD8
:10103000D3F8943023F00103C2F89430FFF7C6FAD6
:10104000386108E0FFF7C2FA02463B69D31A022B67
:1010500001D9032347E14F4BD3F8943003F0020347
:10106000002BEFD17B681B6803F00403002B00F01A
:10107000A5800023FB77474B9B6D03F08053002B2B
:101080000DD1444A434B9B6D43F080539365414BD4
:101090009B6D03F08053BB60BB680123FB773E4B25
:1010A0001B6803F48073002B18D13B4A3A4B1B6832
:1010B00043F480731360FFF789FA386108E0FFF7A3
:1010C00085FA02463B69D31A022B01D903230AE1B0
:1010D000314B1B6803F48073002BF0D07B689B6856
:1010E000012B08D12B4A2B4BD3F8903043F001034E
:1010F000C2F8903024E07B689B68052B10D1254A0C
:10110000244BD3F8903043F00403C2F89030214AC6
:10111000204BD3F8903043F00103C2F890300FE039
:101120001C4A1C4BD3F8903023F00103C2F89030D6
:10113000184A184BD3F8903023F00403C2F89030CB
:101140007B689B68002B16D0FFF740FA38610AE0F5
:10115000FFF73CFA02463B69D31A41F288329342C8
:1011600001D90323BFE00B4BD3F8903003F0020307
:10117000002BEDD019E0FFF729FA38610EE0FFF7F8
:1011800025FA02463B69D31A41F28832934205D9C7
:101190000323A8E00010024000700040544BD3F835
:1011A000903003F00203002BE9D1FB7F012B05D126
:1011B0004F4A4F4B9B6D23F0805393657B689B6A2E
:1011C000002B00F08F80BB690C2B00F089807B68BE
:1011D0009B6A022B56D1464A454B1B6823F080730D
:1011E0001360FFF7F3F9386108E0FFF7EFF9024603
:1011F0003B69D31A022B01D9032374E03C4B1B68D3
:1012000003F00073002BF0D139497B681B6B013B65
:101210001A017B685B6B1B021A437B689B6B1B0983
:101220005B041A437B68DB6A1A437B68DB6B5B08F1
:10123000013B5B051A437B681B6C5B08013B5B064B
:101240001343CB602A4A2A4B1B6843F08073136018
:10125000274A274BDB6843F08073D360FFF7B6F96A
:10126000386108E0FFF7B2F902463B69D31A022B56
:1012700001D9032337E01E4B1B6803F00073002BDA
:10128000F0D02FE01A4A1A4B1B6823F080731360CA
:10129000174B1B6803F02053002B05D1144A144B45
:1012A000DB6823F00303D360114A114BDB6823F0A2
:1012B000887323F48033D360FFF788F9386108E03E
:1012C000FFF784F902463B69D31A022B01D90323A5
:1012D00009E0074B1B6803F00073002BF0D101E01D
:1012E000012300E0002318462037BD4680BD00BF23
:1012F0000010024080B584B000AF786039607B6830
:10130000002B01D10123C6E0654B1B6803F00702E7
:101310003B689A4210D26249614B1B6823F0070276
:101320003B6813430B605E4B1B6803F007023B688E
:101330009A4201D00123AEE07B681B6803F00103F1
:10134000002B4CD07B685B68032B07D1554B1B6887
:1013500003F00073002B21D101239CE07B685B68C4
:10136000022B07D14F4B1B6803F40033002B15D120
:10137000012390E07B685B68002B07D1494B1B6819
:1013800003F00203002B09D1012384E0454B1B68C5
:1013900003F48063002B01D101237CE04149414BE0
:1013A0009B6823F003027B685B6813438B60FFF745
:1013B0000DF9F8600AE0FFF709F90246FB68D31A55
:1013C00041F28832934201D9032364E0354B9B6894
:1013D00003F00C027B685B689B009A42EBD17B6850
:1013E0001B6803F00203002B08D02E492D4B9B688D
:1013F00023F0F0027B689B6813438B60284B1B68CB
:1014000003F007023B689A4210D92549244B1B6818
:1014100023F007023B6813430B60214B1B6803F06A
:1014200007023B689A4201D0012334E07B681B68C5
:1014300003F00403002B08D01A491A4B9B6823F4CD
:10144000E0627B68DB6813438B607B681B6803F09A
:101450000803002B09D01349124B9B6823F46052F8
:101460007B681B69DB0013438B6000F021F80146A9
:101470000C4B9B681B0903F00F030B4AD35C03F072
:101480001F0321FA03F3094A1360002004F0A0FBB4
:101490000346FB72FB7A18461037BD4680BD00BF7D
:1014A0000020024000100240B86C00080400002038
:1014B00080B489B000AF0023FB610023BB61464BC1
:1014C0009B6803F00C033B61434BDB6803F00303B1
:1014D000FB603B69002B05D03B690C2B21D1FB68DD
:1014E000012B1ED13C4B1B6803F00803002B07D1D6
:1014F000394BD3F894301B0A03F00F03FB6105E06E
:10150000354B1B681B0903F00F03FB61334AFB6972
:1015100052F82330FB613B69002B0DD1FB69BB61A5
:101520000AE03B69042B02D12D4BBB6104E03B690F
:10153000082B01D12B4BBB613B690C2B45D1264BB2
:10154000DB6803F00303BB60234BDB681B0903F07C
:10155000070301337B60BB68022B02D0032B0DD045
:1015600019E01F4A7B68B2FBF3F31B4AD268120AE8
:1015700002F07F0202FB03F37B6119E0194A7B68EA
:10158000B2FBF3F3144AD268120A02F07F0202FBA4
:1015900003F37B610CE0FA697B68B2FBF3F30E4A5C
:1015A000D268120A02F07F0202FB03F37B6100BFE4
:1015B000094BDB685B0E03F0030301335B003B6008
:1015C0007A693B68B2FBF3F3BB61BB691846243709
:1015D000BD465DF8047B704700100240D06C0008E7
:1015E0000024F40000127A0080B400AF034B1B68A3
:1015F0001846BD465DF8047B704700BF040000201C
:1016000080B500AFFFF7F0FF0146064B9B681B0A51
:1016100003F00703044AD35C03F01F0321FA03F32A
:10162000184680BD00100240C86C000880B500AFAD
:10163000FFF7DAFF0146064B9B68DB0A03F007035E
:10164000044AD35C03F01F0321FA03F3184680BD5C
:1016500000100240C86C000880B483B000AF78600E
:1016600039607B680F221A60124B9B6803F00302FB
:101670007B685A600F4B9B6803F0F0027B689A60AE
:101680000C4B9B6803F4E0627B68DA60094B9B6853
:10169000DB0803F4E0627B681A61074B1B6803F008
:1016A00007023B681A6000BF0C37BD465DF8047B3B
:1016B000704700BF001002400020024080B586B095
:1016C00000AF786000233B612A4B9B6D03F0805391
:1016D000002B03D0FFF746FA786114E0254A254B2A
:1016E0009B6D43F080539365224B9B6D03F08053B9
:1016F000FB60FB68FFF736FA78611E4A1D4B9B6D55
:1017000023F0805393657B69B3F5007F0BD17B6831
:10171000802B19D97B68A02B02D902233B6113E0EF
:1017200001233B6110E07B68802B02D903233B61DE
:101730000AE07B68802B02D102233B6104E07B68D6
:10174000702B01D101233B610B490B4B1B6823F02C
:1017500007023B6913430B60074B1B6803F007024A
:101760003B699A4201D0012300E000231846183754
:10177000BD4680BD001002400020024080B586B00A
:1017800000AF78600023FB740023BB747B681B6888
:1017900003F40063002B3FD07B685B6EB3F5800FD2
:1017A0001CD0B3F5800F02D8002B0ED01FE0B3F58C
:1017B000000F03D0B3F5400F1CD018E0854A854BCD
:1017C000DB6843F48033D36015E07B680433002189
:1017D000184600F0B9FA0346FB740CE07B6820332E
:1017E0000021184600F0A0FB0346FB7403E0012330
:1017F000FB7400E000BFFB7C002B0BD17549754BDF
:10180000D3F8883023F440027B685B6E1343C1F841
:10181000883001E0FB7CBB747B681B6803F4805359
:10182000002B3FD07B689B6EB3F1807F1CD0B3F15F
:10183000807F02D8002B0ED01FE0B3F1007F03D0D1
:10184000B3F1407F1CD018E0624A624BDB6843F47E
:101850008033D36015E07B6804330021184600F024
:1018600073FA0346FB740CE07B68203300211846B2
:1018700000F05AFB0346FB7403E00123FB7400E015
:1018800000BFFB7C002B0BD15249524BD3F8883060
:1018900023F040727B689B6E1343C1F8883001E0EF
:1018A000FB7CBB747B681B6803F40033002B00F0E7
:1018B000A08000237B74474B9B6D03F08053002B6B
:1018C00001D1012300E00023002B0DD0414A414B00
:1018D0009B6D43F0805393653E4B9B6D03F08053AB
:1018E000BB60BB6801237B743B4A3B4B1B6843F4E2
:1018F00080731360FEF76AFEF86009E0FEF766FE8B
:101900000246FB68D31A022B02D90323FB7405E0BD
:10191000314B1B6803F48073002BEFD0FB7C002B52
:101920005CD12C4BD3F8903003F440737B617B691E
:10193000002B1FD07B68D3F884207B699A4219D092
:10194000244BD3F8903023F440737B61214A214B20
:10195000D3F8903043F48033C2F890301D4A1D4BC9
:10196000D3F8903023F48033C2F89030194A7B6961
:10197000C2F890307B6903F00103002B16D0FEF70C
:1019800025FEF8600BE0FEF721FE0246FB68D31A45
:1019900041F28832934202D90323FB7406E00D4BD7
:1019A000D3F8903003F00203002BECD0FB7C002B2B
:1019B0000CD10849074BD3F8903023F440727B6870
:1019C000D3F884301343C1F8903009E0FB7CBB743A
:1019D00006E000BF0010024000700040FB7CBB74BA
:1019E0007B7C012B05D19E4A9D4B9B6D23F0805340
:1019F00093657B681B6803F00103002B0AD09849AC
:101A0000974BD3F8883023F003027B689B6B13431A
:101A1000C1F888307B681B6803F00203002B0AD0F2
:101A20008F498F4BD3F8883023F00C027B68DB6B37
:101A30001343C1F888307B681B6803F00403002B54
:101A40000AD08749864BD3F8883023F030027B6870
:101A50001B6C1343C1F888307B681B6803F00803D4
:101A6000002B0AD07E497E4BD3F8883023F0C00289
:101A70007B685B6C1343C1F888307B681B6803F09C
:101A80001003002B0AD07649754BD3F8883023F425
:101A900040727B689B6C1343C1F888307B681B687D
:101AA00003F02003002B0AD06D496D4BD3F888302A
:101AB00023F440627B68DB6C1343C1F888307B6899
:101AC0001B6803F40073002B0AD06549644BD3F8FC
:101AD000883023F440227B68DB6D1343C1F88830E3
:101AE0007B681B6803F48063002B0AD05C495C4B65
:101AF000D3F8883023F440127B681B6E1343C1F87F
:101B000088307B681B6803F04003002B0AD05449DF
:101B1000534BD3F8883023F440527B681B6D13433A
:101B2000C1F888307B681B6803F08003002B0AD063
:101B30004B494B4BD3F8883023F440427B685B6DB4
:101B40001343C1F888307B681B6803F48073002B53
:101B50000AD04349424BD3F8883023F440327B68A3
:101B60009B6D1343C1F888307B681B6803F40053F6
:101B7000002B28D03A493A4BD3F8883023F0406202
:101B80007B68DB6E1343C1F888307B68DB6EB3F192
:101B9000006F06D1324A324BDB6843F48013D360C6
:101BA00011E07B68DB6EB3F1806F0CD17B6804338E
:101BB0000121184600F0C8F80346FB74FB7C002B9B
:101BC00001D0FB7CBB747B681B6803F40023002BF3
:101BD00028D02349224BD3F8883023F040627B6819
:101BE0001B6F1343C1F888307B681B6FB3F1006F24
:101BF00006D11B4A1A4BDB6843F48013D36011E013
:101C00007B681B6FB3F1806F0CD17B6804330121BB
:101C1000184600F099F80346FB74FB7C002B01D0BA
:101C2000FB7CBB747B681B6803F48023002B2BD0E8
:101C30000B490B4BD3F8883023F040627B685B6F15
:101C40001343C1F888307B685B6FB3F1006F09D133
:101C5000034A034BDB6843F48013D36014E000BFF6
:101C6000001002407B685B6FB3F1806F0CD17B6822
:101C700004330121184600F067F80346FB74FB7C2F
:101C8000002B01D0FB7CBB747B681B6803F4804392
:101C9000002B2FD02B492B4BD3F8883023F0405208
:101CA0007B689B6F1343C1F888307B689B6FB3F1EF
:101CB000805F0DD17B6804330221184600F044F8A0
:101CC0000346FB74FB7C002B14D0FB7CBB7411E03F
:101CD0007B689B6FB3F1005F0CD17B6820330221DE
:101CE000184600F021F90346FB74FB7C002B01D061
:101CF000FB7CBB747B681B6803F40043002B0AD099
:101D00001049104BD3F8883023F080427B68DB6F9A
:101D10001343C1F888307B681B6803F48033002BC1
:101D20000BD00849074BD3F8883023F000427B687A
:101D3000D3F880301343C1F88830BB7C184618377D
:101D4000BD4680BD0010024080B584B000AF786011
:101D500039600023FB73734BDB6803F00303002B34
:101D600018D0704BDB6803F003027B681B689A4253
:101D70000DD17B681B68002B09D06A4BDB681B09FF
:101D800003F007035A1C7B685B689A4244D0012326
:101D9000FB7341E07B681B68022B0CD0032B13D034
:101DA000012B20D15F4B1B6803F00203002B1DD1D8
:101DB0000123FB731AE05B4B1B6803F48063002B69
:101DC00016D10123FB7313E0564B1B6803F4003359
:101DD000002B0FD1534B1B6803F48023002B09D138
:101DE0000123FB7306E00123FB7304E000BF02E064
:101DF00000BF00E000BFFB7B002B0DD14948494BE1
:101E0000DB6823F073027B6819687B685B68013BC1
:101E10001B010B431343C360FB7B002B7DD1414A65
:101E2000404B1B6823F080631360FEF7CFFBB86064
:101E300009E0FEF7CBFB0246BB68D31A022B02D99E
:101E40000323FB7305E0374B1B6803F00063002B93
:101E5000EFD1FB7B002B60D13B68002B11D13148C7
:101E6000304B1B6923F41F3323F440737A68926864
:101E700011027A68D268120952040A4313430361BB
:101E800027E03B68012B12D12648264B1B6923F41F
:101E9000C00323F4FE437A68926811027A681269DB
:101EA0005208013A52050A431343036111E01D48E9
:101EB0001C4B1B6923F0C06323F4FE437A689268CD
:101EC00011027A6852695208013A52060A431343D2
:101ED0000361144A134B1B6843F080631360FEF7E1
:101EE00075FBB86009E0FEF771FB0246BB68D31AC8
:101EF000022B02D90323FB7305E00A4B1B6803F096
:101F00000063002BEFD0FB7B002B06D10549054B6E
:101F10001A697B689B6913430B61FB7B184610377A
:101F2000BD4680BD0010024080B584B000AF78602F
:101F300039600023FB73684BDB6803F00303002B5D
:101F400018D0654BDB6803F003027B681B689A427C
:101F50000DD17B681B68002B09D05F4BDB681B0928
:101F600003F007035A1C7B685B689A4244D0012344
:101F7000FB7341E07B681B68022B0CD0032B13D052
:101F8000012B20D1544B1B6803F00203002B1DD101
:101F90000123FB731AE0504B1B6803F48063002B92
:101FA00016D10123FB7313E04B4B1B6803F4003382
:101FB000002B0FD1484B1B6803F48023002B09D161
:101FC0000123FB7306E00123FB7304E000BF02E082
:101FD00000BF00E000BFFB7B002B0DD13E483E4B15
:101FE000DB6823F073027B6819687B685B68013BE0
:101FF0001B010B431343C360FB7B002B67D1364AA5
:10200000354B1B6823F080531360FEF7DFFAB8608E
:1020100009E0FEF7DBFA0246BB68D31A022B02D9AD
:102020000323FB7305E02C4B1B6803F00053002BCC
:10203000EFD1FB7B002B4AD13B68002B11D1264806
:10204000254B5B6923F41F3323F440737A6892684D
:1020500011027A68D268120952040A431343436199
:1020600011E01D481C4B5B6923F0C06323F4FE4361
:102070007A68926811027A6812695208013A520627
:102080000A4313434361144A134B1B6843F08053C4
:102090001360FEF79BFAB86009E0FEF797FA024674
:1020A000BB68D31A022B02D90323FB7305E00A4B4A
:1020B0001B6803F00053002BEFD0FB7B002B06D1F5
:1020C0000549054B5A697B685B6913434B61FB7B90
:1020D00018461037BD4680BD0010024080B582B062
:1020E00000AF78607B68002B01D101231DE07B6885
:1020F00093F83D30DBB2002B06D17B68002283F8D9
:102100003C20786800F015F87B68022283F83D20B7
:102110007B681A687B6804331946104600F088F91A
:102120007B68012283F83D20002318460837BD460E
:1021300080BD80B483B000AF786000BF0C37BD466F
:102140005DF8047B7047000080B483B000AF786016
:102150007B681B687A681268D26842F00102DA6014
:102160007B681B689A680D4B1340062B0FD07B6869
:102170001B689A68094B1340B3F5803F07D07B6812
:102180001B687A681268126842F001021A60002324
:1021900018460C37BD465DF8047B70470700010008
:1021A00080B582B000AF78607B681B681B6903F064
:1021B0000203022B22D17B681B68DB6803F0020359
:1021C000022B1BD17B681B686FF002021A617B68CF
:1021D00001221A777B681B689B6903F00303002BBD
:1021E00003D0786800F005F905E0786800F0F7F8AA
:1021F000786800F008F97B6800221A777B681B6812
:102200001B6903F00403042B22D17B681B68DB6885
:1022100003F00403042B1BD17B681B686FF00402DE
:102220001A617B6802221A777B681B689B6903F43A
:102230004073002B03D0786800F0DBF805E0786885
:1022400000F0CDF8786800F0DEF87B6800221A779D
:102250007B681B681B6903F00803082B22D17B688D
:102260001B68DB6803F00803082B1BD17B681B6825
:102270006FF008021A617B6804221A777B681B687A
:10228000DB6903F00303002B03D0786800F0B1F89A
:1022900005E0786800F0A3F8786800F0B4F87B688F
:1022A00000221A777B681B681B6903F01003102B50
:1022B00022D17B681B68DB6803F01003102B1BD155
:1022C0007B681B686FF010021A617B6808221A771E
:1022D0007B681B68DB6903F44073002B03D07868CC
:1022E00000F087F805E0786800F079F8786800F089
:1022F0008AF87B6800221A777B681B681B6903F0E9
:102300000103012B0ED17B681B68DB6803F001031E
:10231000012B07D17B681B686FF001021A61786896
:1023200003F0D0FB7B681B681B6903F08003802BE4
:102330000ED17B681B68DB6803F08003802B07D11C
:102340007B681B686FF080021A61786800F014F9EE
:102350007B681B681B6903F48073B3F5807F0ED123
:102360007B681B68DB6803F08003802B07D17B68E8
:102370001B686FF480721A61786800F007F97B6857
:102380001B681B6903F04003402B0ED17B681B6860
:10239000DB6803F04003402B07D17B681B686FF0BC
:1023A00040021A61786800F038F87B681B681B6986
:1023B00003F02003202B0ED17B681B68DB6803F041
:1023C0002003202B07D17B681B686FF020021A6165
:1023D000786800F0C7F800BF0837BD4680BD80B4FC
:1023E00083B000AF786000BF0C37BD465DF8047B5A
:1023F000704780B483B000AF786000BF0C37BD4633
:102400005DF8047B704780B483B000AF786000BF94
:102410000C37BD465DF8047B704780B483B000AFD5
:10242000786000BF0C37BD465DF8047B7047000044
:1024300080B485B000AF786039607B681B68FB6052
:102440007B68404A934213D07B68B3F1804F0FD032
:102450007B683D4A93420BD07B683C4A934207D04D
:102460007B683B4A934203D07B683A4A934208D147
:10247000FB6823F07003FB603B685B68FA681343FA
:10248000FB607B682F4A93421FD07B68B3F1804F7B
:102490001BD07B682C4A934217D07B682B4A93420F
:1024A00013D07B682A4A93420FD07B68294A934213
:1024B0000BD07B68284A934207D07B68274A934217
:1024C00003D07B68264A934208D1FB6823F440730B
:1024D000FB603B68DB68FA681343FB60FB6823F032
:1024E00080023B685B691343FB607B68FA681A6093
:1024F0003B689A687B68DA623B681A687B689A6214
:102500007B68104A93420FD07B68124A93420BD0EB
:102510007B68114A934207D07B68104A934203D0EC
:102520007B680F4A934203D13B681A697B681A6340
:102530007B6801225A6100BF1437BD465DF8047BF9
:10254000704700BF002C014000040040000800401C
:10255000000C0040003401400040014000440140B4
:102560000048014080B483B000AF786000BF0C37F2
:10257000BD465DF8047B704780B483B000AF7860DF
:1025800000BF0C37BD465DF8047B704780B483B054
:1025900000AF786000BF0C37BD465DF8047B704724
:1025A00080B582B000AF78607B68002B01D1012339
:1025B00043E07B6893F87130DBB2002B06D17B6877
:1025C000002283F87020786803F0BEFA7B6824222A
:1025D00083F871207B681B687A681268126822F0A1
:1025E00001021A60786800F0B9F80346012B01D1A6
:1025F000012322E07B685B6A002B02D0786800F040
:10260000EBFB7B681B687A681268526822F4904280
:102610005A607B681B687A681268926822F02A0206
:102620009A607B681B687A681268126842F001023F
:102630001A60786800F072FC034618460837BD46F9
:1026400080BD80B588B002AFF860B9603B601346CA
:10265000FB8000237B61FB6893F87130DBB2202B99
:1026600077D1BB68002B02D0FB88002B01D101235E
:1026700070E0FB6893F87030012B01D1022369E010
:10268000FB68012283F87020FB6800225A67FB6810
:10269000212283F87120FDF799FF7861FB68FA88A1
:1026A000A3F85020FB68FA88A3F8522034E03B6876
:1026B00000937B6900228021F86800F078FC0346D3
:1026C000002B01D0032345E0FB689B68B3F5805FD6
:1026D00011D1FB681B69002B0DD1BB683B61FB6806
:1026E0001B683A691288C2F3080292B21A85BB6865
:1026F0000233BB6007E0FB681A68BB68591CB9600D
:102700001B789BB21385FB68B3F852309BB2013B38
:102710009AB2FB68A3F85220FB68B3F852309BB220
:10272000002BC4D13B6800937B6900224021F868EC
:1027300000F03DFC0346002B01D003230AE0FB68B8
:10274000202283F87120FB68002283F87020002388
:1027500000E0022318461837BD4680BD2DE9B0437E
:1027600088B000AF78600023FB611023FB76002364
:102770007B8100237B610023FB740023FB607B686B
:102780009A687B681B691A437B685B691A437B689C
:10279000DB691343FB617B681A687B681B681968F7
:1027A000AA4B0B40F9690B4313607B681B687A687E
:1027B0001268526822F440517A68D2680A435A601B
:1027C0007B689B69FB617B681B68A14A934204D0CC
:1027D0007B681B6AFA691343FB617B681B687A6834
:1027E0001268926822F43061FA690A439A607B6841
:1027F0001B68984A934221D1974BD3F8883003F055
:102800000303032B16D801A252F823F01D28000859
:1028100029280008232800082F2800080123FB7618
:10282000E4E00223FB76E1E00423FB76DEE008230C
:10283000FB76DBE01023FB7600BFD7E07B681B68EC
:10284000864A934234D1844BD3F8883003F00C038A
:102850000C2B29D801A252F823F000BF91280008C0
:10286000A9280008A9280008A92800089D28000810
:10287000A9280008A9280008A92800089728000806
:10288000A9280008A9280008A9280008A3280008EA
:102890000023FB76AAE00223FB76A7E00423FB7665
:1028A000A4E00823FB76A1E01023FB7600BF9DE0A7
:1028B0007B681B686A4A934220D1674BD3F8883003
:1028C00003F03003102B0FD0102B02D8002B05D0B3
:1028D00010E0202B05D0302B09D00BE00023FB7635
:1028E00084E00223FB7681E00423FB767EE008236C
:1028F000FB767BE01023FB7600BF77E07B681B68EC
:10290000584A934220D1544BD3F8883003F0C00387
:10291000402B0FD0402B02D8002B05D010E0802B8D
:1029200005D0C02B09D00BE00023FB765EE002232C
:10293000FB765BE00423FB7658E00823FB7655E04A
:102940001023FB7600BF51E07B681B68464A934228
:1029500024D1414BD3F8883003F44073B3F5807F22
:1029600012D0B3F5807F02D8002B07D012E0B3F568
:10297000007F06D0B3F5407F09D00BE00023FB7643
:1029800034E00223FB7631E00423FB762EE00823BB
:10299000FB762BE01023FB7600BF27E07B681B68EB
:1029A0002B4A934223D12C4BD3F8883003F4406355
:1029B000B3F5806F12D0B3F5806F02D8002B07D02B
:1029C00012E0B3F5006F06D0B3F5406F09D00BE00D
:1029D0000023FB760AE00223FB7607E00423FB7664
:1029E00004E00823FB7601E01023FB7600BF7B6840
:1029F0001B68174A934240F0EE80FB7E082B37D8C5
:102A000001A252F823F000BF2D2A0008712A000805
:102A1000352A0008712A00083B2A0008712A00089C
:102A2000712A0008712A0008432A0008FEF7E8FD11
:102A3000F86020E00D4BFB601DE0FEF739FDF8600B
:102A400019E04FF40043FB6015E000BFF369FFEFAE
:102A50000080004000380140001002400044004067
:102A600000480040004C0040005000400024F400AA
:102A70000123FB7400BFFB68002B00F09E817B6884
:102A80005A6813465B001A44FB689A4205D87B6873
:102A90005B681A03FB689A4202D20123FB748CE143
:102AA000FB7E082B00F2848001A252F823F000BFC5
:102AB000D52A0008B12B0008152B0008B12B0008FF
:102AC000492B0008B12B0008B12B0008B12B0008DE
:102AD000872B0008FEF794FD03464FF000044FEAF1
:102AE000042949EA13694FEA03287B685B685B089D
:102AF0004FF0000418EB030049EB04017B685B68AE
:102B00004FF000041A462346FDF7B2FB03460C467D
:102B10007B6150E07B685B685B084FF00004AD4967
:102B20004FF0000213EB010844EB0209404649460E
:102B30007B685B684FF000041A462346FDF798FB5C
:102B400003460C467B6136E0FEF7B2FC03461A46AC
:102B50004FF000031D0245EA126514027B685B68B2
:102B60005B081A464FF00003A01845EB03017B6891
:102B70005B684FF000041A462346FDF779FB0346D5
:102B80000C467B6117E07B685B685B084FF00004D4
:102B900013F5000044F100017B685B684FF000040E
:102BA0001A462346FDF764FB03460C467B6102E0B0
:102BB0000123FB7400BF7B69B3F5407F08D37B69B9
:102BC000B3F5801F04D27B681B687A69DA60F4E091
:102BD0000123FB74F1E07B68DB69B3F5004F7ED124
:102BE000FB7E082B5BD801A252F823F0112C0008C1
:102BF0002F2C00084D2C00089F2C0008692C000881
:102C00009F2C00089F2C00089F2C0008872C000890
:102C1000FEF7F6FC03465A007B685B685B081A44C3
:102C20007B685B68B2FBF3F39BB27B613AE0FEF733
:102C3000FDFC03465A007B685B685B081A447B68AE
:102C40005B68B2FBF3F39BB27B612BE07B685B6854
:102C50005B0803F1F47303F590437A685268B3FBA1
:102C6000F2F39BB27B611DE0FEF722FC03465A00A3
:102C70007B685B685B081A447B685B68B2FBF3F3B4
:102C80009BB27B610EE07B685B685B0803F580327A
:102C90007B685B68B2FBF3F39BB27B6102E00123CC
:102CA000FB7400BF7B690F2B16D97B69B3F5803F9E
:102CB00012D27B699BB223F00F037B817B695B0897
:102CC0009BB203F007039AB27B8913437B817B6835
:102CD0001B687A89DA6070E00123FB746DE0FB7E8B
:102CE000082B59D801A252F823F000BF112D00087B
:102CF0002D2D0008492D0008992D0008652D00088C
:102D0000992D0008992D0008992D0008812D0008A3
:102D1000FEF776FC02467B685B685B081A447B68BA
:102D20005B68B2FBF3F39BB27B6138E0FEF77EFC9D
:102D300002467B685B685B081A447B685B68B2FB91
:102D4000F3F39BB27B612AE07B685B685B0803F569
:102D5000740303F510537A685268B3FBF2F39BB225
:102D60007B611CE0FEF7A4FB02467B685B685B08A6
:102D70001A447B685B68B2FBF3F39BB27B610EE0A5
:102D80007B685B685B0803F500427B685B68B2FBAD
:102D9000F3F39BB27B6102E00123FB7400BF7B690C
:102DA0000F2B08D97B69B3F5803F04D27B681B6881
:102DB0007A69DA6001E00123FB747B6800221A66FD
:102DC0007B6800225A66FB7C18462037BD46BDE86A
:102DD000B08300BF000024F480B483B000AF7860FB
:102DE0007B685B6A03F00103002B0AD07B681B68D9
:102DF0007A681268526822F400317A68926A0A434B
:102E00005A607B685B6A03F00203002B0AD07B6880
:102E10001B687A681268526822F480317A68D26A34
:102E20000A435A607B685B6A03F00403002B0AD0F4
:102E30007B681B687A681268526822F480217A687D
:102E4000126B0A435A607B685B6A03F00803002B2D
:102E50000AD07B681B687A681268526822F40041C5
:102E60007A68526B0A435A607B685B6A03F010030E
:102E7000002B0AD07B681B687A681268926822F47B
:102E800080517A68926B0A439A607B685B6A03F0B0
:102E90002003002B0AD07B681B687A68126892684E
:102EA00022F400517A68D26B0A439A607B685B6AAD
:102EB00003F04003002B1AD07B681B687A68126805
:102EC000526822F480117A68126C0A435A607B6857
:102ED0001B6CB3F5801F0AD17B681B687A68126887
:102EE000526822F4C0017A68526C0A435A607B68C7
:102EF0005B6A03F08003002B0AD07B681B687A684A
:102F00001268526822F400217A68926C0A435A606F
:102F100000BF0C37BD465DF8047B704780B586B0B6
:102F200002AF78600023FB607B6800225A67FDF7E0
:102F30004DFBF8607B681B681B6803F00803082BD7
:102F40000ED16FF07E430093FB6800224FF4001116
:102F5000786800F02CF80346002B01D0032322E010
:102F60007B681B681B6803F00403042B0ED16FF011
:102F70007E430093FB6800224FF48001786800F0E4
:102F800016F80346002B01D003230CE07B682022B7
:102F900083F871207B68202283F872207B680022EE
:102FA00083F87020002318461037BD4680BD80B5D9
:102FB00084B000AFF860B9603B601346FB712CE051
:102FC000BB69B3F1FF3F28D0BB69002B07D0FDF7E9
:102FD000FDFA02463B68D21ABB699A421DD9FB68CA
:102FE0001B68FA681268126822F4D0721A60FB68D3
:102FF0001B68FA681268926822F001029A60FB6806
:10300000202283F87120FB68202283F87220FB685D
:10301000002283F8702003230FE0FB681B68DA6945
:10302000BB681A40BB689A420CBF01230023DBB285
:103030001A46FB799A42C3D0002318461037BD4682
:1030400080BD80B485B000AF0346FB800023FB60E9
:10305000B7F90630842B05D0B7F90620FB68134476
:103060000333FB60FB6818461437BD465DF8047BEC
:10307000704780B483B000AFEFF305837B607B685B
:10308000002B14BF01230023DBB218460C37BD46CA
:103090005DF8047B704780B500AF01F063FB00234F
:1030A000184680BDF0B587B002AF786039607B68A4
:1030B0005C687B681D687B681B699EB27B68B3F99E
:1030C00008301846FFF7BDFF024607F10C030193D5
:1030D00000923B6832462946204601F0E5F9034656
:1030E000012B01D0002300E0FB6818461437BD46D1
:1030F000F0BD80B584B000AF78607B68FB60FB6892
:10310000002B01D0FB6800E00123184601F0F6FA1D
:10311000002318461037BD4680BD000080B586B03C
:1031200002AFF8600B467A60FB72FB7A012B01D18B
:10313000012200E00022FB681B6800937B680121EC
:10314000034802F051F8034618461037BD4680BDCB
:10315000786C000880B588B002AF786039600023D1
:103160007B610023FB603B683B613B69002B01D125
:1031700001233B61FFF77DFF0346002B1BD007F1C6
:103180000C020023009313463A690921786802F083
:1031900079F80346012B02D0FF237B6118E0FB681E
:1031A000002B15D00D4B4FF080521A60BFF34F8F9C
:1031B000BFF36F8F0CE00023009300233A690421D2
:1031C000786802F05FF80346012B01D0FF237B6192
:1031D0007B6918461837BD4680BD00BF04ED00E08E
:1031E00080B483B000AF78607B6803F108027B682D
:1031F0005A607B684FF0FF329A607B6803F10802E7
:103200007B68DA607B6803F108027B681A617B687F
:1032100000221A6000BF0C37BD465DF8047B704782
:1032200080B483B000AF78607B6800221A6100BF71
:103230000C37BD465DF8047B704780B485B000AFA5
:10324000786039607B685B68FB603B68FA685A604D
:10325000FB689A683B689A60FB689B683A685A60AA
:10326000FB683A689A603B687A681A617B681B68F9
:103270005A1C7B681A6000BF1437BD465DF8047B9A
:10328000704780B485B000AF786039603B681B68D8
:10329000BB60BB68B3F1FF3F03D17B681B69FB6078
:1032A0000CE07B680833FB6002E0FB685B68FB6056
:1032B000FB685B681A68BB689A42F6D9FB685A6873
:1032C0003B685A603B685B683A689A603B68FA689A
:1032D0009A60FB683A685A603B687A681A617B6852
:1032E0001B685A1C7B681A6000BF1437BD465DF826
:1032F000047B704780B485B000AF78607B681B6941
:10330000FB607B685B687A6892689A607B689B6800
:103310007A6852685A60FB685A687B689A4203D19F
:103320007B689A68FB685A607B6800221A61FB68B8
:103330001B685A1EFB681A60FB681B681846143726
:10334000BD465DF8047B704780B485B000AFF8607F
:10335000B9607A60FB68043BFB60FB684FF08072E9
:103360001A60FB68043BFB60BB6823F00102FB684A
:103370001A60FB68043BFB600C4AFB681A60FB6840
:10338000143BFB607A68FB681A60FB68043BFB60D7
:10339000FB686FF002021A60FB68203BFB60FB6871
:1033A00018461437BD465DF8047B7047B1330008FA
:1033B00080B485B000AF00237B60114B1B68B3F174
:1033C000FF3F09D04FF0500383F31188BFF36F8F95
:1033D000BFF34F8FFB60FEE74FF0500383F311887C
:1033E000BFF36F8FBFF34F8FBB6000BF7B68002BB5
:1033F000FCD000BF1437BD465DF8047B704700BFAA
:10340000000000200000000000000000000000009C
:10341000074B19680868B0E8F04F80F30988BFF3DC
:103420006F8F4FF0000080F311887047AFF300807A
:10343000B827002000BF00BF08480068006880F37C
:1034400008884FF0000080F3148862B661B6BFF3BD
:103450004F8FBFF36F8F00DF00BF00BF08ED00E0AC
:1034600080B586B000AF444B1B68444A934209D1F3
:103470004FF0500383F31188BFF36F8FBFF34F8F6B
:103480003B61FEE73C4B1B683D4A934209D14FF03C
:10349000500383F31188BFF36F8FBFF34F8FFB602F
:1034A000FEE7384B7B617B691B78DBB27B607B6915
:1034B000FF221A707B691B78DBB2FB70FB78DBB2F2
:1034C00003F05003DAB2304B1A70304B07221A6007
:1034D00009E02E4B1B68013B2C4A1360FB78DBB2E2
:1034E0005B00DBB2FB70FB78DBB203F08003802B68
:1034F000EFD0264B1B68C3F10703042B09D04FF014
:10350000500383F31188BFF36F8FBFF34F8FBB60FE
:10351000FEE71E4B1B681B021C4A13601B4B1B68FB
:1035200003F4E063194A13607B68DAB27B691A70AE
:10353000174A174B1B6843F470031360144A144B6B
:103540001B6843F07043136000F0D6F8114B002263
:103550001A6000F0F5F8104A0F4B1B6843F0404327
:103560001360FFF769FF01F0BFFAFFF721FF0023A7
:1035700018461837BD4680BD00ED00E071C20F410E
:1035800070C20F4100E400E0880000208C000020A1
:1035900020ED00E00000002034EF00E080B483B0B4
:1035A00000AF4FF0500383F31188BFF36F8FBFF369
:1035B0004F8F7B600E4B1B6801330D4A13600C4B21
:1035C0001B68012B0ED10B4B1B68DBB2002B09D003
:1035D0004FF0500383F31188BFF36F8FBFF34F8F0A
:1035E0003B60FEE700BF0C37BD465DF8047B7047CB
:1035F0000000002004ED00E080B483B000AF114B68
:103600001B68002B09D14FF0500383F31188BFF3DF
:103610006F8FBFF34F8F7B60FEE70A4B1B68013B48
:10362000084A1360074B1B68002B04D100233B6042
:103630003B6883F3118800BF0C37BD465DF8047BFF
:10364000704700BF000000200000000000000000E4
:10365000EFF30980BFF36F8F154B1A681EF0100F40
:1036600008BF20ED108A20E9F04F10602DE9090015
:103670004FF0500080F31188BFF34F8FBFF36F8F6F
:1036800001F032FA4FF0000080F3118809BC19688C
:103690000868B0E8F04F1EF0100F08BFB0EC108AB9
:1036A00080F30988BFF36F8F704700BFAFF30080CE
:1036B000B827002000BF00BF80B582B000AF4FF038
:1036C000500383F31188BFF36F8FBFF34F8F7B607D
:1036D00001F04EF90346002B03D0064B4FF0805209
:1036E0001A6000233B603B6883F3118800BF0837F2
:1036F000BD4680BD04ED00E080B400AF0B4B00225E
:103700001A600B4B00221A600A4A0B4B1B680B49CC
:10371000A1FB03139B09013B1360044B07221A60B2
:1037200000BFBD465DF8047B704700BF10E000E0BD
:1037300018E000E014E000E004000020D34D621027
:10374000DFF80C00016841F470010160704700BFB0
:1037500088ED00E080B485B000AFEFF30583FB6037
:10376000FB680F2B13D9164AFB6813441B78FB72B6
:10377000144B1B78FA7A9A4209D24FF0500383F324
:103780001188BFF36F8FBFF34F8F7B60FEE70E4B47
:103790001B6803F4E0620D4B1B689A4209D94FF095
:1037A000500383F31188BFF36F8FBFF34F8F3B60DC
:1037B000FEE700BF1437BD465DF8047B704700BFCD
:1037C000F0E300E0880000200CED00E08C00002019
:1037D00080B58AB000AF78600023FB6101F00EF87D
:1037E000574B1B68002B01D100F00CF9554B1A68A0
:1037F0007B681340002B40F08C807B68002B1CD032
:1038000008227B6813447B607B6803F00703002B6E
:1038100013D07B6823F0070308337B607B6803F0D9
:103820000703002B09D04FF0500383F31188BFF337
:103830006F8FBFF34F8F7B61FEE77B68002B68D0F3
:10384000414B1B687A689A4263D8404B3B623F4BBE
:103850001B687B6204E07B6A3B627B6A1B687B625D
:103860007B6A5A687B689A4203D27B6A1B68002B8A
:10387000F1D1334B1B687A6A9A424AD03B6A1B6883
:1038800008221344FB617B6A1A683B6A1A607B6AF0
:103890005A687B68D21A08235B009A421ED97A6A5A
:1038A0007B681344BB61BB6903F00703002B09D09D
:1038B0004FF0500383F31188BFF36F8FBFF34F8F27
:1038C0003B61FEE77B6A5A687B68D21ABB695A6023
:1038D0007B6A7A685A60B86900F0F6F81A4B1A6881
:1038E0007B6A5B68D31A184A1360174B1A68184B27
:1038F0001B689A4203D2144B1B68154A13607B6AFB
:103900005A68104B1B681A437B6A5A607B6A002214
:103910001A6000F081FFFB6903F00703002B09D058
:103920004FF0500383F31188BFF36F8FBFF34F8FB6
:10393000FB60FEE7FB6918462837BD4680BD00BF27
:10394000A8270020B4270020AC270020A0270020B3
:10395000B027002080B586B000AF78607B687B61BF
:103960007B68002B46D008235B427A6913447B6155
:103970007B693B613B695A68204B1B681340002BF5
:1039800009D14FF0500383F31188BFF36F8FBFF35A
:103990004F8FFB60FEE73B691B68002B09D04FF09F
:1039A000500383F31188BFF36F8FBFF34F8FBB605A
:1039B000FEE73B695A68114B1B681340002B19D076
:1039C0003B691B68002B15D13B695A680B4B1B6880
:1039D000DB431A403B695A6000F010FF3B695A68AC
:1039E000074B1B681344064A1360386900F06CF8F3
:1039F00000F012FF00BF1837BD4680BDB42700207D
:103A0000AC27002080B485B000AF42F21073BB60D9
:103A1000274BFB60FB6803F00703002B0CD0FB680F
:103A20000733FB60FB6823F00703FB60BA68FB68A1
:103A3000D31A1F4A1344BB60FB687B601D4A7B6836
:103A400013601C4B00225A607A68BB681344FB6009
:103A50000822FB689B1AFB60FB6823F00703FB60EE
:103A6000FB68154A1360144B1B6800225A60124B06
:103A70001B6800221A607B683B603B68FA68D21AB8
:103A80003B685A600C4B1A683B681A603B685B687D
:103A90000A4A13603B685B68094A1360094B4FF0A0
:103AA00000421A6000BF1437BD465DF8047B7047C2
:103AB00090000020A0270020A8270020B027002089
:103AC000AC270020B427002080B485B000AF786018
:103AD000284BFB6002E0FB681B68FB60FB681A6810
:103AE0007B689A42F7D3FB68BB60FB685B68BA6887
:103AF0001A447B689A4208D1FB685A687B685B6805
:103B00001A44FB685A60FB687B607B68BB607B681B
:103B10005B68BA681A44FB681B689A4218D1FB6854
:103B20001A68154B1B689A420DD07B685A68FB686F
:103B30001B685B681A447B685A60FB681B681A68DC
:103B40007B681A6008E00C4B1A687B681A6003E017
:103B5000FB681A687B681A60FA687B689A4202D030
:103B6000FB687A681A6000BF1437BD465DF8047BB5
:103B7000704700BFA0270020A827002080B584B090
:103B800000AF786039607B68FB60FB68002B09D16F
:103B90004FF0500383F31188BFF36F8FBFF34F8F44
:103BA000BB60FEE7FFF7FAFCFB681A68FB68DB6B9B
:103BB000F968096C01FB03F31A44FB685A60FB685F
:103BC00000229A63FB681A68FB689A60FB681A68AF
:103BD000FB68DB6B013BF968096C01FB03F31A44DA
:103BE000FB68DA60FB68FF2283F84420FB68FF2251
:103BF00083F845203B68002B14D1FB681B69002B20
:103C00001AD0FB681033184601F016F80346002B53
:103C100012D00D4B4FF080521A60BFF34F8FBFF39D
:103C20006F8F09E0FB6810331846FFF7D9FAFB687D
:103C300024331846FFF7D4FAFFF7DEFC01231846B9
:103C40001037BD4680BD00BF04ED00E080B58AB0EE
:103C500002AFF860B9601346FB71FB68002B09D115
:103C60004FF0500383F31188BFF36F8FBFF34F8F73
:103C70003B61FEE7BB68002B02D10023FB6104E03F
:103C8000FB68BA6802FB03F3FB61FB694833184623
:103C9000FFF79EFDB861BB69002B0BD0BB694833B1
:103CA0007B61FA79BB69009313467A69B968F86851
:103CB00000F005F8BB6918462037BD4680BD80B5C9
:103CC00084B000AFF860B9607A60FB70BB68002B0D
:103CD00003D1BB69BA691A6002E0BB697A681A60ED
:103CE000BB69FA68DA63BB69BA681A640121B8690A
:103CF000FFF744FF00BF1037BD4680BD80B58EB0D2
:103D000000AFF860B9607A603B6000237B63FB68BA
:103D10003B633B6B002B09D14FF0500383F31188B9
:103D2000BFF36F8FBFF34F8FBB62FEE7BB68002B03
:103D300003D13B6B1B6C002B01D1012300E000235E
:103D4000002B09D14FF0500383F31188BFF36F8F1D
:103D5000BFF34F8F7B62FEE73B68022B03D13B6BC7
:103D6000DB6B012B01D1012300E00023002B09D1E3
:103D70004FF0500383F31188BFF36F8FBFF34F8F62
:103D80003B62FEE701F0F6F80346002B02D17B68A8
:103D9000002B01D1012300E00023002B09D14FF0BB
:103DA000500383F31188BFF36F8FBFF34F8FFB6115
:103DB000FEE7FFF7F3FB3B6B9A6B3B6BDB6B9A42C7
:103DC00002D33B68022B29D13A68B968386B00F0FE
:103DD000FFF9F8623B6B5B6A002B10D03B6B24331E
:103DE000184600F029FF0346002B13D03F4B4FF03D
:103DF00080521A60BFF34F8FBFF36F8F0AE0FB6AE8
:103E0000002B07D0394B4FF080521A60BFF34F8F11
:103E1000BFF36F8FFFF7F0FB012363E07B68002B9C
:103E200003D1FFF7E9FB00235CE07B6B002B06D19D
:103E300007F11403184600F061FF01237B63FFF7CD
:103E4000DBFB00F0DBFCFFF7A9FB3B6B93F8443096
:103E50005BB2B3F1FF3F03D13B6B002283F84420F8
:103E60003B6B93F845305BB2B3F1FF3F03D13B6B43
:103E7000002283F84520FFF7BFFB3A1D07F114032A
:103E80001146184600F050FF0346002B24D1386B32
:103E900000F096FA0346002B18D03B6B10337A687B
:103EA0001146184600F07AFE386B00F021FA00F057
:103EB000B3FC0346002B7FF47CAF0C4B4FF08052D9
:103EC0001A60BFF34F8FBFF36F8F72E7386B00F04C
:103ED0000FFA00F0A1FC6CE7386B00F009FA00F073
:103EE0009BFC002318463837BD4680BD04ED00E03A
:103EF00080B58EB000AFF860B9607A603B60FB6857
:103F00003B633B6B002B09D14FF0500383F31188C7
:103F1000BFF36F8FBFF34F8F7B62FEE7BB68002B51
:103F200003D13B6B1B6C002B01D1012300E000236C
:103F3000002B09D14FF0500383F31188BFF36F8F2B
:103F4000BFF34F8F3B62FEE73B68022B03D13B6B15
:103F5000DB6B012B01D1012300E00023002B09D1F1
:103F60004FF0500383F31188BFF36F8FBFF34F8F70
:103F7000FB61FEE7FFF7EEFBEFF311824FF050031A
:103F800083F31188BFF36F8FBFF34F8FBA617B61EB
:103F9000BB69FB623B6B9A6B3B6BDB6B9A4202D358
:103FA0003B68022B2CD13B6B93F8453087F82B30C4
:103FB0003A68B968386B00F00BF997F92B30B3F118
:103FC000FF3F12D13B6B5B6A002B16D03B6B243357
:103FD000184600F031FE0346002B0ED07B68002B04
:103FE0000BD07B6801221A6007E097F82B30013371
:103FF000DBB25AB23B6B83F8452001237B6301E0BF
:1040000000237B63FB6A3B613B6983F311887B6B15
:1040100018463837BD4680BD80B58CB000AFF8601B
:10402000B9607A600023FB62FB68BB62BB6A002B4D
:1040300009D14FF0500383F31188BFF36F8FBFF3A3
:104040004F8F3B62FEE7BB68002B03D1BB6A1B6C42
:10405000002B01D1012300E00023002B09D14FF0F8
:10406000500383F31188BFF36F8FBFF34F8FFB6152
:10407000FEE700F07FFF0346002B02D17B68002B98
:1040800001D1012300E00023002B09D14FF05003A0
:1040900083F31188BFF36F8FBFF34F8FBB61FEE7D0
:1040A000FFF77CFABB6A9B6B7B627B6A002B1FD09D
:1040B000B968B86A00F0F6F87B6A5A1EBB6A9A6360
:1040C000BB6A1B69002B0FD0BB6A1033184600F087
:1040D000B3FD0346002B07D03C4B4FF080521A60D3
:1040E000BFF34F8FBFF36F8FFFF786FA012369E0AD
:1040F0007B68002B03D1FFF77FFA002362E0FB6AA5
:10410000002B06D107F11003184600F0F7FD01233C
:10411000FB62FFF771FA00F071FBFFF73FFABB6A31
:1041200093F844305BB2B3F1FF3F03D1BB6A002286
:1041300083F84420BB6A93F845305BB2B3F1FF3F8C
:1041400003D1BB6A002283F84520FFF755FA3A1DD8
:1041500007F110031146184600F0E6FD0346002B58
:1041600023D1B86A00F016F90346002B17D0BB6ABA
:1041700024337A681146184600F010FDB86A00F042
:10418000B7F800F049FB0346002B89D10F4B4FF0E5
:1041900080521A60BFF34F8FBFF36F8F80E7B86A0A
:1041A00000F0A6F800F038FB7AE7B86A00F0A0F853
:1041B00000F032FBB86A00F0EDF80346002B3FF444
:1041C0006FAF002318463037BD4680BD04ED00E0D8
:1041D00080B586B000AFF860B9607A6000237B617B
:1041E000FB689B6B3B61FB681B6C002B0DD1FB6874
:1041F0001B68002B4DD1FB685B68184600F0D8FEA9
:104200007861FB6800225A6043E07B68002B19D17B
:10421000FB689868FB681B6C1A46B96801F0DEFD04
:10422000FB689A68FB681B6C1A44FB689A60FB6821
:104230009A68FB685B689A422BD3FB681A68FB6834
:104240009A6026E0FB68D868FB681B6C1A46B96860
:1042500001F0C4FDFB68DA68FB681B6C5B421A4422
:10426000FB68DA60FB68DA68FB681B689A4207D271
:10427000FB685A68FB681B6C5B421A44FB68DA6097
:104280007B68022B05D13B69002B02D03B69013BC7
:104290003B613B695A1CFB689A637B691846183777
:1042A000BD4680BD80B582B000AF786039607B6864
:1042B0001B6C002B18D07B68DA687B681B6C1A4477
:1042C0007B68DA607B68DA687B685B689A4203D354
:1042D0007B681A687B68DA607B68D9687B681B6CCE
:1042E0001A46386801F07AFD00BF0837BD4680BD28
:1042F00080B584B000AF7860FFF750F97B6893F821
:104300004530FB7311E07B685B6A002B12D07B6841
:104310002433184600F090FC0346002B01D000F037
:1043200063FDFB7B013BDBB2FB7397F90F30002B86
:10433000E9DC00E000BF7B68FF2283F84520FFF73F
:104340005BF9FFF72BF97B6893F84430BB7311E0FE
:104350007B681B69002B12D07B681033184600F075
:104360006BFC0346002B01D000F03EFDBB7B013B04
:10437000DBB2BB7397F90E30002BE9DC00E000BF25
:104380007B68FF2283F84420FFF736F900BF10371F
:10439000BD4680BD80B584B000AF7860FFF7FEF801
:1043A0007B689B6B002B02D10123FB6001E00023A3
:1043B000FB60FFF721F9FB6818461037BD4680BD4A
:1043C00080B584B000AF7860FFF7E8F87B689A6B3F
:1043D0007B68DB6B9A4202D10123FB6001E0002382
:1043E000FB60FFF709F9FB6818461037BD4680BD32
:1043F00080B485B000AF786039600023FB6014E0C2
:104400000E4AFB6852F83330002B0BD10B49FB6886
:104410003A6841F83320094AFB68DB0013447A68A4
:104420005A6005E0FB680133FB60FB68072BE7D9A6
:1044300000BF1437BD465DF8047B7047302900206B
:1044400080B586B000AFF860B9607A60FB687B61C8
:10445000FFF7A4F87B6993F844305BB2B3F1FF3FF8
:1044600003D17B69002283F844207B6993F84530AF
:104470005BB2B3F1FF3F03D17B69002283F8452093
:10448000FFF7BAF87B699B6B002B06D17B6924335D
:104490007A68B968184600F0A5FB7869FFF728FF2D
:1044A00000BF1837BD4680BD80B58CB004AFF86042
:1044B000B9603B601346FB80FB889B001846FFF702
:1044C00087F978617B69002B0ED05420FFF780F9C3
:1044D000F861FB69002B03D0FB697A691A6305E078
:1044E0007869FFF737FA01E00023FB61FB69002BD5
:1044F00013D0FA8800230393FB690293FB6A0193AC
:10450000BB6A00933B68B968F86800F00EF8F86978
:1045100000F08AF80123BB6102E04FF0FF33BB617A
:10452000BB6918462037BD4680BD80B588B000AF56
:10453000F860B9607A603B603B6B1A6B7B6803F193
:104540008043013B9B001344BB61BB6923F007031D
:10455000BB61BB6903F00703002B09D04FF0500388
:1045600083F31188BFF36F8FBFF34F8F7B61FEE73B
:104570000023FB6112E0BA68FB69134419783A6BB7
:10458000FB69134434330A461A70BA68FB69134452
:104590001B78002B06D0FB690133FB61FB690F2BF5
:1045A000E9D900E000BF3B6B002283F84320BB6ADF
:1045B000062B01D90623BB623B6BBA6ADA623B6BFE
:1045C000BA6A5A643B6B00229A643B6B0433184608
:1045D000FEF726FE3B6B18331846FEF721FE3B6BB9
:1045E0003A6B1A61BB6AC3F107023B6B9A613B6B82
:1045F0003A6B5A623B6B0022DA643B6B002283F811
:1046000050203A68F968B869FEF79EFE02463B6B97
:104610001A60FB6A002B02D0FB6A3A6B1A6000BF7B
:104620002037BD4680BD000080B582B000AF786005
:10463000FEF7B4FF2A4B1B680133294A1360294B4C
:104640001B68002B09D1274A7B681360244B1B6829
:10465000012B10D100F0ECFB0DE0234B1B68002B6D
:1046600009D1204B1B68DA6A7B68DB6A9A4202D860
:104670001C4A7B6813601D4B1B6801331B4A136087
:104680007B68DB6A01229A40194B1B681343184A66
:1046900013607B68DA6A13469B0013449B00154A3B
:1046A0001A447B68043319461046FEF7C6FDFEF730
:1046B000A3FF0D4B1B68002B0ED00A4B1B68DA6A58
:1046C0007B68DB6A9A4207D20B4B4FF080521A602C
:1046D000BFF34F8FBFF36F8F00BF0837BD4680BD5C
:1046E000B8280020B8270020C4280020D4280020A3
:1046F000C0280020BC27002004ED00E080B584B075
:1047000000AF78600023FB607B68002B16D0134B52
:104710001B68002B09D04FF0500383F31188BFF3BF
:104720006F8FBFF34F8FBB60FEE700F067F800218B
:10473000786800F0C1FC00F06FF8F860FB68002BAF
:1047400007D1074B4FF080521A60BFF34F8FBFF372
:104750006F8F00BF1037BD4680BD00BFE02800202E
:1047600004ED00E080B586B002AF1E4B019300233C
:104770000093002380221C491C48FFF795FEF86037
:10478000FB68012B02D100F0FDFCF860FB68012BF7
:1047900015D14FF0500383F31188BFF36F8FBFF330
:1047A0004F8FBB60124B4FF0FF321A60114B01224A
:1047B0001A60114B00221A60FEF752FE0DE0FB68F2
:1047C000B3F1FF3F09D14FF0500383F31188BFF3DA
:1047D0006F8FBFF34F8F7B60FEE700BF1037BD4682
:1047E00080BD00BFDC2800207C6C0008014E000862
:1047F000D8280020C4280020BC28002080B400AFA6
:10480000044B1B680133034A136000BFBD465DF8CB
:10481000047B7047E028002080B584B000AF0023FF
:10482000FB600023BB60414B1B68002B09D14FF09C
:10483000500383F31188BFF36F8FBFF34F8F3B603B
:10484000FEE7FEF7ABFE394B1B68013B374A1360AE
:10485000364B1B68002B61D1354B1B68002B5DD09C
:104860002EE0344BDB68DB68FB60FB6818331846CE
:10487000FEF740FDFB6804331846FEF73BFDFB687E
:10488000DB6A01229A402C4B1B6813432A4A1360AF
:10489000FB68DA6A13469B0013449B00274A1A44BC
:1048A000FB68043319461046FEF7C7FCFB68DA6A5A
:1048B000234B1B68DB6A9A4202D3224B01221A6007
:1048C0001C4B1B68002BCCD1FB68002B01D000F0E7
:1048D0002BFB1D4B1B687B607B68002B10D000F00E
:1048E00047F80346002B02D0164B01221A607B6862
:1048F000013B7B607B68002BF1D1134B00221A60D7
:10490000104B1B68002B09D00123BB600F4B4FF0ED
:1049100080521A60BFF34F8FBFF36F8FFEF76CFEAC
:10492000BB6818461037BD4680BD00BFE028002098
:10493000B828002078280020C0280020BC270020AC
:10494000B8270020CC280020C828002004ED00E073
:1049500080B483B000AF054B1B687B607B68184652
:104960000C37BD465DF8047B704700BFBC280020B3
:1049700080B586B000AF00237B61504B1B68002BD5
:1049800040F08C804E4B1B6801333B614C4A3B69C5
:1049900013603B69002B1FD14A4B1B681B68002B1F
:1049A00009D04FF0500383F31188BFF36F8FBFF32B
:1049B0004F8F3B60FEE7434B1B68FB60424B1B681D
:1049C000404A1360404AFB681360404B1B68013348
:1049D0003E4A136000F0A8FA3D4B1B683A699A42C0
:1049E0004DD3384B1B681B68002B01D1012300E01D
:1049F0000023002B04D0364B4FF0FF321A603EE00C
:104A0000304B1B68DB68DB68BB60BB685B687B6046
:104A10003A697B689A4203D22D4A7B6813602EE084
:104A2000BB6804331846FEF765FCBB689B6A002B25
:104A300004D0BB6818331846FEF75CFCBB68DB6A21
:104A400001229A40234B1B681343224A1360BB6820
:104A5000DA6A13469B0013449B001F4A1A44BB6842
:104A6000043319461046FEF7E8FBBB68DA6A1B4BB5
:104A70001B68DB6A9A42B4D301237B61B1E7174B11
:104A80001B68DA6A144913469B0013449B000B44CD
:104A90001B68012B07D901237B6104E0104B1B68C5
:104AA00001330F4A13600F4B1B68002B01D0012309
:104AB0007B617B6918461837BD4680BDE028002021
:104AC000BC2800207028002074280020D028002056
:104AD000D8280020C0280020BC270020B8270020AC
:104AE000C8280020CC28002080B487B000AF264B17
:104AF0001B68002B03D0254B01221A603EE0234B9C
:104B000000221A60224B1B68FB60FB68B3FA83F338
:104B1000FB72FB7AC3F11F037B611E497A6913465E
:104B20009B0013449B000B441B68002B09D14FF0E2
:104B3000500383F31188BFF36F8FBFF34F8F7B60F8
:104B4000FEE77A6913469B0013449B00114A134405
:104B50003B613B695B685A683B695A603B695A68CC
:104B60003B6908339A4204D13B695B685A683B69E8
:104B70005A603B695B68DB68074A136000BF1C37FB
:104B8000BD465DF8047B7047E0280020CC2800205B
:104B9000C0280020BC270020B827002080B584B0A2
:104BA00000AF786039607B68002B09D14FF050036B
:104BB00083F31188BFF36F8FBFF34F8FFB60FEE766
:104BC000074B1B68183319467868FEF75AFB01211A
:104BD000386800F071FA00BF1037BD4680BD00BFD5
:104BE000B827002080B586B000AFF860B9607A6061
:104BF000FB68002B09D14FF0500383F31188BFF3FA
:104C00006F8FBFF34F8F7B61FEE70A4B1B68183332
:104C10001946F868FEF711FB7B68002B02D04FF0B5
:104C2000FF33BB607968B86800F046FA00BF1837F8
:104C3000BD4680BDB827002080B586B000AF786043
:104C40007B68DB68DB683B613B69002B09D14FF077
:104C5000500383F31188BFF36F8FBFF34F8FFB6057
:104C6000FEE73B6918331846FEF744FB1D4B1B68F3
:104C7000002B1CD13B6904331846FEF73BFB3B6914
:104C8000DB6A01229A40184B1B681343164A1360D3
:104C90003B69DA6A13469B0013449B00134A1A448B
:104CA0003B69043319461046FEF7C7FA05E03B6935
:104CB000183319460E48FEF7C0FA3B69DA6A0D4B05
:104CC0001B68DB6A9A4205D901237B610A4B0122EA
:104CD0001A6001E000237B617B6918461837BD46E6
:104CE00080BD00BFE0280020C0280020BC27002095
:104CF00078280020B8270020CC28002080B483B07A
:104D000000AF7860064B1A687B681A60054B1A681A
:104D10007B685A6000BF0C37BD465DF8047B704766
:104D2000D0280020BC28002080B588B000AF786073
:104D300039607B68002B09D14FF0500383F3118851
:104D4000BFF36F8FBFF34F8F3B61FEE73B68002BD4
:104D500009D14FF0500383F31188BFF36F8FBFF376
:104D60004F8FFB60FEE7FEF719FC1D4B1B68BB6114
:104D70007B685B68BA69D31A7B613B681B68B3F1D7
:104D8000FF3F02D10023FB6123E07B681A68154BCB
:104D90001B689A4207D07B685A68BB699A4202D85E
:104DA0000123FB6115E03B681A687B699A420BD9C5
:104DB0003B681A687B69D21A3B681A607868FFF70B
:104DC0009DFF0023FB6104E03B6800221A60012381
:104DD000FB61FEF711FCFB6918462037BD4680BD1C
:104DE000BC280020D028002080B400AF034B012253
:104DF0001A6000BFBD465DF8047B7047CC280020D8
:104E000080B582B000AF786000F052F8064B1B68A6
:104E1000012BF9D9054B4FF080521A60BFF34F8F29
:104E2000BFF36F8FF0E700BFBC27002004ED00E068
:104E300080B582B000AF00237B600CE07A68134637
:104E40009B0013449B00124A13441846FEF7C8F90E
:104E50007B6801337B607B68062BEFD90D48FEF73A
:104E6000BFF90D48FEF7BCF90C48FEF7B9F90C483C
:104E7000FEF7B6F90B48FEF7B3F90B4B054A1A607B
:104E80000A4B054A1A6000BF0837BD4680BD00BF07
:104E9000BC270020482800205C280020782800201B
:104EA0008C280020A42800207028002074280020CE
:104EB00080B582B000AF19E0FEF770FB0F4BDB68E6
:104EC000DB687B607B6804331846FEF713FA0C4BF3
:104ED0001B68013B0A4A13600A4B1B68013B094AE5
:104EE0001360FEF789FB786800F00EF8054B1B682D
:104EF000002BE1D100BF0837BD4680BD8C280020C3
:104F0000B8280020A028002080B582B000AF7860CB
:104F10007B681B6B1846FEF71DFD7868FEF71AFDCF
:104F200000BF0837BD4680BD80B483B000AF0F4BD3
:104F30001B681B68002B01D1012300E00023002B1C
:104F400004D00B4B4FF0FF321A6008E0074B1B6890
:104F5000DB68DB687B607B685B68054A136000BFC9
:104F60000C37BD465DF8047B704700BF70280020F9
:104F7000D828002080B483B000AF0B4B1B68002BF7
:104F800002D101237B6008E0084B1B68002B02D193
:104F900002237B6001E000237B607B6818460C37AE
:104FA000BD465DF8047B7047C4280020E02800203F
:104FB00080B586B000AF78607B683B6100237B6181
:104FC0007B68002B6CD0394B1B683A699A4209D038
:104FD0004FF0500383F31188BFF36F8FBFF34F8FF0
:104FE000FB60FEE73B699B6C002B09D14FF050033F
:104FF00083F31188BFF36F8FBFF34F8FBB60FEE762
:105000003B699B6C5A1E3B699A643B69DA6A3B694F
:105010005B6C9A4244D03B699B6C002B40D13B694E
:1050200004331846FEF766F90346002B15D13B6999
:10503000DA6A1F4913469B0013449B000B441B680C
:10504000002B0AD13B69DB6A012202FA03F3DA433F
:10505000184B1B681340174A13603B695A6C3B6935
:10506000DA623B69DB6AC3F107023B699A613B691B
:10507000DB6A01229A400F4B1B6813430D4A1360F1
:105080003B69DA6A13469B0013449B00084A1A44A2
:105090003B69043319461046FEF7CFF801237B61C4
:1050A0007B6918461837BD4680BD00BFB827002071
:1050B000BC270020C028002080B584B000AF7860F5
:1050C0003960294B1B68FB60284B1B68043318466A
:1050D000FEF710F90346002B0BD1244B1B68DB6A4B
:1050E000012202FA03F3DA43214B1B681340204AE2
:1050F00013607B68B3F1FF3F0AD13B68002B07D0F8
:105100001A4B1B68043319461A48FEF796F826E036
:10511000FA687B681344BB60144B1B68BA685A601A
:10512000BA68FB689A4209D2134B1A680F4B1B6886
:10513000043319461046FEF7A4F810E00F4B1A6826
:105140000A4B1B68043319461046FEF79AF80C4BBD
:105150001B68BA689A4202D2094ABB68136000BF52
:105160001037BD4680BD00BFBC280020B8270020F6
:10517000C0280020A42800207428002070280020C7
:10518000D828002080B584B002AF00237B6000F0F7
:10519000DDFA114B1B68002B0BD0104B019302233F
:1051A000009300234FF480720D490E48FFF77CF9FD
:1051B00078607B68002B09D14FF0500383F311888E
:1051C000BFF36F8FBFF34F8F3B60FEE77B681846DE
:1051D0000837BD4680BD00BF1429002018290020D3
:1051E000846C00089D53000880B588B002AFF86059
:1051F000B9607A603B602820FEF7EAFA78617B6943
:10520000002B09D07B6901933B6A00933B687A6865
:10521000B968F86800F005F87B6918461837BD468C
:1052200080BD80B586B000AFF860B9607A603B6041
:10523000BB68002B09D14FF0500383F31188BFF3F3
:105240006F8FBFF34F8F7B61FEE77B6A002B15D01A
:1052500000F07CFA7B6AFA681A607B6ABA689A6125
:105260007B6A7A68DA617B6A3A681A627B6A3A6AB0
:105270005A627B6A04331846FDF7D2FF00BF183725
:10528000BD4680BD80B58AB000AFF860B9607A6075
:105290003B6000237B62FB68002B09D14FF0500379
:1052A00083F31188BFF36F8FBFF34F8F3B62FEE72D
:1052B000194B1B68002B2AD0BB687B617B68BB61E4
:1052C000FB68FB61BB68052B18DCFFF753FE034648
:1052D000022B09D1104B186807F1140100233A6B17
:1052E000FEF70CFD786212E00B4B186807F1140111
:1052F00000230022FEF702FD786208E0064B1868E2
:1053000007F1140100233A68FEF7F2FD78627B6A28
:1053100018462837BD4680BD1429002080B588B0C6
:1053200002AF786039601C4B1B68DB68DB687B610F
:105330007B6904331846FDF7DDFF7B69DB69012BD0
:1053400021D17B699A697B68D1187B683A68786952
:1053500000F0C8F80346002B15D00023009300236B
:105360007A6800217869FFF78DFF38613B69002B6F
:1053700009D14FF0500383F31188BFF36F8FBFF350
:105380004F8FFB60FEE77B695B6A7869984700BFD7
:105390001837BD4680BD00BF0C29002080B584B001
:1053A00000AF786007F10803184600F057F8F8607E
:1053B000BB681946F86800F003F800F0D5F8F1E78B
:1053C00080B584B000AF78603960FFF717FA07F155
:1053D0000803184600F066F8F860BB68002B30D16F
:1053E0003B68002B0AD17A68FB689A4206D8FFF71F
:1053F00013FAF9687868FFF791FF24E03B68002B07
:1054000008D0134B1B681B68002B0CBF0123002323
:10541000DBB23B600F4B18687A68FB68D31A3A68B6
:105420001946FFF70DF8FFF7F7F90346002B0AD1ED
:10543000094B4FF080521A60BFF34F8FBFF36F8F4D
:1054400001E0FFF7E9F900BF1037BD4680BD00BF9E
:10545000102900201429002004ED00E080B485B05C
:1054600000AF78600E4B1B681B68002B0CBF01233C
:105470000023DBB21A467B681A607B681B68002B2E
:1054800005D1074B1B68DB681B68FB6001E000234C
:10549000FB60FB6818461437BD465DF8047B704717
:1054A0000C29002080B584B000AF7860FFF750FA77
:1054B000F8600B4B1B68FA689A4205D200F0E6F8D8
:1054C0007B6801221A6002E07B6800221A60044AAD
:1054D000FB681360FB6818461037BD4680BD00BFEF
:1054E0001C29002080B586B000AFF860B9607A60F2
:1054F0003B6000237B61FB68BA685A60FB68FA680E
:105500001A61BA687B689A4212D87A683B68D21AE4
:10551000FB689B699A4202D301237B611BE0104B1D
:105520001A68FB68043319461046FDF7AAFE12E01C
:105530007A683B689A4206D2BA683B689A4202D3BC
:1055400001237B6107E0074B1A68FB6804331946A7
:105550001046FDF796FE7B6918461837BD4680BD9C
:10556000102900200C29002080B58CB002AF7AE011
:10557000BB68002B77DB3B697B627B6A5B69002B36
:1055800004D07B6A04331846FDF7B4FE3B1D184671
:10559000FFF788FF3862BB68092B63D801A252F875
:1055A00023F000BFCD550008CD550008CD550008AB
:1055B00067560008275600085D560008CD550008BC
:1055C000CD5500086756000827560008FA687B6A20
:1055D0009B69D118FB683A6A786AFFF783FF034634
:1055E000002B40D07B6A5B6A786A98477B6ADB69EC
:1055F000012B38D1FA687B6A9B691A440023009317
:1056000000230021786AFFF73DFEF861FB69002B5B
:1056100029D14FF0500383F31188BFF36F8FBFF38D
:105620004F8FBB61FEE7FA687B6A9A617B6A9B6970
:10563000002B09D14FF0500383F31188BFF36F8F14
:10564000BFF34F8F7B61FEE77B6A9A693B6AD11893
:105650003B6A3A6A786AFFF745FF04E0786AFEF72A
:1056600079F900E000BF084B1B6807F10801002230
:105670001846FEF7D1FC0346002B7FF479AF00BF3C
:105680002837BD4680BD00BF1429002080B588B0F2
:1056900002AF44E02B4B1B68DB681B687B61294B26
:1056A0001B68DB68DB683B613B6904331846FDF728
:1056B00021FE3B695B6A386998473B69DB69012BCE
:1056C0002DD13B699A697B691344FB60FA687B6959
:1056D0009A420ED93B69FA685A603B693A691A6185
:1056E000184B1A683B69043319461046FDF7C9FD8B
:1056F00015E00023009300237A6900213869FFF741
:10570000C1FDB860BB68002B09D14FF0500383F393
:105710001188BFF36F8FBFF34F8F3B60FEE7094BDC
:105720001B681B68002BB5D1064B1B687B60064BC2
:105730001B68044A1360044A7B68136000BF183773
:10574000BD4680BD0C2900201029002080B500AF87
:10575000FDF724FF124B1B68002B1DD11148FDF7EC
:105760003FFD1148FDF73CFD104B0E4A1A60104BEF
:105770000D4A1A6000220C210A20FEF767FA024641
:10578000074B1A60064B1B68002B05D0044B1B68A7
:1057900008491846FEF72CFEFDF72EFF00BF80BD1E
:1057A00014290020E4280020F82800200C290020DB
:1057B000102900208C6C000880B584B000AFF86020
:1057C000B9607A607B689AB20A23B9680348FCF72B
:1057D00038FF7B6818461037BD4680BD7829002009
:1057E000B0B586B000AFFAF7CBFE00F02BF800F0B2
:1057F000BFF800F08DF80F4B7B6107F11403002216
:1058000001211846FDF78AFC02460B4B1A600B4B30
:105810003C461D460FCD0FC42B6823603B4600213C
:105820001846FDF73FFC0246054B1A60FDF733FCB6
:10583000FEE700BFA95A0008742900209C6C0008EC
:105840007029002080B5B8B000AF07F19C03442256
:105850000021184600F0CDFA07F1880300221A60F3
:105860005A609A60DA601A613B4688220021184625
:1058700000F0BFFA1023C7F89C300123C7F8B430FA
:105880000023C7F8B8306023C7F8BC300023C7F83E
:10589000C43007F19C031846FBF7C8F90346002BF8
:1058A00001D000F021F90F23C7F888300023C7F892
:1058B0008C300023C7F890300023C7F894300023C1
:1058C000C7F8983007F1880300211846FBF712FD4E
:1058D0000346002B01D000F007F902233B600023B0
:1058E000FB633B461846FBF749FF0346002B01D0FC
:1058F00000F0FAF84FF40070FBF742F90346002B72
:1059000001D000F0F1F800BFE037BD4680BD0000D7
:1059100080B500AF144B154A1A60134B4FF4E132B7
:105920005A60114B00229A600F4B0022DA600E4B36
:1059300000221A610C4B0C225A610B4B00229A6117
:10594000094B0022DA61084B00221A62064B002242
:105950005A620548FCF724FE0346002B01D000F0F4
:10596000C3F800BF80BD00BF78290020004400407C
:1059700080B58AB000AF07F1140300221A605A60A4
:105980009A60DA601A61384A374BDB6C43F00103E6
:10599000D364354BDB6C03F001033B613B69324A56
:1059A000314BDB6C43F00203D3642F4BDB6C03F011
:1059B0000203FB60FB682C4A2B4BDB6C43F01003AB
:1059C000D364294BDB6C03F01003BB60BB68264A31
:1059D000254BDB6C43F00803D364234BDB6C03F0F3
:1059E00008037B607B68002204212048FBF77EF8D7
:1059F00000224FF480711E48FBF778F801237B6189
:105A00001C4BBB610023FB6107F1140319464FF0E7
:105A10009040FAF7C3FE04237B610123BB6100239E
:105A2000FB6100233B6207F1140319460F48FAF7A4
:105A3000B5FE4FF480737B610123BB610023FB61E2
:105A400000233B6207F1140319460948FAF7A6FE42
:105A5000002205210620FAF777FE0620FAF790FECD
:105A600000BF2837BD4680BD00100240000400483A
:105A7000001000480000111080B582B000AF7860BF
:105A8000074B1B684FF47A711846FDF763FB4FF420
:105A9000FA60FDF72EFB034800F0B4F9F7E700BF0A
:105AA00074290020B06C000880B582B000AF786027
:105AB000034800F0A7F900BF0837BD4680BD00BF0E
:105AC000B46C000880B582B000AF78607B681B685A
:105AD000044A934201D1FAF76BFD00BF0837BD4677
